{
  "contractName": "SetRegistry",
  "abi": [
    {
      "constant": true,
      "inputs": [
        {
          "name": "_set",
          "type": "address"
        }
      ],
      "name": "getSetMetadata",
      "outputs": [
        {
          "name": "",
          "type": "address"
        },
        {
          "name": "",
          "type": "string"
        },
        {
          "name": "",
          "type": "string"
        },
        {
          "name": "",
          "type": "address[]"
        },
        {
          "name": "",
          "type": "uint256[]"
        }
      ],
      "payable": false,
      "stateMutability": "view",
      "type": "function"
    },
    {
      "constant": true,
      "inputs": [
        {
          "name": "",
          "type": "uint256"
        }
      ],
      "name": "setAddresses",
      "outputs": [
        {
          "name": "",
          "type": "address"
        }
      ],
      "payable": false,
      "stateMutability": "view",
      "type": "function"
    },
    {
      "constant": true,
      "inputs": [
        {
          "name": "",
          "type": "address"
        }
      ],
      "name": "sets",
      "outputs": [
        {
          "name": "set",
          "type": "address"
        },
        {
          "name": "name",
          "type": "string"
        },
        {
          "name": "symbol",
          "type": "string"
        }
      ],
      "payable": false,
      "stateMutability": "view",
      "type": "function"
    },
    {
      "constant": false,
      "inputs": [
        {
          "name": "_tokens",
          "type": "address[]"
        },
        {
          "name": "_units",
          "type": "uint256[]"
        },
        {
          "name": "_name",
          "type": "string"
        },
        {
          "name": "_symbol",
          "type": "string"
        }
      ],
      "name": "create",
      "outputs": [
        {
          "name": "newSetTokenAddress",
          "type": "address"
        }
      ],
      "payable": false,
      "stateMutability": "nonpayable",
      "type": "function"
    },
    {
      "constant": true,
      "inputs": [],
      "name": "getSetAddresses",
      "outputs": [
        {
          "name": "",
          "type": "address[]"
        }
      ],
      "payable": false,
      "stateMutability": "view",
      "type": "function"
    },
    {
      "constant": true,
      "inputs": [
        {
          "name": "",
          "type": "address"
        }
      ],
      "name": "setExists",
      "outputs": [
        {
          "name": "",
          "type": "bool"
        }
      ],
      "payable": false,
      "stateMutability": "view",
      "type": "function"
    },
    {
      "constant": true,
      "inputs": [],
      "name": "setCount",
      "outputs": [
        {
          "name": "length",
          "type": "uint256"
        }
      ],
      "payable": false,
      "stateMutability": "view",
      "type": "function"
    },
    {
      "inputs": [],
      "payable": false,
      "stateMutability": "nonpayable",
      "type": "constructor"
    },
    {
      "anonymous": false,
      "inputs": [
        {
          "indexed": false,
          "name": "newSetToken",
          "type": "address"
        },
        {
          "indexed": false,
          "name": "tokens",
          "type": "address[]"
        },
        {
          "indexed": false,
          "name": "units",
          "type": "uint256[]"
        },
        {
          "indexed": false,
          "name": "name",
          "type": "string"
        },
        {
          "indexed": false,
          "name": "symbol",
          "type": "string"
        }
      ],
      "name": "SetTokenCreated",
      "type": "event"
    }
  ],
  "bytecode": "0x6060604052341561000f57600080fd5b6122aa8061001e6000396000f30060606040523615620000885763ffffffff7c010000000000000000000000000000000000000000000000000000000060003504166301304a4f81146200008d5780636e7f096e146200023d5780636ef49f641462000272578063920d008614620003af5780639eff34b414620004c5578063ce5c78471462000530578063f3922ca21462000566575b600080fd5b34156200009957600080fd5b620000af600160a060020a03600435166200058e565b6040518086600160a060020a0316600160a060020a0316815260200180602001806020018060200180602001858103855289818151815260200191508051906020019080838360005b8381101562000112578082015183820152602001620000f8565b50505050905090810190601f168015620001405780820380516001836020036101000a031916815260200191505b50858103845288818151815260200191508051906020019080838360005b83811015620001785780820151838201526020016200015e565b50505050905090810190601f168015620001a65780820380516001836020036101000a031916815260200191505b50858103835287818151815260200191508051906020019060200280838360005b83811015620001e1578082015183820152602001620001c7565b50505050905001858103825286818151815260200191508051906020019060200280838360005b838110156200022257808201518382015260200162000208565b50505050905001995050505050505050505060405180910390f35b34156200024957600080fd5b620002566004356200084f565b604051600160a060020a03909116815260200160405180910390f35b34156200027e57600080fd5b62000294600160a060020a036004351662000878565b604051600160a060020a0384168152606060208201818152845460026000196101006001841615020190911604918301829052906040830190608084019086908015620003255780601f10620002f95761010080835404028352916020019162000325565b820191906000526020600020905b8154815290600101906020018083116200030757829003601f168201915b50508381038252845460026000196101006001841615020190911604808252602090910190859080156200039d5780601f1062000371576101008083540402835291602001916200039d565b820191906000526020600020905b8154815290600101906020018083116200037f57829003601f168201915b50509550505050505060405180910390f35b3415620003bb57600080fd5b6200025660046024813581810190830135806020818102016040519081016040528093929190818152602001838360200280828437820191505050505050919080359060200190820180359060200190808060200260200160405190810160405280939291908181526020018383602002808284378201915050505050509190803590602001908201803590602001908080601f01602080910402602001604051908101604052818152929190602084018383808284378201915050505050509190803590602001908201803590602001908080601f0160208091040260200160405190810160405281815292919060208401838380828437509496506200089d95505050505050565b3415620004d157600080fd5b620004db62000f2f565b60405160208082528190810183818151815260200191508051906020019060200280838360005b838110156200051c57808201518382015260200162000502565b505050509050019250505060405180910390f35b34156200053c57600080fd5b62000552600160a060020a036004351662000f9c565b604051901515815260200160405180910390f35b34156200057257600080fd5b6200057c62000fb1565b60405190815260200160405180910390f35b60006200059a62000fb7565b620005a462000fb7565b620005ae62000fb7565b620005b862000fb7565b620005c262000fc9565b600160a060020a038716600090815260208190526040908190209060a0905190810160405290816000820160009054906101000a9004600160a060020a0316600160a060020a0316600160a060020a03168152602001600182018054600181600116156101000203166002900480601f016020809104026020016040519081016040528092919081815260200182805460018160011615610100020316600290048015620006b45780601f106200068857610100808354040283529160200191620006b4565b820191906000526020600020905b8154815290600101906020018083116200069657829003601f168201915b50505050508152602001600282018054600181600116156101000203166002900480601f0160208091040260200160405190810160405280929190818152602001828054600181600116156101000203166002900480156200075a5780601f106200072e576101008083540402835291602001916200075a565b820191906000526020600020905b8154815290600101906020018083116200073c57829003601f168201915b5050505050815260200160038201805480602002602001604051908101604052809291908181526020018280548015620007be57602002820191906000526020600020905b8154600160a060020a031681526001909101906020018083116200079f575b50505050508152602001600482018054806020026020016040519081016040528092919081815260200182805480156200081857602002820191906000526020600020905b81548152602001906001019080831162000803575b505050505081525050905080600001518160200151826040015183606001518460800151939b929a50909850965090945092505050565b60018054829081106200085e57fe5b600091825260209091200154600160a060020a0316905081565b60006020819052908152604090208054600160a060020a031690600181019060020183565b60008083816004826040518082805190602001908083835b60208310620008d65780518252601f199092019160209182019101620008b5565b6001836020036101000a03801982511681845116808217855250505050505090500191505090815260200160405190819003902054600160a060020a0316146200091f57600080fd5b8360006003826040518082805190602001908083835b60208310620009565780518252601f19909201916020918201910162000935565b6001836020036101000a03801982511681845116808217855250505050505090500191505090815260200160405190819003902054600160a060020a0316146200099f57600080fd5b87878787620009ad62001018565b8080602001806020018060200180602001858103855289818151815260200191508051906020019060200280838360005b83811015620009f8578082015183820152602001620009de565b50505050905001858103845288818151815260200191508051906020019060200280838360005b8381101562000a3957808201518382015260200162000a1f565b50505050905001858103835287818151815260200191508051906020019080838360005b8381101562000a7757808201518382015260200162000a5d565b50505050905090810190601f16801562000aa55780820380516001836020036101000a031916815260200191505b50858103825286818151815260200191508051906020019080838360005b8381101562000add57808201518382015260200162000ac3565b50505050905090810190601f16801562000b0b5780820380516001836020036101000a031916815260200191505b5098505050505050505050604051809103906000f080151562000b2d57600080fd5b92506001805480600101828162000b45919062001029565b5060009182526020909120018054600160a060020a031916600160a060020a03851617905560a06040519081016040908152600160a060020a03851680835260208084018a9052828401899052606084018c9052608084018b905260009182528190522081518154600160a060020a031916600160a060020a039190911617815560208201518160010190805162000be292916020019062001055565b5060408201518160020190805162000bff92916020019062001055565b5060608201518160030190805162000c1c929160200190620010da565b5060808201518160040190805162000c3992916020019062001142565b505050600160a060020a03831660009081526002602052604090819020805460ff1916600117905583906004908890518082805190602001908083835b6020831062000c975780518252601f19909201916020918201910162000c76565b6001836020036101000a0380198251168184511680821785525050505050509050019150509081526020016040519081900390208054600160a060020a031916600160a060020a0392909216919091179055826003866040518082805190602001908083835b6020831062000d1e5780518252601f19909201916020918201910162000cfd565b6001836020036101000a0380198251168184511680821785525050505050509050019150509081526020016040519081900390208054600160a060020a031916600160a060020a03929092169190911790557fab22c91332b4c52d6c9d4ba30a3bf3ba91101713cdee43d19d247201bbdef9a583898989896040518086600160a060020a0316600160a060020a0316815260200180602001806020018060200180602001858103855289818151815260200191508051906020019060200280838360005b8381101562000dfc57808201518382015260200162000de2565b50505050905001858103845288818151815260200191508051906020019060200280838360005b8381101562000e3d57808201518382015260200162000e23565b50505050905001858103835287818151815260200191508051906020019080838360005b8381101562000e7b57808201518382015260200162000e61565b50505050905090810190601f16801562000ea95780820380516001836020036101000a031916815260200191505b50858103825286818151815260200191508051906020019080838360005b8381101562000ee157808201518382015260200162000ec7565b50505050905090810190601f16801562000f0f5780820380516001836020036101000a031916815260200191505b50995050505050505050505060405180910390a150909695505050505050565b62000f3962000fb7565b600180548060200260200160405190810160405280929190818152602001828054801562000f9157602002820191906000526020600020905b8154600160a060020a0316815260019091019060200180831162000f72575b505050505090505b90565b60026020526000908152604090205460ff1681565b60015490565b60206040519081016040526000815290565b60a0604051908101604052600081526020810162000fe662000fb7565b815260200162000ff562000fb7565b81526020016200100462000fb7565b81526020016200101362000fb7565b905290565b6040516110bb80620011c483390190565b8154818355818115116200105057600083815260209020620010509181019083016200117f565b505050565b828054600181600116156101000203166002900490600052602060002090601f016020900481019282601f106200109857805160ff1916838001178555620010c8565b82800160010185558215620010c8579182015b82811115620010c8578251825591602001919060010190620010ab565b50620010d69291506200117f565b5090565b82805482825590600052602060002090810192821562001134579160200282015b82811115620011345782518254600160a060020a031916600160a060020a039190911617825560209290920191600190910190620010fb565b50620010d69291506200119c565b828054828255906000526020600020908101928215620010c85791602002820182811115620010c8578251825591602001919060010190620010ab565b62000f9991905b80821115620010d6576000815560010162001186565b62000f9991905b80821115620010d6578054600160a060020a0319168155600101620011a35600606060405234156200001057600080fd5b604051620010bb380380620010bb83398101604052808051820191906020018051820191906020018051820191906020018051909101905060008451116200005757600080fd5b60008351116200006657600080fd5b82518451146200007557600080fd5b60058480516200008a929160200190620000d7565b506006838051620000a092916020019062000143565b506003828051620000b69291602001906200018f565b506004818051620000cc9291602001906200018f565b505050505062000248565b82805482825590600052602060002090810192821562000131579160200282015b82811115620001315782518254600160a060020a031916600160a060020a039190911617825560209290920191600190910190620000f8565b506200013f92915062000201565b5090565b82805482825590600052602060002090810192821562000181579160200282015b828111156200018157825182559160200191906001019062000164565b506200013f9291506200022b565b828054600181600116156101000203166002900490600052602060002090601f016020900481019282601f10620001d257805160ff191683800117855562000181565b828001600101855582156200018157918201828111156200018157825182559160200191906001019062000164565b6200022891905b808211156200013f578054600160a060020a031916815560010162000208565b90565b6200022891905b808211156200013f576000815560010162000232565b610e6380620002586000396000f300606060405236156100e05763ffffffff60e060020a600035041663027aa9f581146100e557806306fdde031461014b578063095ea7b3146101d557806318160ddd1461020b57806323b872dd14610230578063313ce567146102585780634f64b2be1461028157806366188463146102b357806370a08231146102d557806395d89b41146102f45780639f181b5e14610307578063a9059cbb1461031a578063aa6ca8081461033c578063cc872b661461034f578063d73dd62314610365578063db006a7514610387578063dd62ed3e1461039d578063e5fba6cc146103c2575b600080fd5b34156100f057600080fd5b6100f86103d8565b60405160208082528190810183818151815260200191508051906020019060200280838360005b8381101561013757808201518382015260200161011f565b505050509050019250505060405180910390f35b341561015657600080fd5b61015e610436565b60405160208082528190810183818151815260200191508051906020019080838360005b8381101561019a578082015183820152602001610182565b50505050905090810190601f1680156101c75780820380516001836020036101000a031916815260200191505b509250505060405180910390f35b34156101e057600080fd5b6101f7600160a060020a03600435166024356104d4565b604051901515815260200160405180910390f35b341561021657600080fd5b61021e610540565b60405190815260200160405180910390f35b341561023b57600080fd5b6101f7600160a060020a0360043581169060243516604435610546565b341561026357600080fd5b61026b6106c8565b60405160ff909116815260200160405180910390f35b341561028c57600080fd5b6102976004356106cd565b604051600160a060020a03909116815260200160405180910390f35b34156102be57600080fd5b6101f7600160a060020a03600435166024356106f5565b34156102e057600080fd5b61021e600160a060020a03600435166107ef565b34156102ff57600080fd5b61015e61080a565b341561031257600080fd5b61021e610875565b341561032557600080fd5b6101f7600160a060020a036004351660243561087b565b341561034757600080fd5b6100f8610976565b341561035a57600080fd5b6101f76004356109dd565b341561037057600080fd5b6101f7600160a060020a0360043516602435610b67565b341561039257600080fd5b6101f7600435610c0b565b34156103a857600080fd5b61021e600160a060020a0360043581169060243516610db3565b34156103cd57600080fd5b61021e600435610dde565b6103e0610e25565b600680548060200260200160405190810160405280929190818152602001828054801561042c57602002820191906000526020600020905b815481526020019060010190808311610418575b5050505050905090565b60038054600181600116156101000203166002900480601f0160208091040260200160405190810160405280929190818152602001828054600181600116156101000203166002900480156104cc5780601f106104a1576101008083540402835291602001916104cc565b820191906000526020600020905b8154815290600101906020018083116104af57829003601f168201915b505050505081565b600160a060020a03338116600081815260026020908152604080832094871680845294909152808220859055909291907f8c5be1e5ebec7d5bd14f71427d1e84f3dd0314c0f7b2291e5b200ac8c7c3b9259085905190815260200160405180910390a350600192915050565b60005481565b6000600160a060020a038316151561055d57600080fd5b600160a060020a03841660009081526001602052604090205482111561058257600080fd5b600160a060020a03808516600090815260026020908152604080832033909416835292905220548211156105b557600080fd5b600160a060020a0384166000908152600160205260409020546105de908363ffffffff610dfd16565b600160a060020a038086166000908152600160205260408082209390935590851681522054610613908363ffffffff610e0f16565b600160a060020a0380851660009081526001602090815260408083209490945587831682526002815283822033909316825291909152205461065b908363ffffffff610dfd16565b600160a060020a03808616600081815260026020908152604080832033861684529091529081902093909355908516917fddf252ad1be2c89b69c2b068fc378daa952ba7f163c4a11628f55a4df523b3ef9085905190815260200160405180910390a35060019392505050565b601281565b60058054829081106106db57fe5b600091825260209091200154600160a060020a0316905081565b600160a060020a0333811660009081526002602090815260408083209386168352929052908120548083111561075257600160a060020a033381166000908152600260209081526040808320938816835292905290812055610789565b610762818463ffffffff610dfd16565b600160a060020a033381166000908152600260209081526040808320938916835292905220555b600160a060020a0333811660008181526002602090815260408083209489168084529490915290819020547f8c5be1e5ebec7d5bd14f71427d1e84f3dd0314c0f7b2291e5b200ac8c7c3b925915190815260200160405180910390a35060019392505050565b600160a060020a031660009081526001602052604090205490565b60048054600181600116156101000203166002900480601f0160208091040260200160405190810160405280929190818152602001828054600181600116156101000203166002900480156104cc5780601f106104a1576101008083540402835291602001916104cc565b60055490565b6000600160a060020a038316151561089257600080fd5b600160a060020a0333166000908152600160205260409020548211156108b757600080fd5b600160a060020a0333166000908152600160205260409020546108e0908363ffffffff610dfd16565b600160a060020a033381166000908152600160205260408082209390935590851681522054610915908363ffffffff610e0f16565b600160a060020a0380851660008181526001602052604090819020939093559133909116907fddf252ad1be2c89b69c2b068fc378daa952ba7f163c4a11628f55a4df523b3ef9085905190815260200160405180910390a350600192915050565b61097e610e25565b600580548060200260200160405190810160405280929190818152602001828054801561042c57602002820191906000526020600020905b8154600160a060020a031681526001909101906020018083116109b6575050505050905090565b60008080805b600554831015610acb5760058054849081106109fb57fe5b60009182526020909120015460068054600160a060020a0390921693509084908110610a2357fe5b906000526020600020900154905081600160a060020a03166323b872dd333088850260006040516020015260405160e060020a63ffffffff8616028152600160a060020a0393841660048201529190921660248201526044810191909152606401602060405180830381600087803b1515610a9d57600080fd5b6102c65a03f11515610aae57600080fd5b505050604051805190501515610ac057fe5b6001909201916109e3565b600160a060020a033316600090815260016020526040902054610aee9086610e0f565b600160a060020a03331660009081526001602052604081209190915554610b159086610e0f565b6000557ffbd21f8762dc0c4fc0dbc03a2f816a0a617102a0f9d1908bbc09d377a0b9c6ab3386604051600160a060020a03909216825260208201526040908101905180910390a1506001949350505050565b600160a060020a033381166000908152600260209081526040808320938616835292905290812054610b9f908363ffffffff610e0f16565b600160a060020a0333811660008181526002602090815260408083209489168084529490915290819020849055919290917f8c5be1e5ebec7d5bd14f71427d1e84f3dd0314c0f7b2291e5b200ac8c7c3b92591905190815260200160405180910390a350600192915050565b600160a060020a03331660009081526001602052604081205481908190819085901015610c3757600080fd5b600092505b600554831015610d17576005805484908110610c5457fe5b60009182526020909120015460068054600160a060020a0390921693509084908110610c7c57fe5b906000526020600020900154905081600160a060020a031663a9059cbb3387840260006040516020015260405160e060020a63ffffffff8516028152600160a060020a0390921660048301526024820152604401602060405180830381600087803b1515610ce957600080fd5b6102c65a03f11515610cfa57600080fd5b505050604051805190501515610d0c57fe5b600190920191610c3c565b600160a060020a033316600090815260016020526040902054610d3a9086610dfd565b600160a060020a03331660009081526001602052604081209190915554610d619086610dfd565b6000557f2de3ebe1bb56079998f2617612ba527a2690a100757600dfc0d7253c808b74293386604051600160a060020a03909216825260208201526040908101905180910390a1506001949350505050565b600160a060020a03918216600090815260026020908152604080832093909416825291909152205490565b6006805482908110610dec57fe5b600091825260209091200154905081565b600082821115610e0957fe5b50900390565b600082820183811015610e1e57fe5b9392505050565b602060405190810160405260008152905600a165627a7a72305820f7435b3bba78b0ed19ed3849b36303b33ceb07efd497b517b038453d17d372910029a165627a7a72305820749beae8c0075942197f64303a4e8c9d38156118d85cb2eedcff01782ddec9160029",
  "source": "pragma solidity ^0.4.11;\n\nimport './SetToken.sol';\n\ncontract SetRegistry {\n\tstruct SetMetadata {\n\t  address set;\n\t  string name;\n\t  string symbol;\n\t  address[] tokens;\n\t  uint[] units;\n  }\n\n\tmapping (address => SetMetadata) public sets;\n\n\taddress[] public setAddresses;\n\tfunction setCount() public constant returns(uint length) { return setAddresses.length; }\n\n\tmapping (address => bool) public setExists;\n\tmapping (string => address) setBySymbol;\n  mapping (string => address) setByName;\n\n\tevent SetTokenCreated(address newSetToken, address[] tokens, uint[] units, string name, string symbol);\n\n  modifier nameDoesNotExist(string _name) {\n    require(setByName[_name] == address(0));\n    _;\n  }\n\n  modifier symbolDoesNotExist(string _symbol) {\n    require(setBySymbol[_symbol] == address(0));\n    _;\n  }\n\n\tfunction SetRegistry() {}\n\n\t// Create function creates a new index fund\n\tfunction create(address[] _tokens, uint[] _units, string _name, string _symbol)\n\t  public\n\t  nameDoesNotExist(_name)\n\t  symbolDoesNotExist(_symbol)\n\t  returns(address newSetTokenAddress) \n  {\n\t  // Instantiate that contract with correct input parameters\n\t  SetToken newSetToken = new SetToken(_tokens, _units, _name, _symbol);\n\t  \n\t  // Add to the list of set addresses\n\t \tsetAddresses.push(address(newSetToken));\n\n\t \t// Add to the mapping of set metadata\n\t \tsets[address(newSetToken)] = SetMetadata({\n\t \t\tset: address(newSetToken),\n\t \t\ttokens: _tokens,\n\t \t\tunits: _units,\n\t \t\tname: _name,\n\t \t\tsymbol: _symbol\n \t\t});\n\n\t  // Mark index fund as created\n\t  setExists[address(newSetToken)] = true;\n\n\t  // Mark name as used by set\n\t  setByName[_name] = address(newSetToken);\n\n\t  // Mark symbol as used by set\n\t  setBySymbol[_symbol] = address(newSetToken);\n\n\t  // Log contract creation\n\t  SetTokenCreated(newSetToken, _tokens, _units, _name, _symbol);\n\n\t  return newSetToken;\n\t}\n\n\t// Gets a list of addresses of the current {set}s\n\tfunction getSetAddresses() public constant returns(address[]) { return setAddresses; }\n\n\t// Gets a list of set metadata using a set address\n\tfunction getSetMetadata(address _set) \n\t\tpublic\n\t\tconstant\n\t\treturns(\n\t\t  address, // set address\n\t\t  string, // name;\n\t\t  string, // symbol;\n\t\t  address[], // component tokens;\n\t\t  uint[] // component units;\t\t\t\n\t\t) \n\t{\n\t\tSetMetadata memory set = sets[_set];\n\t\treturn (\n\t\t\tset.set,\n\t\t\tset.name,\n\t\t\tset.symbol,\n\t\t\tset.tokens,\n\t\t\tset.units\n\t\t);\n\t}\n}\n",
  "sourcePath": "/Users/felixfeng/Dapps/set-ui/contracts/SetRegistry.sol",
  "schemaVersion": "1.0.0",
  "updatedAt": "2017-11-20T19:36:20.002Z"
}