{
  "contractName": "SetRegistry",
  "abi": [
    {
      "constant": true,
      "inputs": [
        {
          "name": "_set",
          "type": "address"
        }
      ],
      "name": "getSetMetadata",
      "outputs": [
        {
          "name": "",
          "type": "address"
        },
        {
          "name": "",
          "type": "string"
        },
        {
          "name": "",
          "type": "string"
        }
      ],
      "payable": false,
      "stateMutability": "view",
      "type": "function"
    },
    {
      "constant": false,
      "inputs": [
        {
          "name": "newOwner",
          "type": "address"
        }
      ],
      "name": "setOwner",
      "outputs": [
        {
          "name": "success",
          "type": "bool"
        }
      ],
      "payable": false,
      "stateMutability": "nonpayable",
      "type": "function"
    },
    {
      "constant": true,
      "inputs": [
        {
          "name": "",
          "type": "uint256"
        }
      ],
      "name": "setAddresses",
      "outputs": [
        {
          "name": "",
          "type": "address"
        }
      ],
      "payable": false,
      "stateMutability": "view",
      "type": "function"
    },
    {
      "constant": true,
      "inputs": [
        {
          "name": "",
          "type": "address"
        }
      ],
      "name": "sets",
      "outputs": [
        {
          "name": "set",
          "type": "address"
        },
        {
          "name": "name",
          "type": "string"
        },
        {
          "name": "symbol",
          "type": "string"
        }
      ],
      "payable": false,
      "stateMutability": "view",
      "type": "function"
    },
    {
      "constant": true,
      "inputs": [
        {
          "name": "symbol",
          "type": "string"
        }
      ],
      "name": "getSetAddressBySymbol",
      "outputs": [
        {
          "name": "setAddress",
          "type": "address"
        }
      ],
      "payable": false,
      "stateMutability": "view",
      "type": "function"
    },
    {
      "constant": true,
      "inputs": [],
      "name": "owner",
      "outputs": [
        {
          "name": "",
          "type": "address"
        }
      ],
      "payable": false,
      "stateMutability": "view",
      "type": "function"
    },
    {
      "constant": false,
      "inputs": [
        {
          "name": "_tokens",
          "type": "address[]"
        },
        {
          "name": "_units",
          "type": "uint256[]"
        },
        {
          "name": "_name",
          "type": "string"
        },
        {
          "name": "_symbol",
          "type": "string"
        }
      ],
      "name": "create",
      "outputs": [
        {
          "name": "newSetTokenAddress",
          "type": "address"
        }
      ],
      "payable": false,
      "stateMutability": "nonpayable",
      "type": "function"
    },
    {
      "constant": true,
      "inputs": [],
      "name": "getSetAddresses",
      "outputs": [
        {
          "name": "",
          "type": "address[]"
        }
      ],
      "payable": false,
      "stateMutability": "view",
      "type": "function"
    },
    {
      "constant": false,
      "inputs": [
        {
          "name": "_set",
          "type": "address"
        },
        {
          "name": "_setAddressIndex",
          "type": "uint256"
        }
      ],
      "name": "remove",
      "outputs": [
        {
          "name": "success",
          "type": "bool"
        }
      ],
      "payable": false,
      "stateMutability": "nonpayable",
      "type": "function"
    },
    {
      "constant": true,
      "inputs": [
        {
          "name": "name",
          "type": "string"
        }
      ],
      "name": "getSetAddressByName",
      "outputs": [
        {
          "name": "setAddress",
          "type": "address"
        }
      ],
      "payable": false,
      "stateMutability": "view",
      "type": "function"
    },
    {
      "constant": true,
      "inputs": [],
      "name": "setCount",
      "outputs": [
        {
          "name": "length",
          "type": "uint256"
        }
      ],
      "payable": false,
      "stateMutability": "view",
      "type": "function"
    },
    {
      "inputs": [],
      "payable": false,
      "stateMutability": "nonpayable",
      "type": "constructor"
    },
    {
      "anonymous": false,
      "inputs": [
        {
          "indexed": true,
          "name": "sender",
          "type": "address"
        },
        {
          "indexed": true,
          "name": "setAddress",
          "type": "address"
        },
        {
          "indexed": false,
          "name": "name",
          "type": "string"
        },
        {
          "indexed": false,
          "name": "symbol",
          "type": "string"
        }
      ],
      "name": "SetTokenCreated",
      "type": "event"
    },
    {
      "anonymous": false,
      "inputs": [
        {
          "indexed": true,
          "name": "sender",
          "type": "address"
        },
        {
          "indexed": true,
          "name": "setAddress",
          "type": "address"
        },
        {
          "indexed": false,
          "name": "name",
          "type": "string"
        },
        {
          "indexed": false,
          "name": "symbol",
          "type": "string"
        }
      ],
      "name": "SetTokenRemoved",
      "type": "event"
    },
    {
      "anonymous": false,
      "inputs": [
        {
          "indexed": true,
          "name": "previousOwner",
          "type": "address"
        },
        {
          "indexed": true,
          "name": "newOwner",
          "type": "address"
        }
      ],
      "name": "LogOwnerSet",
      "type": "event"
    }
  ],
  "bytecode": "0x6060604052341561000f57600080fd5b336000806101000a81548173ffffffffffffffffffffffffffffffffffffffff021916908373ffffffffffffffffffffffffffffffffffffffff160217905550613e2f8061005e6000396000f300606060405260043610620000bb576000357c0100000000000000000000000000000000000000000000000000000000900463ffffffff16806301304a4f14620000c057806313af4035146200021a5780636e7f096e146200026e5780636ef49f6414620002d457806377b96551146200046a5780638da5cb5b146200050a578063920d008614620005625780639eff34b414620006c5578063abe7f1ab1462000734578063d9cbfd591462000791578063f3922ca21462000831575b600080fd5b3415620000cc57600080fd5b620000fa600480803573ffffffffffffffffffffffffffffffffffffffff169060200190919050506200085d565b604051808473ffffffffffffffffffffffffffffffffffffffff1673ffffffffffffffffffffffffffffffffffffffff1681526020018060200180602001838103835285818151815260200191508051906020019080838360005b838110156200017257808201518184015260208101905062000155565b50505050905090810190601f168015620001a05780820380516001836020036101000a031916815260200191505b50838103825284818151815260200191508051906020019080838360005b83811015620001db578082015181840152602081019050620001be565b50505050905090810190601f168015620002095780820380516001836020036101000a031916815260200191505b509550505050505060405180910390f35b34156200022657600080fd5b62000254600480803573ffffffffffffffffffffffffffffffffffffffff1690602001909190505062000a8f565b604051808215151515815260200191505060405180910390f35b34156200027a57600080fd5b62000292600480803590602001909190505062000c4b565b604051808273ffffffffffffffffffffffffffffffffffffffff1673ffffffffffffffffffffffffffffffffffffffff16815260200191505060405180910390f35b3415620002e057600080fd5b6200030e600480803573ffffffffffffffffffffffffffffffffffffffff1690602001909190505062000c8b565b604051808473ffffffffffffffffffffffffffffffffffffffff1673ffffffffffffffffffffffffffffffffffffffff1681526020018060200180602001838103835285818154600181600116156101000203166002900481526020019150805460018160011615610100020316600290048015620003d15780601f10620003a557610100808354040283529160200191620003d1565b820191906000526020600020905b815481529060010190602001808311620003b357829003601f168201915b5050838103825284818154600181600116156101000203166002900481526020019150805460018160011615610100020316600290048015620004585780601f106200042c5761010080835404028352916020019162000458565b820191906000526020600020905b8154815290600101906020018083116200043a57829003601f168201915b50509550505050505060405180910390f35b34156200047657600080fd5b620004c8600480803590602001908201803590602001908080601f0160208091040260200160405190810160405280939291908181526020018383808284378201915050505050509190505062000cd3565b604051808273ffffffffffffffffffffffffffffffffffffffff1673ffffffffffffffffffffffffffffffffffffffff16815260200191505060405180910390f35b34156200051657600080fd5b6200052062000d6a565b604051808273ffffffffffffffffffffffffffffffffffffffff1673ffffffffffffffffffffffffffffffffffffffff16815260200191505060405180910390f35b34156200056e57600080fd5b620006836004808035906020019082018035906020019080806020026020016040519081016040528093929190818152602001838360200280828437820191505050505050919080359060200190820180359060200190808060200260200160405190810160405280939291908181526020018383602002808284378201915050505050509190803590602001908201803590602001908080601f0160208091040260200160405190810160405280939291908181526020018383808284378201915050505050509190803590602001908201803590602001908080601f0160208091040260200160405190810160405280939291908181526020018383808284378201915050505050509190505062000d8f565b604051808273ffffffffffffffffffffffffffffffffffffffff1673ffffffffffffffffffffffffffffffffffffffff16815260200191505060405180910390f35b3415620006d157600080fd5b620006db620014c3565b6040518080602001828103825283818151815260200191508051906020019060200280838360005b838110156200072057808201518184015260208101905062000703565b505050509050019250505060405180910390f35b34156200074057600080fd5b62000777600480803573ffffffffffffffffffffffffffffffffffffffff169060200190919080359060200190919050506200155b565b604051808215151515815260200191505060405180910390f35b34156200079d57600080fd5b620007ef600480803590602001908201803590602001908080601f0160208091040260200160405190810160405280939291908181526020018383808284378201915050505050509190505062001be2565b604051808273ffffffffffffffffffffffffffffffffffffffff1673ffffffffffffffffffffffffffffffffffffffff16815260200191505060405180910390f35b34156200083d57600080fd5b6200084762001c79565b6040518082815260200191505060405180910390f35b60006200086962001c86565b6200087362001c86565b6200087d62001c9a565b600260008673ffffffffffffffffffffffffffffffffffffffff1673ffffffffffffffffffffffffffffffffffffffff168152602001908152602001600020606060405190810160405290816000820160009054906101000a900473ffffffffffffffffffffffffffffffffffffffff1673ffffffffffffffffffffffffffffffffffffffff1673ffffffffffffffffffffffffffffffffffffffff168152602001600182018054600181600116156101000203166002900480601f016020809104026020016040519081016040528092919081815260200182805460018160011615610100020316600290048015620009bb5780601f106200098f57610100808354040283529160200191620009bb565b820191906000526020600020905b8154815290600101906020018083116200099d57829003601f168201915b50505050508152602001600282018054600181600116156101000203166002900480601f01602080910402602001604051908101604052809291908181526020018280546001816001161561010002031660029004801562000a615780601f1062000a355761010080835404028352916020019162000a61565b820191906000526020600020905b81548152906001019060200180831162000a4357829003601f168201915b5050505050815250509050806000015181602001518260400151819150809050935093509350509193909250565b60008060009054906101000a900473ffffffffffffffffffffffffffffffffffffffff1673ffffffffffffffffffffffffffffffffffffffff163373ffffffffffffffffffffffffffffffffffffffff1614151562000aed57600080fd5b600073ffffffffffffffffffffffffffffffffffffffff168273ffffffffffffffffffffffffffffffffffffffff161415151562000b2a57600080fd5b8173ffffffffffffffffffffffffffffffffffffffff166000809054906101000a900473ffffffffffffffffffffffffffffffffffffffff1673ffffffffffffffffffffffffffffffffffffffff161415151562000b8757600080fd5b8173ffffffffffffffffffffffffffffffffffffffff166000809054906101000a900473ffffffffffffffffffffffffffffffffffffffff1673ffffffffffffffffffffffffffffffffffffffff167fa1d2149652d81eb35c360c115fc7ac594124cb1ea8a5a33e9a7f5768c62869fb60405160405180910390a3816000806101000a81548173ffffffffffffffffffffffffffffffffffffffff021916908373ffffffffffffffffffffffffffffffffffffffff16021790555060019050919050565b60018181548110151562000c5b57fe5b90600052602060002090016000915054906101000a900473ffffffffffffffffffffffffffffffffffffffff1681565b60026020528060005260406000206000915090508060000160009054906101000a900473ffffffffffffffffffffffffffffffffffffffff1690806001019080600201905083565b60006003826040518082805190602001908083835b60208310151562000d0f578051825260208201915060208101905060208303925062000ce8565b6001836020036101000a038019825116818451168082178552505050505050905001915050908152602001604051809103902060009054906101000a900473ffffffffffffffffffffffffffffffffffffffff169050919050565b6000809054906101000a900473ffffffffffffffffffffffffffffffffffffffff1681565b60008083600073ffffffffffffffffffffffffffffffffffffffff166004826040518082805190602001908083835b60208310151562000de5578051825260208201915060208101905060208303925062000dbe565b6001836020036101000a038019825116818451168082178552505050505050905001915050908152602001604051809103902060009054906101000a900473ffffffffffffffffffffffffffffffffffffffff1673ffffffffffffffffffffffffffffffffffffffff1614151562000e5c57600080fd5b83600073ffffffffffffffffffffffffffffffffffffffff166003826040518082805190602001908083835b60208310151562000eaf578051825260208201915060208101905060208303925062000e88565b6001836020036101000a038019825116818451168082178552505050505050905001915050908152602001604051809103902060009054906101000a900473ffffffffffffffffffffffffffffffffffffffff1673ffffffffffffffffffffffffffffffffffffffff1614151562000f2657600080fd5b8787878762000f3462001ce2565b8080602001806020018060200180602001858103855289818151815260200191508051906020019060200280838360005b8381101562000f8257808201518184015260208101905062000f65565b50505050905001858103845288818151815260200191508051906020019060200280838360005b8381101562000fc657808201518184015260208101905062000fa9565b50505050905001858103835287818151815260200191508051906020019080838360005b838110156200100757808201518184015260208101905062000fea565b50505050905090810190601f168015620010355780820380516001836020036101000a031916815260200191505b50858103825286818151815260200191508051906020019080838360005b838110156200107057808201518184015260208101905062001053565b50505050905090810190601f1680156200109e5780820380516001836020036101000a031916815260200191505b5098505050505050505050604051809103906000f0801515620010c057600080fd5b925060018054806001018281620010d8919062001cf3565b9160005260206000209001600085909190916101000a81548173ffffffffffffffffffffffffffffffffffffffff021916908373ffffffffffffffffffffffffffffffffffffffff160217905550506060604051908101604052808473ffffffffffffffffffffffffffffffffffffffff16815260200187815260200186815250600260008573ffffffffffffffffffffffffffffffffffffffff1673ffffffffffffffffffffffffffffffffffffffff16815260200190815260200160002060008201518160000160006101000a81548173ffffffffffffffffffffffffffffffffffffffff021916908373ffffffffffffffffffffffffffffffffffffffff1602179055506020820151816001019080519060200190620011fd92919062001d22565b5060408201518160020190805190602001906200121c92919062001d22565b50905050826004876040518082805190602001908083835b6020831015156200125b578051825260208201915060208101905060208303925062001234565b6001836020036101000a038019825116818451168082178552505050505050905001915050908152602001604051809103902060006101000a81548173ffffffffffffffffffffffffffffffffffffffff021916908373ffffffffffffffffffffffffffffffffffffffff160217905550826003866040518082805190602001908083835b602083101515620013075780518252602082019150602081019050602083039250620012e0565b6001836020036101000a038019825116818451168082178552505050505050905001915050908152602001604051809103902060006101000a81548173ffffffffffffffffffffffffffffffffffffffff021916908373ffffffffffffffffffffffffffffffffffffffff1602179055508273ffffffffffffffffffffffffffffffffffffffff163373ffffffffffffffffffffffffffffffffffffffff167fb7b1e89d4bb640b93b0cb96b27077ceb558d073e00531c0a712a4afc9ccf06fe8888604051808060200180602001838103835285818151815260200191508051906020019080838360005b838110156200140f578082015181840152602081019050620013f2565b50505050905090810190601f1680156200143d5780820380516001836020036101000a031916815260200191505b50838103825284818151815260200191508051906020019080838360005b83811015620014785780820151818401526020810190506200145b565b50505050905090810190601f168015620014a65780820380516001836020036101000a031916815260200191505b5094505050505060405180910390a3829350505050949350505050565b620014cd62001da9565b60018054806020026020016040519081016040528092919081815260200182805480156200155157602002820191906000526020600020905b8160009054906101000a900473ffffffffffffffffffffffffffffffffffffffff1673ffffffffffffffffffffffffffffffffffffffff168152602001906001019080831162001506575b5050505050905090565b60006200156762001c9a565b6000809054906101000a900473ffffffffffffffffffffffffffffffffffffffff1673ffffffffffffffffffffffffffffffffffffffff163373ffffffffffffffffffffffffffffffffffffffff16141515620015c357600080fd5b600183815481101515620015d357fe5b906000526020600020900160009054906101000a900473ffffffffffffffffffffffffffffffffffffffff1673ffffffffffffffffffffffffffffffffffffffff168473ffffffffffffffffffffffffffffffffffffffff161415156200163957600080fd5b600260008573ffffffffffffffffffffffffffffffffffffffff1673ffffffffffffffffffffffffffffffffffffffff168152602001908152602001600020606060405190810160405290816000820160009054906101000a900473ffffffffffffffffffffffffffffffffffffffff1673ffffffffffffffffffffffffffffffffffffffff1673ffffffffffffffffffffffffffffffffffffffff168152602001600182018054600181600116156101000203166002900480601f016020809104026020016040519081016040528092919081815260200182805460018160011615610100020316600290048015620017775780601f106200174b5761010080835404028352916020019162001777565b820191906000526020600020905b8154815290600101906020018083116200175957829003601f168201915b50505050508152602001600282018054600181600116156101000203166002900480601f0160208091040260200160405190810160405280929190818152602001828054600181600116156101000203166002900480156200181d5780601f10620017f1576101008083540402835291602001916200181d565b820191906000526020600020905b815481529060010190602001808311620017ff57829003601f168201915b50505050508152505090508373ffffffffffffffffffffffffffffffffffffffff163373ffffffffffffffffffffffffffffffffffffffff167f8c0549cd7c150e0ebb3086c88a820e1b42db9c827e3d24883f6a945b647b4ada83602001518460400151604051808060200180602001838103835285818151815260200191508051906020019080838360005b83811015620018c7578082015181840152602081019050620018aa565b50505050905090810190601f168015620018f55780820380516001836020036101000a031916815260200191505b50838103825284818151815260200191508051906020019080838360005b838110156200193057808201518184015260208101905062001913565b50505050905090810190601f1680156200195e5780820380516001836020036101000a031916815260200191505b5094505050505060405180910390a3600481602001516040518082805190602001908083835b602083101515620019ab578051825260208201915060208101905060208303925062001984565b6001836020036101000a038019825116818451168082178552505050505050905001915050908152602001604051809103902060006101000a81549073ffffffffffffffffffffffffffffffffffffffff0219169055600381604001516040518082805190602001908083835b60208310151562001a3f578051825260208201915060208101905060208303925062001a18565b6001836020036101000a038019825116818451168082178552505050505050905001915050908152602001604051809103902060006101000a81549073ffffffffffffffffffffffffffffffffffffffff0219169055600260008573ffffffffffffffffffffffffffffffffffffffff1673ffffffffffffffffffffffffffffffffffffffff168152602001908152602001600020600080820160006101000a81549073ffffffffffffffffffffffffffffffffffffffff021916905560018201600062001b0e919062001dbd565b60028201600062001b20919062001dbd565b505060018080805490500381548110151562001b3857fe5b906000526020600020900160009054906101000a900473ffffffffffffffffffffffffffffffffffffffff1660018481548110151562001b7457fe5b906000526020600020900160006101000a81548173ffffffffffffffffffffffffffffffffffffffff021916908373ffffffffffffffffffffffffffffffffffffffff1602179055506001808181805490500391508162001bd6919062001e09565b50600191505092915050565b60006004826040518082805190602001908083835b60208310151562001c1e578051825260208201915060208101905060208303925062001bf7565b6001836020036101000a038019825116818451168082178552505050505050905001915050908152602001604051809103902060009054906101000a900473ffffffffffffffffffffffffffffffffffffffff169050919050565b6000600180549050905090565b602060405190810160405280600081525090565b606060405190810160405280600073ffffffffffffffffffffffffffffffffffffffff16815260200162001ccd62001e38565b815260200162001cdc62001e38565b81525090565b604051611f8f8062001e7583390190565b81548183558181151162001d1d5781836000526020600020918201910162001d1c919062001e4c565b5b505050565b828054600181600116156101000203166002900490600052602060002090601f016020900481019282601f1062001d6557805160ff191683800117855562001d96565b8280016001018555821562001d96579182015b8281111562001d9557825182559160200191906001019062001d78565b5b50905062001da5919062001e4c565b5090565b602060405190810160405280600081525090565b50805460018160011615610100020316600290046000825580601f1062001de5575062001e06565b601f01602090049060005260206000209081019062001e05919062001e4c565b5b50565b81548183558181151162001e335781836000526020600020918201910162001e32919062001e4c565b5b505050565b602060405190810160405280600081525090565b62001e7191905b8082111562001e6d57600081600090555060010162001e53565b5090565b90560060606040526012600360006101000a81548160ff021916908360ff16021790555034156200002c57600080fd5b60405162001f8f38038062001f8f8339810160405280805182019190602001805182019190602001805182019190602001805182019190505060008060008087511115156200007a57600080fd5b600086511115156200008b57600080fd5b855187511415156200009c57600080fd5b600092505b85518310156200013c578583815181101515620000ba57fe5b906020019060200201519150600082111515620000d657600080fd5b8683815181101515620000e557fe5b906020019060200201519050600073ffffffffffffffffffffffffffffffffffffffff168173ffffffffffffffffffffffffffffffffffffffff16141515156200012e57600080fd5b8280600101935050620000a1565b866006908051906020019062000154929190620001ad565b5085600790805190602001906200016d9291906200023c565b508460049080519060200190620001869291906200028e565b5083600590805190602001906200019f9291906200028e565b505050505050505062000383565b82805482825590600052602060002090810192821562000229579160200282015b82811115620002285782518260006101000a81548173ffffffffffffffffffffffffffffffffffffffff021916908373ffffffffffffffffffffffffffffffffffffffff16021790555091602001919060010190620001ce565b5b50905062000238919062000315565b5090565b8280548282559060005260206000209081019282156200027b579160200282015b828111156200027a5782518255916020019190600101906200025d565b5b5090506200028a91906200035b565b5090565b828054600181600116156101000203166002900490600052602060002090601f016020900481019282601f10620002d157805160ff191683800117855562000302565b8280016001018555821562000302579182015b8281111562000301578251825591602001919060010190620002e4565b5b5090506200031191906200035b565b5090565b6200035891905b808211156200035457600081816101000a81549073ffffffffffffffffffffffffffffffffffffffff0219169055506001016200031c565b5090565b90565b6200038091905b808211156200037c57600081600090555060010162000362565b5090565b90565b611bfc80620003936000396000f300606060405260043610610107576000357c0100000000000000000000000000000000000000000000000000000000900463ffffffff168063027aa9f51461010c57806306fdde0314610176578063095ea7b31461020457806318160ddd1461025e57806323b872dd1461028757806327e235e314610300578063313ce5671461034d5780634f64b2be1461037c57806366188463146103df57806370a082311461043957806395d89b41146104865780639f181b5e14610514578063a9059cbb1461053d578063aa6ca80814610597578063cc872b6614610601578063d73dd6231461063c578063db006a7514610696578063dd62ed3e146106d1578063e5fba6cc1461073d575b600080fd5b341561011757600080fd5b61011f610774565b6040518080602001828103825283818151815260200191508051906020019060200280838360005b83811015610162578082015181840152602081019050610147565b505050509050019250505060405180910390f35b341561018157600080fd5b6101896107d2565b6040518080602001828103825283818151815260200191508051906020019080838360005b838110156101c95780820151818401526020810190506101ae565b50505050905090810190601f1680156101f65780820380516001836020036101000a031916815260200191505b509250505060405180910390f35b341561020f57600080fd5b610244600480803573ffffffffffffffffffffffffffffffffffffffff16906020019091908035906020019091905050610870565b604051808215151515815260200191505060405180910390f35b341561026957600080fd5b610271610962565b6040518082815260200191505060405180910390f35b341561029257600080fd5b6102e6600480803573ffffffffffffffffffffffffffffffffffffffff1690602001909190803573ffffffffffffffffffffffffffffffffffffffff16906020019091908035906020019091905050610968565b604051808215151515815260200191505060405180910390f35b341561030b57600080fd5b610337600480803573ffffffffffffffffffffffffffffffffffffffff16906020019091905050610d27565b6040518082815260200191505060405180910390f35b341561035857600080fd5b610360610d3f565b604051808260ff1660ff16815260200191505060405180910390f35b341561038757600080fd5b61039d6004808035906020019091905050610d52565b604051808273ffffffffffffffffffffffffffffffffffffffff1673ffffffffffffffffffffffffffffffffffffffff16815260200191505060405180910390f35b34156103ea57600080fd5b61041f600480803573ffffffffffffffffffffffffffffffffffffffff16906020019091908035906020019091905050610d91565b604051808215151515815260200191505060405180910390f35b341561044457600080fd5b610470600480803573ffffffffffffffffffffffffffffffffffffffff16906020019091905050611022565b6040518082815260200191505060405180910390f35b341561049157600080fd5b61049961106b565b6040518080602001828103825283818151815260200191508051906020019080838360005b838110156104d95780820151818401526020810190506104be565b50505050905090810190601f1680156105065780820380516001836020036101000a031916815260200191505b509250505060405180910390f35b341561051f57600080fd5b610527611109565b6040518082815260200191505060405180910390f35b341561054857600080fd5b61057d600480803573ffffffffffffffffffffffffffffffffffffffff16906020019091908035906020019091905050611116565b604051808215151515815260200191505060405180910390f35b34156105a257600080fd5b6105aa61133a565b6040518080602001828103825283818151815260200191508051906020019060200280838360005b838110156105ed5780820151818401526020810190506105d2565b505050509050019250505060405180910390f35b341561060c57600080fd5b61062260048080359060200190919050506113ce565b604051808215151515815260200191505060405180910390f35b341561064757600080fd5b61067c600480803573ffffffffffffffffffffffffffffffffffffffff1690602001909190803590602001909190505061163f565b604051808215151515815260200191505060405180910390f35b34156106a157600080fd5b6106b7600480803590602001909190505061183b565b604051808215151515815260200191505060405180910390f35b34156106dc57600080fd5b610727600480803573ffffffffffffffffffffffffffffffffffffffff1690602001909190803573ffffffffffffffffffffffffffffffffffffffff16906020019091905050611ac6565b6040518082815260200191505060405180910390f35b341561074857600080fd5b61075e6004808035906020019091905050611b4d565b6040518082815260200191505060405180910390f35b61077c611ba8565b60078054806020026020016040519081016040528092919081815260200182805480156107c857602002820191906000526020600020905b8154815260200190600101908083116107b4575b5050505050905090565b60048054600181600116156101000203166002900480601f0160208091040260200160405190810160405280929190818152602001828054600181600116156101000203166002900480156108685780601f1061083d57610100808354040283529160200191610868565b820191906000526020600020905b81548152906001019060200180831161084b57829003601f168201915b505050505081565b600081600260003373ffffffffffffffffffffffffffffffffffffffff1673ffffffffffffffffffffffffffffffffffffffff16815260200190815260200160002060008573ffffffffffffffffffffffffffffffffffffffff1673ffffffffffffffffffffffffffffffffffffffff168152602001908152602001600020819055508273ffffffffffffffffffffffffffffffffffffffff163373ffffffffffffffffffffffffffffffffffffffff167f8c5be1e5ebec7d5bd14f71427d1e84f3dd0314c0f7b2291e5b200ac8c7c3b925846040518082815260200191505060405180910390a36001905092915050565b60005481565b60008073ffffffffffffffffffffffffffffffffffffffff168373ffffffffffffffffffffffffffffffffffffffff16141515156109a557600080fd5b600160008573ffffffffffffffffffffffffffffffffffffffff1673ffffffffffffffffffffffffffffffffffffffff1681526020019081526020016000205482111515156109f357600080fd5b600260008573ffffffffffffffffffffffffffffffffffffffff1673ffffffffffffffffffffffffffffffffffffffff16815260200190815260200160002060003373ffffffffffffffffffffffffffffffffffffffff1673ffffffffffffffffffffffffffffffffffffffff168152602001908152602001600020548211151515610a7e57600080fd5b610ad082600160008773ffffffffffffffffffffffffffffffffffffffff1673ffffffffffffffffffffffffffffffffffffffff16815260200190815260200160002054611b7190919063ffffffff16565b600160008673ffffffffffffffffffffffffffffffffffffffff1673ffffffffffffffffffffffffffffffffffffffff16815260200190815260200160002081905550610b6582600160008673ffffffffffffffffffffffffffffffffffffffff1673ffffffffffffffffffffffffffffffffffffffff16815260200190815260200160002054611b8a90919063ffffffff16565b600160008573ffffffffffffffffffffffffffffffffffffffff1673ffffffffffffffffffffffffffffffffffffffff16815260200190815260200160002081905550610c3782600260008773ffffffffffffffffffffffffffffffffffffffff1673ffffffffffffffffffffffffffffffffffffffff16815260200190815260200160002060003373ffffffffffffffffffffffffffffffffffffffff1673ffffffffffffffffffffffffffffffffffffffff16815260200190815260200160002054611b7190919063ffffffff16565b600260008673ffffffffffffffffffffffffffffffffffffffff1673ffffffffffffffffffffffffffffffffffffffff16815260200190815260200160002060003373ffffffffffffffffffffffffffffffffffffffff1673ffffffffffffffffffffffffffffffffffffffff168152602001908152602001600020819055508273ffffffffffffffffffffffffffffffffffffffff168473ffffffffffffffffffffffffffffffffffffffff167fddf252ad1be2c89b69c2b068fc378daa952ba7f163c4a11628f55a4df523b3ef846040518082815260200191505060405180910390a3600190509392505050565b60016020528060005260406000206000915090505481565b600360009054906101000a900460ff1681565b600681815481101515610d6157fe5b90600052602060002090016000915054906101000a900473ffffffffffffffffffffffffffffffffffffffff1681565b600080600260003373ffffffffffffffffffffffffffffffffffffffff1673ffffffffffffffffffffffffffffffffffffffff16815260200190815260200160002060008573ffffffffffffffffffffffffffffffffffffffff1673ffffffffffffffffffffffffffffffffffffffff16815260200190815260200160002054905080831115610ea2576000600260003373ffffffffffffffffffffffffffffffffffffffff1673ffffffffffffffffffffffffffffffffffffffff16815260200190815260200160002060008673ffffffffffffffffffffffffffffffffffffffff1673ffffffffffffffffffffffffffffffffffffffff16815260200190815260200160002081905550610f36565b610eb58382611b7190919063ffffffff16565b600260003373ffffffffffffffffffffffffffffffffffffffff1673ffffffffffffffffffffffffffffffffffffffff16815260200190815260200160002060008673ffffffffffffffffffffffffffffffffffffffff1673ffffffffffffffffffffffffffffffffffffffff168152602001908152602001600020819055505b8373ffffffffffffffffffffffffffffffffffffffff163373ffffffffffffffffffffffffffffffffffffffff167f8c5be1e5ebec7d5bd14f71427d1e84f3dd0314c0f7b2291e5b200ac8c7c3b925600260003373ffffffffffffffffffffffffffffffffffffffff1673ffffffffffffffffffffffffffffffffffffffff16815260200190815260200160002060008873ffffffffffffffffffffffffffffffffffffffff1673ffffffffffffffffffffffffffffffffffffffff168152602001908152602001600020546040518082815260200191505060405180910390a3600191505092915050565b6000600160008373ffffffffffffffffffffffffffffffffffffffff1673ffffffffffffffffffffffffffffffffffffffff168152602001908152602001600020549050919050565b60058054600181600116156101000203166002900480601f0160208091040260200160405190810160405280929190818152602001828054600181600116156101000203166002900480156111015780601f106110d657610100808354040283529160200191611101565b820191906000526020600020905b8154815290600101906020018083116110e457829003601f168201915b505050505081565b6000600680549050905090565b60008073ffffffffffffffffffffffffffffffffffffffff168373ffffffffffffffffffffffffffffffffffffffff161415151561115357600080fd5b600160003373ffffffffffffffffffffffffffffffffffffffff1673ffffffffffffffffffffffffffffffffffffffff1681526020019081526020016000205482111515156111a157600080fd5b6111f382600160003373ffffffffffffffffffffffffffffffffffffffff1673ffffffffffffffffffffffffffffffffffffffff16815260200190815260200160002054611b7190919063ffffffff16565b600160003373ffffffffffffffffffffffffffffffffffffffff1673ffffffffffffffffffffffffffffffffffffffff1681526020019081526020016000208190555061128882600160008673ffffffffffffffffffffffffffffffffffffffff1673ffffffffffffffffffffffffffffffffffffffff16815260200190815260200160002054611b8a90919063ffffffff16565b600160008573ffffffffffffffffffffffffffffffffffffffff1673ffffffffffffffffffffffffffffffffffffffff168152602001908152602001600020819055508273ffffffffffffffffffffffffffffffffffffffff163373ffffffffffffffffffffffffffffffffffffffff167fddf252ad1be2c89b69c2b068fc378daa952ba7f163c4a11628f55a4df523b3ef846040518082815260200191505060405180910390a36001905092915050565b611342611bbc565b60068054806020026020016040519081016040528092919081815260200182805480156113c457602002820191906000526020600020905b8160009054906101000a900473ffffffffffffffffffffffffffffffffffffffff1673ffffffffffffffffffffffffffffffffffffffff168152602001906001019080831161137a575b5050505050905090565b600080600080600092505b600680549050831015611551576006838154811015156113f557fe5b906000526020600020900160009054906101000a900473ffffffffffffffffffffffffffffffffffffffff16915060078381548110151561143257fe5b90600052602060002090015490508173ffffffffffffffffffffffffffffffffffffffff166323b872dd33308885026000604051602001526040518463ffffffff167c0100000000000000000000000000000000000000000000000000000000028152600401808473ffffffffffffffffffffffffffffffffffffffff1673ffffffffffffffffffffffffffffffffffffffff1681526020018373ffffffffffffffffffffffffffffffffffffffff1673ffffffffffffffffffffffffffffffffffffffff1681526020018281526020019350505050602060405180830381600087803b151561152157600080fd5b6102c65a03f1151561153257600080fd5b50505060405180519050151561154457fe5b82806001019350506113d9565b61159a600160003373ffffffffffffffffffffffffffffffffffffffff1673ffffffffffffffffffffffffffffffffffffffff1681526020019081526020016000205486611b8a565b600160003373ffffffffffffffffffffffffffffffffffffffff1673ffffffffffffffffffffffffffffffffffffffff168152602001908152602001600020819055506115e960005486611b8a565b600081905550843373ffffffffffffffffffffffffffffffffffffffff167ffbd21f8762dc0c4fc0dbc03a2f816a0a617102a0f9d1908bbc09d377a0b9c6ab60405160405180910390a360019350505050919050565b60006116d082600260003373ffffffffffffffffffffffffffffffffffffffff1673ffffffffffffffffffffffffffffffffffffffff16815260200190815260200160002060008673ffffffffffffffffffffffffffffffffffffffff1673ffffffffffffffffffffffffffffffffffffffff16815260200190815260200160002054611b8a90919063ffffffff16565b600260003373ffffffffffffffffffffffffffffffffffffffff1673ffffffffffffffffffffffffffffffffffffffff16815260200190815260200160002060008573ffffffffffffffffffffffffffffffffffffffff1673ffffffffffffffffffffffffffffffffffffffff168152602001908152602001600020819055508273ffffffffffffffffffffffffffffffffffffffff163373ffffffffffffffffffffffffffffffffffffffff167f8c5be1e5ebec7d5bd14f71427d1e84f3dd0314c0f7b2291e5b200ac8c7c3b925600260003373ffffffffffffffffffffffffffffffffffffffff1673ffffffffffffffffffffffffffffffffffffffff16815260200190815260200160002060008773ffffffffffffffffffffffffffffffffffffffff1673ffffffffffffffffffffffffffffffffffffffff168152602001908152602001600020546040518082815260200191505060405180910390a36001905092915050565b60008060008084600160003373ffffffffffffffffffffffffffffffffffffffff1673ffffffffffffffffffffffffffffffffffffffff168152602001908152602001600020541015151561188f57600080fd5b600092505b6006805490508310156119d8576006838154811015156118b057fe5b906000526020600020900160009054906101000a900473ffffffffffffffffffffffffffffffffffffffff1691506007838154811015156118ed57fe5b90600052602060002090015490508173ffffffffffffffffffffffffffffffffffffffff1663a9059cbb338784026000604051602001526040518363ffffffff167c0100000000000000000000000000000000000000000000000000000000028152600401808373ffffffffffffffffffffffffffffffffffffffff1673ffffffffffffffffffffffffffffffffffffffff16815260200182815260200192505050602060405180830381600087803b15156119a857600080fd5b6102c65a03f115156119b957600080fd5b5050506040518051905015156119cb57fe5b8280600101935050611894565b611a21600160003373ffffffffffffffffffffffffffffffffffffffff1673ffffffffffffffffffffffffffffffffffffffff1681526020019081526020016000205486611b71565b600160003373ffffffffffffffffffffffffffffffffffffffff1673ffffffffffffffffffffffffffffffffffffffff16815260200190815260200160002081905550611a7060005486611b71565b600081905550843373ffffffffffffffffffffffffffffffffffffffff167f2de3ebe1bb56079998f2617612ba527a2690a100757600dfc0d7253c808b742960405160405180910390a360019350505050919050565b6000600260008473ffffffffffffffffffffffffffffffffffffffff1673ffffffffffffffffffffffffffffffffffffffff16815260200190815260200160002060008373ffffffffffffffffffffffffffffffffffffffff1673ffffffffffffffffffffffffffffffffffffffff16815260200190815260200160002054905092915050565b600781815481101515611b5c57fe5b90600052602060002090016000915090505481565b6000828211151515611b7f57fe5b818303905092915050565b6000808284019050838110151515611b9e57fe5b8091505092915050565b602060405190810160405280600081525090565b6020604051908101604052806000815250905600a165627a7a723058207a2a2c79d00b80e8c4e91b045e4803447d4c421995c805a4aff5d08c98d9d2820029a165627a7a7230582053ea627629926a874d7c554fa97bd2d4756f52e3271dcff06fde74174fd0553f0029",
  "source": "pragma solidity ^0.4.18;\n\n\nimport './external-lib/Owned.sol';\nimport './SetToken.sol';\n\n\n/**\n * @title {Set} Registry\n * @author Felix Feng\n * @dev Implementation of the {Set} registry.\n */\ncontract SetRegistry is Owned {\n  struct SetMetadata {\n    address set;\n    string name;\n    string symbol;\n  }\n\n  address[] public setAddresses;\n\n  mapping (address => SetMetadata) public sets;\n  mapping (string => address) setAddressBySymbol;\n  mapping (string => address) setAddressByName;\n\n  event SetTokenCreated(\n    address indexed sender,\n    address indexed setAddress,\n    string name,\n    string symbol\n  );\n\n  event SetTokenRemoved(\n    address indexed sender,\n    address indexed setAddress,\n    string name,\n    string symbol\n  );\n\n  modifier nameDoesNotExist(string _name) {\n    require(setAddressByName[_name] == address(0));\n    _;\n  }\n\n  modifier symbolDoesNotExist(string _symbol) {\n    require(setAddressBySymbol[_symbol] == address(0));\n    _;\n  }\n\n  /**\n   * @dev Constructor Function for the {Set} registry\n   */\n  function SetRegistry() public {}\n\n  /**\n   * @dev Function creates a new {Set} and add to registry\n   */\n  function create(address[] _tokens, uint[] _units, string _name, string _symbol)\n    public\n    nameDoesNotExist(_name)\n    symbolDoesNotExist(_symbol)\n    returns(address newSetTokenAddress)\n  {\n    // Instantiate that contract with correct input parameters\n    SetToken newSetToken = new SetToken(_tokens, _units, _name, _symbol);\n\n    // Add to the list of set addresses\n    setAddresses.push(address(newSetToken));\n\n    // Add to the mapping of set metadata\n    sets[address(newSetToken)] = SetMetadata({\n      set: address(newSetToken),\n      name: _name,\n      symbol: _symbol\n    });\n\n    // Mark name as used by set\n    setAddressByName[_name] = address(newSetToken);\n\n    // Mark symbol as used by set\n    setAddressBySymbol[_symbol] = address(newSetToken);\n\n    // Log contract creation\n    SetTokenCreated(msg.sender, newSetToken, _name, _symbol);\n\n    return newSetToken;\n  }\n\n  /**\n   * @dev Function remove a {Set} from the registry\n   */\n  function remove(address _set, uint _setAddressIndex)\n    public\n    fromOwner\n    returns(bool success)\n  {\n    require(_set == setAddresses[_setAddressIndex]);\n\n    SetMetadata memory set = sets[_set];\n\n    SetTokenRemoved(\n      msg.sender,\n      _set,\n      set.name,\n      set.symbol\n    );\n\n    // Unmark symbol as used\n    delete setAddressByName[set.name];\n\n    // Unmark name as used\n    delete setAddressBySymbol[set.symbol];\n\n    // Remove from metadata\n    delete sets[_set];\n\n    // Remove from array of set addresses\n    setAddresses[_setAddressIndex] = setAddresses[setAddresses.length - 1];\n    setAddresses.length -= 1;\n\n    return true;\n  }\n\n  function getSetAddresses() public view returns(address[]) {\n    return setAddresses;\n  }\n\n  function setCount() public view returns(uint length) {\n    return setAddresses.length;\n  }\n\n  function getSetAddressBySymbol(string symbol)\n    public\n    view\n    returns(address setAddress)\n  {\n    return setAddressBySymbol[symbol];\n  }\n\n  function getSetAddressByName(string name)\n    public\n    view\n    returns(address setAddress)\n  {\n    return setAddressByName[name];\n  }\n\n  /**\n   * @dev Gets a list of set metadata using a set address\n   */\n  function getSetMetadata(address _set)\n    public\n    view\n    returns(\n      address, // set address\n      string, // name;\n      string // symbol;\n    )\n  {\n    SetMetadata memory set = sets[_set];\n    return (\n      set.set,\n      set.name,\n      set.symbol\n    );\n  }\n}\n",
  "sourcePath": "/Users/justinkchen/workspace/set-internal-contracts/contracts/SetRegistry.sol",
  "compiler": {
    "name": "solc",
    "version": "0.4.18+commit.9cf6e910.Emscripten.clang"
  },
  "schemaVersion": "1.0.1",
  "updatedAt": "2018-01-22T01:51:59.956Z"
}