{
  "contractName": "SetRegistry",
  "abi": [
    {
      "constant": true,
      "inputs": [
        {
          "name": "_set",
          "type": "address"
        }
      ],
      "name": "getSetMetadata",
      "outputs": [
        {
          "name": "",
          "type": "address"
        },
        {
          "name": "",
          "type": "string"
        },
        {
          "name": "",
          "type": "string"
        }
      ],
      "payable": false,
      "stateMutability": "view",
      "type": "function"
    },
    {
      "constant": false,
      "inputs": [
        {
          "name": "_set",
          "type": "address"
        },
        {
          "name": "name",
          "type": "string"
        },
        {
          "name": "symbol",
          "type": "string"
        }
      ],
      "name": "add",
      "outputs": [
        {
          "name": "success",
          "type": "bool"
        }
      ],
      "payable": false,
      "stateMutability": "nonpayable",
      "type": "function"
    },
    {
      "constant": true,
      "inputs": [
        {
          "name": "",
          "type": "uint256"
        }
      ],
      "name": "setAddresses",
      "outputs": [
        {
          "name": "",
          "type": "address"
        }
      ],
      "payable": false,
      "stateMutability": "view",
      "type": "function"
    },
    {
      "constant": true,
      "inputs": [
        {
          "name": "",
          "type": "address"
        }
      ],
      "name": "sets",
      "outputs": [
        {
          "name": "set",
          "type": "address"
        },
        {
          "name": "name",
          "type": "string"
        },
        {
          "name": "symbol",
          "type": "string"
        }
      ],
      "payable": false,
      "stateMutability": "view",
      "type": "function"
    },
    {
      "constant": true,
      "inputs": [
        {
          "name": "symbol",
          "type": "string"
        }
      ],
      "name": "getSetAddressBySymbol",
      "outputs": [
        {
          "name": "setAddress",
          "type": "address"
        }
      ],
      "payable": false,
      "stateMutability": "view",
      "type": "function"
    },
    {
      "constant": true,
      "inputs": [],
      "name": "owner",
      "outputs": [
        {
          "name": "",
          "type": "address"
        }
      ],
      "payable": false,
      "stateMutability": "view",
      "type": "function"
    },
    {
      "constant": false,
      "inputs": [
        {
          "name": "_tokens",
          "type": "address[]"
        },
        {
          "name": "_units",
          "type": "uint256[]"
        },
        {
          "name": "_name",
          "type": "string"
        },
        {
          "name": "_symbol",
          "type": "string"
        }
      ],
      "name": "create",
      "outputs": [
        {
          "name": "newSetTokenAddress",
          "type": "address"
        }
      ],
      "payable": false,
      "stateMutability": "nonpayable",
      "type": "function"
    },
    {
      "constant": true,
      "inputs": [],
      "name": "getSetAddresses",
      "outputs": [
        {
          "name": "",
          "type": "address[]"
        }
      ],
      "payable": false,
      "stateMutability": "view",
      "type": "function"
    },
    {
      "constant": false,
      "inputs": [
        {
          "name": "_set",
          "type": "address"
        },
        {
          "name": "_setAddressIndex",
          "type": "uint256"
        }
      ],
      "name": "remove",
      "outputs": [
        {
          "name": "success",
          "type": "bool"
        }
      ],
      "payable": false,
      "stateMutability": "nonpayable",
      "type": "function"
    },
    {
      "constant": true,
      "inputs": [
        {
          "name": "name",
          "type": "string"
        }
      ],
      "name": "getSetAddressByName",
      "outputs": [
        {
          "name": "setAddress",
          "type": "address"
        }
      ],
      "payable": false,
      "stateMutability": "view",
      "type": "function"
    },
    {
      "constant": false,
      "inputs": [
        {
          "name": "newOwner",
          "type": "address"
        }
      ],
      "name": "transferOwnership",
      "outputs": [],
      "payable": false,
      "stateMutability": "nonpayable",
      "type": "function"
    },
    {
      "constant": true,
      "inputs": [],
      "name": "setCount",
      "outputs": [
        {
          "name": "length",
          "type": "uint256"
        }
      ],
      "payable": false,
      "stateMutability": "view",
      "type": "function"
    },
    {
      "inputs": [],
      "payable": false,
      "stateMutability": "nonpayable",
      "type": "constructor"
    },
    {
      "anonymous": false,
      "inputs": [
        {
          "indexed": true,
          "name": "sender",
          "type": "address"
        },
        {
          "indexed": true,
          "name": "setAddress",
          "type": "address"
        },
        {
          "indexed": false,
          "name": "name",
          "type": "string"
        },
        {
          "indexed": false,
          "name": "symbol",
          "type": "string"
        }
      ],
      "name": "SetTokenCreated",
      "type": "event"
    },
    {
      "anonymous": false,
      "inputs": [
        {
          "indexed": true,
          "name": "sender",
          "type": "address"
        },
        {
          "indexed": true,
          "name": "setAddress",
          "type": "address"
        },
        {
          "indexed": false,
          "name": "name",
          "type": "string"
        },
        {
          "indexed": false,
          "name": "symbol",
          "type": "string"
        }
      ],
      "name": "SetTokenAdded",
      "type": "event"
    },
    {
      "anonymous": false,
      "inputs": [
        {
          "indexed": true,
          "name": "sender",
          "type": "address"
        },
        {
          "indexed": true,
          "name": "setAddress",
          "type": "address"
        },
        {
          "indexed": false,
          "name": "name",
          "type": "string"
        },
        {
          "indexed": false,
          "name": "symbol",
          "type": "string"
        }
      ],
      "name": "SetTokenRemoved",
      "type": "event"
    },
    {
      "anonymous": false,
      "inputs": [
        {
          "indexed": true,
          "name": "previousOwner",
          "type": "address"
        },
        {
          "indexed": true,
          "name": "newOwner",
          "type": "address"
        }
      ],
      "name": "OwnershipTransferred",
      "type": "event"
    }
  ],
  "bytecode": "0x6060604052341561000f57600080fd5b336000806101000a81548173ffffffffffffffffffffffffffffffffffffffff021916908373ffffffffffffffffffffffffffffffffffffffff1602179055506144a68061005e6000396000f300606060405260043610620000c7576000357c0100000000000000000000000000000000000000000000000000000000900463ffffffff16806301304a4f14620000cc57806346bc7fd914620002265780636e7f096e14620003005780636ef49f64146200036657806377b9655114620004fc5780638da5cb5b146200059c578063920d008614620005f45780639eff34b41462000757578063abe7f1ab14620007c6578063d9cbfd591462000823578063f2fde38b14620008c3578063f3922ca214620008ff575b600080fd5b3415620000d857600080fd5b62000106600480803573ffffffffffffffffffffffffffffffffffffffff169060200190919050506200092b565b604051808473ffffffffffffffffffffffffffffffffffffffff1673ffffffffffffffffffffffffffffffffffffffff1681526020018060200180602001838103835285818151815260200191508051906020019080838360005b838110156200017e57808201518184015260208101905062000161565b50505050905090810190601f168015620001ac5780820380516001836020036101000a031916815260200191505b50838103825284818151815260200191508051906020019080838360005b83811015620001e7578082015181840152602081019050620001ca565b50505050905090810190601f168015620002155780820380516001836020036101000a031916815260200191505b509550505050505060405180910390f35b34156200023257600080fd5b620002e6600480803573ffffffffffffffffffffffffffffffffffffffff1690602001909190803590602001908201803590602001908080601f0160208091040260200160405190810160405280939291908181526020018383808284378201915050505050509190803590602001908201803590602001908080601f0160208091040260200160405190810160405280939291908181526020018383808284378201915050505050509190505062000b5d565b604051808215151515815260200191505060405180910390f35b34156200030c57600080fd5b62000324600480803590602001909190505062001192565b604051808273ffffffffffffffffffffffffffffffffffffffff1673ffffffffffffffffffffffffffffffffffffffff16815260200191505060405180910390f35b34156200037257600080fd5b620003a0600480803573ffffffffffffffffffffffffffffffffffffffff16906020019091905050620011d2565b604051808473ffffffffffffffffffffffffffffffffffffffff1673ffffffffffffffffffffffffffffffffffffffff1681526020018060200180602001838103835285818154600181600116156101000203166002900481526020019150805460018160011615610100020316600290048015620004635780601f10620004375761010080835404028352916020019162000463565b820191906000526020600020905b8154815290600101906020018083116200044557829003601f168201915b5050838103825284818154600181600116156101000203166002900481526020019150805460018160011615610100020316600290048015620004ea5780601f10620004be57610100808354040283529160200191620004ea565b820191906000526020600020905b815481529060010190602001808311620004cc57829003601f168201915b50509550505050505060405180910390f35b34156200050857600080fd5b6200055a600480803590602001908201803590602001908080601f016020809104026020016040519081016040528093929190818152602001838380828437820191505050505050919050506200121a565b604051808273ffffffffffffffffffffffffffffffffffffffff1673ffffffffffffffffffffffffffffffffffffffff16815260200191505060405180910390f35b3415620005a857600080fd5b620005b2620012b1565b604051808273ffffffffffffffffffffffffffffffffffffffff1673ffffffffffffffffffffffffffffffffffffffff16815260200191505060405180910390f35b34156200060057600080fd5b620007156004808035906020019082018035906020019080806020026020016040519081016040528093929190818152602001838360200280828437820191505050505050919080359060200190820180359060200190808060200260200160405190810160405280939291908181526020018383602002808284378201915050505050509190803590602001908201803590602001908080601f0160208091040260200160405190810160405280939291908181526020018383808284378201915050505050509190803590602001908201803590602001908080601f01602080910402602001604051908101604052809392919081815260200183838082843782019150505050505091905050620012d6565b604051808273ffffffffffffffffffffffffffffffffffffffff1673ffffffffffffffffffffffffffffffffffffffff16815260200191505060405180910390f35b34156200076357600080fd5b6200076d62001a0a565b6040518080602001828103825283818151815260200191508051906020019060200280838360005b83811015620007b257808201518184015260208101905062000795565b505050509050019250505060405180910390f35b3415620007d257600080fd5b62000809600480803573ffffffffffffffffffffffffffffffffffffffff1690602001909190803590602001909190505062001aa2565b604051808215151515815260200191505060405180910390f35b34156200082f57600080fd5b62000881600480803590602001908201803590602001908080601f0160208091040260200160405190810160405280939291908181526020018383808284378201915050505050509190505062002129565b604051808273ffffffffffffffffffffffffffffffffffffffff1673ffffffffffffffffffffffffffffffffffffffff16815260200191505060405180910390f35b3415620008cf57600080fd5b620008fd600480803573ffffffffffffffffffffffffffffffffffffffff16906020019091905050620021c0565b005b34156200090b57600080fd5b6200091562002317565b6040518082815260200191505060405180910390f35b60006200093762002324565b6200094162002324565b6200094b62002338565b600260008673ffffffffffffffffffffffffffffffffffffffff1673ffffffffffffffffffffffffffffffffffffffff168152602001908152602001600020606060405190810160405290816000820160009054906101000a900473ffffffffffffffffffffffffffffffffffffffff1673ffffffffffffffffffffffffffffffffffffffff1673ffffffffffffffffffffffffffffffffffffffff168152602001600182018054600181600116156101000203166002900480601f01602080910402602001604051908101604052809291908181526020018280546001816001161561010002031660029004801562000a895780601f1062000a5d5761010080835404028352916020019162000a89565b820191906000526020600020905b81548152906001019060200180831162000a6b57829003601f168201915b50505050508152602001600282018054600181600116156101000203166002900480601f01602080910402602001604051908101604052809291908181526020018280546001816001161561010002031660029004801562000b2f5780601f1062000b035761010080835404028352916020019162000b2f565b820191906000526020600020905b81548152906001019060200180831162000b1157829003601f168201915b5050505050815250509050806000015181602001518260400151819150809050935093509350509193909250565b600082600073ffffffffffffffffffffffffffffffffffffffff166004826040518082805190602001908083835b60208310151562000bb2578051825260208201915060208101905060208303925062000b8b565b6001836020036101000a038019825116818451168082178552505050505050905001915050908152602001604051809103902060009054906101000a900473ffffffffffffffffffffffffffffffffffffffff1673ffffffffffffffffffffffffffffffffffffffff1614151562000c2957600080fd5b82600073ffffffffffffffffffffffffffffffffffffffff166003826040518082805190602001908083835b60208310151562000c7c578051825260208201915060208101905060208303925062000c55565b6001836020036101000a038019825116818451168082178552505050505050905001915050908152602001604051809103902060009054906101000a900473ffffffffffffffffffffffffffffffffffffffff1673ffffffffffffffffffffffffffffffffffffffff1614151562000cf357600080fd5b85600073ffffffffffffffffffffffffffffffffffffffff16600260008373ffffffffffffffffffffffffffffffffffffffff1673ffffffffffffffffffffffffffffffffffffffff16815260200190815260200160002060000160009054906101000a900473ffffffffffffffffffffffffffffffffffffffff1673ffffffffffffffffffffffffffffffffffffffff1614151562000d9257600080fd5b6001805480600101828162000da8919062002380565b9160005260206000209001600089909190916101000a81548173ffffffffffffffffffffffffffffffffffffffff021916908373ffffffffffffffffffffffffffffffffffffffff160217905550506060604051908101604052808873ffffffffffffffffffffffffffffffffffffffff16815260200187815260200186815250600260008973ffffffffffffffffffffffffffffffffffffffff1673ffffffffffffffffffffffffffffffffffffffff16815260200190815260200160002060008201518160000160006101000a81548173ffffffffffffffffffffffffffffffffffffffff021916908373ffffffffffffffffffffffffffffffffffffffff160217905550602082015181600101908051906020019062000ecd929190620023af565b50604082015181600201908051906020019062000eec929190620023af565b50905050866004876040518082805190602001908083835b60208310151562000f2b578051825260208201915060208101905060208303925062000f04565b6001836020036101000a038019825116818451168082178552505050505050905001915050908152602001604051809103902060006101000a81548173ffffffffffffffffffffffffffffffffffffffff021916908373ffffffffffffffffffffffffffffffffffffffff160217905550866003866040518082805190602001908083835b60208310151562000fd7578051825260208201915060208101905060208303925062000fb0565b6001836020036101000a038019825116818451168082178552505050505050905001915050908152602001604051809103902060006101000a81548173ffffffffffffffffffffffffffffffffffffffff021916908373ffffffffffffffffffffffffffffffffffffffff1602179055508673ffffffffffffffffffffffffffffffffffffffff163373ffffffffffffffffffffffffffffffffffffffff167e7daa8b19a37c4050f45e8745396381f3feb1207079ea81fbaecc4de19d359a8888604051808060200180602001838103835285818151815260200191508051906020019080838360005b83811015620010de578082015181840152602081019050620010c1565b50505050905090810190601f1680156200110c5780820380516001836020036101000a031916815260200191505b50838103825284818151815260200191508051906020019080838360005b83811015620011475780820151818401526020810190506200112a565b50505050905090810190601f168015620011755780820380516001836020036101000a031916815260200191505b5094505050505060405180910390a3600193505050509392505050565b600181815481101515620011a257fe5b90600052602060002090016000915054906101000a900473ffffffffffffffffffffffffffffffffffffffff1681565b60026020528060005260406000206000915090508060000160009054906101000a900473ffffffffffffffffffffffffffffffffffffffff1690806001019080600201905083565b60006003826040518082805190602001908083835b6020831015156200125657805182526020820191506020810190506020830392506200122f565b6001836020036101000a038019825116818451168082178552505050505050905001915050908152602001604051809103902060009054906101000a900473ffffffffffffffffffffffffffffffffffffffff169050919050565b6000809054906101000a900473ffffffffffffffffffffffffffffffffffffffff1681565b60008083600073ffffffffffffffffffffffffffffffffffffffff166004826040518082805190602001908083835b6020831015156200132c578051825260208201915060208101905060208303925062001305565b6001836020036101000a038019825116818451168082178552505050505050905001915050908152602001604051809103902060009054906101000a900473ffffffffffffffffffffffffffffffffffffffff1673ffffffffffffffffffffffffffffffffffffffff16141515620013a357600080fd5b83600073ffffffffffffffffffffffffffffffffffffffff166003826040518082805190602001908083835b602083101515620013f65780518252602082019150602081019050602083039250620013cf565b6001836020036101000a038019825116818451168082178552505050505050905001915050908152602001604051809103902060009054906101000a900473ffffffffffffffffffffffffffffffffffffffff1673ffffffffffffffffffffffffffffffffffffffff161415156200146d57600080fd5b878787876200147b62002436565b8080602001806020018060200180602001858103855289818151815260200191508051906020019060200280838360005b83811015620014c9578082015181840152602081019050620014ac565b50505050905001858103845288818151815260200191508051906020019060200280838360005b838110156200150d578082015181840152602081019050620014f0565b50505050905001858103835287818151815260200191508051906020019080838360005b838110156200154e57808201518184015260208101905062001531565b50505050905090810190601f1680156200157c5780820380516001836020036101000a031916815260200191505b50858103825286818151815260200191508051906020019080838360005b83811015620015b75780820151818401526020810190506200159a565b50505050905090810190601f168015620015e55780820380516001836020036101000a031916815260200191505b5098505050505050505050604051809103906000f08015156200160757600080fd5b9250600180548060010182816200161f919062002380565b9160005260206000209001600085909190916101000a81548173ffffffffffffffffffffffffffffffffffffffff021916908373ffffffffffffffffffffffffffffffffffffffff160217905550506060604051908101604052808473ffffffffffffffffffffffffffffffffffffffff16815260200187815260200186815250600260008573ffffffffffffffffffffffffffffffffffffffff1673ffffffffffffffffffffffffffffffffffffffff16815260200190815260200160002060008201518160000160006101000a81548173ffffffffffffffffffffffffffffffffffffffff021916908373ffffffffffffffffffffffffffffffffffffffff160217905550602082015181600101908051906020019062001744929190620023af565b50604082015181600201908051906020019062001763929190620023af565b50905050826004876040518082805190602001908083835b602083101515620017a257805182526020820191506020810190506020830392506200177b565b6001836020036101000a038019825116818451168082178552505050505050905001915050908152602001604051809103902060006101000a81548173ffffffffffffffffffffffffffffffffffffffff021916908373ffffffffffffffffffffffffffffffffffffffff160217905550826003866040518082805190602001908083835b6020831015156200184e578051825260208201915060208101905060208303925062001827565b6001836020036101000a038019825116818451168082178552505050505050905001915050908152602001604051809103902060006101000a81548173ffffffffffffffffffffffffffffffffffffffff021916908373ffffffffffffffffffffffffffffffffffffffff1602179055508273ffffffffffffffffffffffffffffffffffffffff163373ffffffffffffffffffffffffffffffffffffffff167fb7b1e89d4bb640b93b0cb96b27077ceb558d073e00531c0a712a4afc9ccf06fe8888604051808060200180602001838103835285818151815260200191508051906020019080838360005b838110156200195657808201518184015260208101905062001939565b50505050905090810190601f168015620019845780820380516001836020036101000a031916815260200191505b50838103825284818151815260200191508051906020019080838360005b83811015620019bf578082015181840152602081019050620019a2565b50505050905090810190601f168015620019ed5780820380516001836020036101000a031916815260200191505b5094505050505060405180910390a3829350505050949350505050565b62001a1462002447565b600180548060200260200160405190810160405280929190818152602001828054801562001a9857602002820191906000526020600020905b8160009054906101000a900473ffffffffffffffffffffffffffffffffffffffff1673ffffffffffffffffffffffffffffffffffffffff168152602001906001019080831162001a4d575b5050505050905090565b600062001aae62002338565b6000809054906101000a900473ffffffffffffffffffffffffffffffffffffffff1673ffffffffffffffffffffffffffffffffffffffff163373ffffffffffffffffffffffffffffffffffffffff1614151562001b0a57600080fd5b60018381548110151562001b1a57fe5b906000526020600020900160009054906101000a900473ffffffffffffffffffffffffffffffffffffffff1673ffffffffffffffffffffffffffffffffffffffff168473ffffffffffffffffffffffffffffffffffffffff1614151562001b8057600080fd5b600260008573ffffffffffffffffffffffffffffffffffffffff1673ffffffffffffffffffffffffffffffffffffffff168152602001908152602001600020606060405190810160405290816000820160009054906101000a900473ffffffffffffffffffffffffffffffffffffffff1673ffffffffffffffffffffffffffffffffffffffff1673ffffffffffffffffffffffffffffffffffffffff168152602001600182018054600181600116156101000203166002900480601f01602080910402602001604051908101604052809291908181526020018280546001816001161561010002031660029004801562001cbe5780601f1062001c925761010080835404028352916020019162001cbe565b820191906000526020600020905b81548152906001019060200180831162001ca057829003601f168201915b50505050508152602001600282018054600181600116156101000203166002900480601f01602080910402602001604051908101604052809291908181526020018280546001816001161561010002031660029004801562001d645780601f1062001d385761010080835404028352916020019162001d64565b820191906000526020600020905b81548152906001019060200180831162001d4657829003601f168201915b50505050508152505090508373ffffffffffffffffffffffffffffffffffffffff163373ffffffffffffffffffffffffffffffffffffffff167f8c0549cd7c150e0ebb3086c88a820e1b42db9c827e3d24883f6a945b647b4ada83602001518460400151604051808060200180602001838103835285818151815260200191508051906020019080838360005b8381101562001e0e57808201518184015260208101905062001df1565b50505050905090810190601f16801562001e3c5780820380516001836020036101000a031916815260200191505b50838103825284818151815260200191508051906020019080838360005b8381101562001e7757808201518184015260208101905062001e5a565b50505050905090810190601f16801562001ea55780820380516001836020036101000a031916815260200191505b5094505050505060405180910390a3600481602001516040518082805190602001908083835b60208310151562001ef2578051825260208201915060208101905060208303925062001ecb565b6001836020036101000a038019825116818451168082178552505050505050905001915050908152602001604051809103902060006101000a81549073ffffffffffffffffffffffffffffffffffffffff0219169055600381604001516040518082805190602001908083835b60208310151562001f86578051825260208201915060208101905060208303925062001f5f565b6001836020036101000a038019825116818451168082178552505050505050905001915050908152602001604051809103902060006101000a81549073ffffffffffffffffffffffffffffffffffffffff0219169055600260008573ffffffffffffffffffffffffffffffffffffffff1673ffffffffffffffffffffffffffffffffffffffff168152602001908152602001600020600080820160006101000a81549073ffffffffffffffffffffffffffffffffffffffff02191690556001820160006200205591906200245b565b6002820160006200206791906200245b565b50506001808080549050038154811015156200207f57fe5b906000526020600020900160009054906101000a900473ffffffffffffffffffffffffffffffffffffffff16600184815481101515620020bb57fe5b906000526020600020900160006101000a81548173ffffffffffffffffffffffffffffffffffffffff021916908373ffffffffffffffffffffffffffffffffffffffff160217905550600180818180549050039150816200211d9190620024a7565b50600191505092915050565b60006004826040518082805190602001908083835b6020831015156200216557805182526020820191506020810190506020830392506200213e565b6001836020036101000a038019825116818451168082178552505050505050905001915050908152602001604051809103902060009054906101000a900473ffffffffffffffffffffffffffffffffffffffff169050919050565b6000809054906101000a900473ffffffffffffffffffffffffffffffffffffffff1673ffffffffffffffffffffffffffffffffffffffff163373ffffffffffffffffffffffffffffffffffffffff161415156200221c57600080fd5b600073ffffffffffffffffffffffffffffffffffffffff168173ffffffffffffffffffffffffffffffffffffffff16141515156200225957600080fd5b8073ffffffffffffffffffffffffffffffffffffffff166000809054906101000a900473ffffffffffffffffffffffffffffffffffffffff1673ffffffffffffffffffffffffffffffffffffffff167f8be0079c531659141344cd1fd0a4f28419497f9722a3daafe3b4186f6b6457e060405160405180910390a3806000806101000a81548173ffffffffffffffffffffffffffffffffffffffff021916908373ffffffffffffffffffffffffffffffffffffffff16021790555050565b6000600180549050905090565b602060405190810160405280600081525090565b606060405190810160405280600073ffffffffffffffffffffffffffffffffffffffff1681526020016200236b620024d6565b81526020016200237a620024d6565b81525090565b815481835581811511620023aa57818360005260206000209182019101620023a99190620024ea565b5b505050565b828054600181600116156101000203166002900490600052602060002090601f016020900481019282601f10620023f257805160ff191683800117855562002423565b8280016001018555821562002423579182015b828111156200242257825182559160200191906001019062002405565b5b509050620024329190620024ea565b5090565b604051611f68806200251383390190565b602060405190810160405280600081525090565b50805460018160011615610100020316600290046000825580601f10620024835750620024a4565b601f016020900490600052602060002090810190620024a39190620024ea565b5b50565b815481835581811511620024d157818360005260206000209182019101620024d09190620024ea565b5b505050565b602060405190810160405280600081525090565b6200250f91905b808211156200250b576000816000905550600101620024f1565b5090565b905600606060405234156200001057600080fd5b60405162001f6838038062001f6883398101604052808051820191906020018051820191906020018051820191906020018051820191905050600080600060206040519081016040528060008152506020604051908101604052806000815250601282600390805190602001906200008a92919062000206565b508160049080519060200190620000a392919062000206565b5080600560006101000a81548160ff021916908360ff16021790555050505060008751111515620000d357600080fd5b60008651111515620000e457600080fd5b85518751141515620000f557600080fd5b600092505b8551831015620001955785838151811015156200011357fe5b9060200190602002015191506000821115156200012f57600080fd5b86838151811015156200013e57fe5b906020019060200201519050600073ffffffffffffffffffffffffffffffffffffffff168173ffffffffffffffffffffffffffffffffffffffff16141515156200018757600080fd5b8280600101935050620000fa565b8660079080519060200190620001ad9291906200028d565b508560089080519060200190620001c69291906200031c565b508460039080519060200190620001df92919062000206565b508360049080519060200190620001f892919062000206565b5050505050505050620003dc565b828054600181600116156101000203166002900490600052602060002090601f016020900481019282601f106200024957805160ff19168380011785556200027a565b828001600101855582156200027a579182015b82811115620002795782518255916020019190600101906200025c565b5b5090506200028991906200036e565b5090565b82805482825590600052602060002090810192821562000309579160200282015b82811115620003085782518260006101000a81548173ffffffffffffffffffffffffffffffffffffffff021916908373ffffffffffffffffffffffffffffffffffffffff16021790555091602001919060010190620002ae565b5b50905062000318919062000396565b5090565b8280548282559060005260206000209081019282156200035b579160200282015b828111156200035a5782518255916020019190600101906200033d565b5b5090506200036a91906200036e565b5090565b6200039391905b808211156200038f57600081600090555060010162000375565b5090565b90565b620003d991905b80821115620003d557600081816101000a81549073ffffffffffffffffffffffffffffffffffffffff0219169055506001016200039d565b5090565b90565b611b7c80620003ec6000396000f3006060604052600436106100fc576000357c0100000000000000000000000000000000000000000000000000000000900463ffffffff168063027aa9f51461010157806306fdde031461016b578063095ea7b3146101f957806318160ddd1461025357806323b872dd1461027c578063313ce567146102f55780634f64b2be14610324578063661884631461038757806370a08231146103e157806395d89b411461042e5780639f181b5e146104bc578063a9059cbb146104e5578063aa6ca8081461053f578063cc872b66146105a9578063d73dd623146105e4578063db006a751461063e578063dd62ed3e14610679578063e5fba6cc146106e5575b600080fd5b341561010c57600080fd5b61011461071c565b6040518080602001828103825283818151815260200191508051906020019060200280838360005b8381101561015757808201518184015260208101905061013c565b505050509050019250505060405180910390f35b341561017657600080fd5b61017e61077a565b6040518080602001828103825283818151815260200191508051906020019080838360005b838110156101be5780820151818401526020810190506101a3565b50505050905090810190601f1680156101eb5780820380516001836020036101000a031916815260200191505b509250505060405180910390f35b341561020457600080fd5b610239600480803573ffffffffffffffffffffffffffffffffffffffff16906020019091908035906020019091905050610818565b604051808215151515815260200191505060405180910390f35b341561025e57600080fd5b61026661090a565b6040518082815260200191505060405180910390f35b341561028757600080fd5b6102db600480803573ffffffffffffffffffffffffffffffffffffffff1690602001909190803573ffffffffffffffffffffffffffffffffffffffff16906020019091908035906020019091905050610910565b604051808215151515815260200191505060405180910390f35b341561030057600080fd5b610308610cca565b604051808260ff1660ff16815260200191505060405180910390f35b341561032f57600080fd5b6103456004808035906020019091905050610cdd565b604051808273ffffffffffffffffffffffffffffffffffffffff1673ffffffffffffffffffffffffffffffffffffffff16815260200191505060405180910390f35b341561039257600080fd5b6103c7600480803573ffffffffffffffffffffffffffffffffffffffff16906020019091908035906020019091905050610d1c565b604051808215151515815260200191505060405180910390f35b34156103ec57600080fd5b610418600480803573ffffffffffffffffffffffffffffffffffffffff16906020019091905050610fad565b6040518082815260200191505060405180910390f35b341561043957600080fd5b610441610ff5565b6040518080602001828103825283818151815260200191508051906020019080838360005b83811015610481578082015181840152602081019050610466565b50505050905090810190601f1680156104ae5780820380516001836020036101000a031916815260200191505b509250505060405180910390f35b34156104c757600080fd5b6104cf611093565b6040518082815260200191505060405180910390f35b34156104f057600080fd5b610525600480803573ffffffffffffffffffffffffffffffffffffffff169060200190919080359060200190919050506110a0565b604051808215151515815260200191505060405180910390f35b341561054a57600080fd5b6105526112bf565b6040518080602001828103825283818151815260200191508051906020019060200280838360005b8381101561059557808201518184015260208101905061057a565b505050509050019250505060405180910390f35b34156105b457600080fd5b6105ca6004808035906020019091905050611353565b604051808215151515815260200191505060405180910390f35b34156105ef57600080fd5b610624600480803573ffffffffffffffffffffffffffffffffffffffff169060200190919080359060200190919050506115c2565b604051808215151515815260200191505060405180910390f35b341561064957600080fd5b61065f60048080359060200190919050506117be565b604051808215151515815260200191505060405180910390f35b341561068457600080fd5b6106cf600480803573ffffffffffffffffffffffffffffffffffffffff1690602001909190803573ffffffffffffffffffffffffffffffffffffffff16906020019091905050611a46565b6040518082815260200191505060405180910390f35b34156106f057600080fd5b6107066004808035906020019091905050611acd565b6040518082815260200191505060405180910390f35b610724611b28565b600880548060200260200160405190810160405280929190818152602001828054801561077057602002820191906000526020600020905b81548152602001906001019080831161075c575b5050505050905090565b60038054600181600116156101000203166002900480601f0160208091040260200160405190810160405280929190818152602001828054600181600116156101000203166002900480156108105780601f106107e557610100808354040283529160200191610810565b820191906000526020600020905b8154815290600101906020018083116107f357829003601f168201915b505050505081565b600081600260003373ffffffffffffffffffffffffffffffffffffffff1673ffffffffffffffffffffffffffffffffffffffff16815260200190815260200160002060008573ffffffffffffffffffffffffffffffffffffffff1673ffffffffffffffffffffffffffffffffffffffff168152602001908152602001600020819055508273ffffffffffffffffffffffffffffffffffffffff163373ffffffffffffffffffffffffffffffffffffffff167f8c5be1e5ebec7d5bd14f71427d1e84f3dd0314c0f7b2291e5b200ac8c7c3b925846040518082815260200191505060405180910390a36001905092915050565b60065481565b60008073ffffffffffffffffffffffffffffffffffffffff168373ffffffffffffffffffffffffffffffffffffffff161415151561094d57600080fd5b6000808573ffffffffffffffffffffffffffffffffffffffff1673ffffffffffffffffffffffffffffffffffffffff16815260200190815260200160002054821115151561099a57600080fd5b600260008573ffffffffffffffffffffffffffffffffffffffff1673ffffffffffffffffffffffffffffffffffffffff16815260200190815260200160002060003373ffffffffffffffffffffffffffffffffffffffff1673ffffffffffffffffffffffffffffffffffffffff168152602001908152602001600020548211151515610a2557600080fd5b610a76826000808773ffffffffffffffffffffffffffffffffffffffff1673ffffffffffffffffffffffffffffffffffffffff16815260200190815260200160002054611af190919063ffffffff16565b6000808673ffffffffffffffffffffffffffffffffffffffff1673ffffffffffffffffffffffffffffffffffffffff16815260200190815260200160002081905550610b09826000808673ffffffffffffffffffffffffffffffffffffffff1673ffffffffffffffffffffffffffffffffffffffff16815260200190815260200160002054611b0a90919063ffffffff16565b6000808573ffffffffffffffffffffffffffffffffffffffff1673ffffffffffffffffffffffffffffffffffffffff16815260200190815260200160002081905550610bda82600260008773ffffffffffffffffffffffffffffffffffffffff1673ffffffffffffffffffffffffffffffffffffffff16815260200190815260200160002060003373ffffffffffffffffffffffffffffffffffffffff1673ffffffffffffffffffffffffffffffffffffffff16815260200190815260200160002054611af190919063ffffffff16565b600260008673ffffffffffffffffffffffffffffffffffffffff1673ffffffffffffffffffffffffffffffffffffffff16815260200190815260200160002060003373ffffffffffffffffffffffffffffffffffffffff1673ffffffffffffffffffffffffffffffffffffffff168152602001908152602001600020819055508273ffffffffffffffffffffffffffffffffffffffff168473ffffffffffffffffffffffffffffffffffffffff167fddf252ad1be2c89b69c2b068fc378daa952ba7f163c4a11628f55a4df523b3ef846040518082815260200191505060405180910390a3600190509392505050565b600560009054906101000a900460ff1681565b600781815481101515610cec57fe5b90600052602060002090016000915054906101000a900473ffffffffffffffffffffffffffffffffffffffff1681565b600080600260003373ffffffffffffffffffffffffffffffffffffffff1673ffffffffffffffffffffffffffffffffffffffff16815260200190815260200160002060008573ffffffffffffffffffffffffffffffffffffffff1673ffffffffffffffffffffffffffffffffffffffff16815260200190815260200160002054905080831115610e2d576000600260003373ffffffffffffffffffffffffffffffffffffffff1673ffffffffffffffffffffffffffffffffffffffff16815260200190815260200160002060008673ffffffffffffffffffffffffffffffffffffffff1673ffffffffffffffffffffffffffffffffffffffff16815260200190815260200160002081905550610ec1565b610e408382611af190919063ffffffff16565b600260003373ffffffffffffffffffffffffffffffffffffffff1673ffffffffffffffffffffffffffffffffffffffff16815260200190815260200160002060008673ffffffffffffffffffffffffffffffffffffffff1673ffffffffffffffffffffffffffffffffffffffff168152602001908152602001600020819055505b8373ffffffffffffffffffffffffffffffffffffffff163373ffffffffffffffffffffffffffffffffffffffff167f8c5be1e5ebec7d5bd14f71427d1e84f3dd0314c0f7b2291e5b200ac8c7c3b925600260003373ffffffffffffffffffffffffffffffffffffffff1673ffffffffffffffffffffffffffffffffffffffff16815260200190815260200160002060008873ffffffffffffffffffffffffffffffffffffffff1673ffffffffffffffffffffffffffffffffffffffff168152602001908152602001600020546040518082815260200191505060405180910390a3600191505092915050565b60008060008373ffffffffffffffffffffffffffffffffffffffff1673ffffffffffffffffffffffffffffffffffffffff168152602001908152602001600020549050919050565b60048054600181600116156101000203166002900480601f01602080910402602001604051908101604052809291908181526020018280546001816001161561010002031660029004801561108b5780601f106110605761010080835404028352916020019161108b565b820191906000526020600020905b81548152906001019060200180831161106e57829003601f168201915b505050505081565b6000600780549050905090565b60008073ffffffffffffffffffffffffffffffffffffffff168373ffffffffffffffffffffffffffffffffffffffff16141515156110dd57600080fd5b6000803373ffffffffffffffffffffffffffffffffffffffff1673ffffffffffffffffffffffffffffffffffffffff16815260200190815260200160002054821115151561112a57600080fd5b61117b826000803373ffffffffffffffffffffffffffffffffffffffff1673ffffffffffffffffffffffffffffffffffffffff16815260200190815260200160002054611af190919063ffffffff16565b6000803373ffffffffffffffffffffffffffffffffffffffff1673ffffffffffffffffffffffffffffffffffffffff1681526020019081526020016000208190555061120e826000808673ffffffffffffffffffffffffffffffffffffffff1673ffffffffffffffffffffffffffffffffffffffff16815260200190815260200160002054611b0a90919063ffffffff16565b6000808573ffffffffffffffffffffffffffffffffffffffff1673ffffffffffffffffffffffffffffffffffffffff168152602001908152602001600020819055508273ffffffffffffffffffffffffffffffffffffffff163373ffffffffffffffffffffffffffffffffffffffff167fddf252ad1be2c89b69c2b068fc378daa952ba7f163c4a11628f55a4df523b3ef846040518082815260200191505060405180910390a36001905092915050565b6112c7611b3c565b600780548060200260200160405190810160405280929190818152602001828054801561134957602002820191906000526020600020905b8160009054906101000a900473ffffffffffffffffffffffffffffffffffffffff1673ffffffffffffffffffffffffffffffffffffffff16815260200190600101908083116112ff575b5050505050905090565b600080600080600092505b6007805490508310156114d65760078381548110151561137a57fe5b906000526020600020900160009054906101000a900473ffffffffffffffffffffffffffffffffffffffff1691506008838154811015156113b757fe5b90600052602060002090015490508173ffffffffffffffffffffffffffffffffffffffff166323b872dd33308885026000604051602001526040518463ffffffff167c0100000000000000000000000000000000000000000000000000000000028152600401808473ffffffffffffffffffffffffffffffffffffffff1673ffffffffffffffffffffffffffffffffffffffff1681526020018373ffffffffffffffffffffffffffffffffffffffff1673ffffffffffffffffffffffffffffffffffffffff1681526020018281526020019350505050602060405180830381600087803b15156114a657600080fd5b6102c65a03f115156114b757600080fd5b5050506040518051905015156114c957fe5b828060010193505061135e565b61151e6000803373ffffffffffffffffffffffffffffffffffffffff1673ffffffffffffffffffffffffffffffffffffffff1681526020019081526020016000205486611b0a565b6000803373ffffffffffffffffffffffffffffffffffffffff1673ffffffffffffffffffffffffffffffffffffffff1681526020019081526020016000208190555061156c60065486611b0a565b600681905550843373ffffffffffffffffffffffffffffffffffffffff167ffbd21f8762dc0c4fc0dbc03a2f816a0a617102a0f9d1908bbc09d377a0b9c6ab60405160405180910390a360019350505050919050565b600061165382600260003373ffffffffffffffffffffffffffffffffffffffff1673ffffffffffffffffffffffffffffffffffffffff16815260200190815260200160002060008673ffffffffffffffffffffffffffffffffffffffff1673ffffffffffffffffffffffffffffffffffffffff16815260200190815260200160002054611b0a90919063ffffffff16565b600260003373ffffffffffffffffffffffffffffffffffffffff1673ffffffffffffffffffffffffffffffffffffffff16815260200190815260200160002060008573ffffffffffffffffffffffffffffffffffffffff1673ffffffffffffffffffffffffffffffffffffffff168152602001908152602001600020819055508273ffffffffffffffffffffffffffffffffffffffff163373ffffffffffffffffffffffffffffffffffffffff167f8c5be1e5ebec7d5bd14f71427d1e84f3dd0314c0f7b2291e5b200ac8c7c3b925600260003373ffffffffffffffffffffffffffffffffffffffff1673ffffffffffffffffffffffffffffffffffffffff16815260200190815260200160002060008773ffffffffffffffffffffffffffffffffffffffff1673ffffffffffffffffffffffffffffffffffffffff168152602001908152602001600020546040518082815260200191505060405180910390a36001905092915050565b600080600080846000803373ffffffffffffffffffffffffffffffffffffffff1673ffffffffffffffffffffffffffffffffffffffff168152602001908152602001600020541015151561181157600080fd5b600092505b60078054905083101561195a5760078381548110151561183257fe5b906000526020600020900160009054906101000a900473ffffffffffffffffffffffffffffffffffffffff16915060088381548110151561186f57fe5b90600052602060002090015490508173ffffffffffffffffffffffffffffffffffffffff1663a9059cbb338784026000604051602001526040518363ffffffff167c0100000000000000000000000000000000000000000000000000000000028152600401808373ffffffffffffffffffffffffffffffffffffffff1673ffffffffffffffffffffffffffffffffffffffff16815260200182815260200192505050602060405180830381600087803b151561192a57600080fd5b6102c65a03f1151561193b57600080fd5b50505060405180519050151561194d57fe5b8280600101935050611816565b6119a26000803373ffffffffffffffffffffffffffffffffffffffff1673ffffffffffffffffffffffffffffffffffffffff1681526020019081526020016000205486611af1565b6000803373ffffffffffffffffffffffffffffffffffffffff1673ffffffffffffffffffffffffffffffffffffffff168152602001908152602001600020819055506119f060065486611af1565b600681905550843373ffffffffffffffffffffffffffffffffffffffff167f2de3ebe1bb56079998f2617612ba527a2690a100757600dfc0d7253c808b742960405160405180910390a360019350505050919050565b6000600260008473ffffffffffffffffffffffffffffffffffffffff1673ffffffffffffffffffffffffffffffffffffffff16815260200190815260200160002060008373ffffffffffffffffffffffffffffffffffffffff1673ffffffffffffffffffffffffffffffffffffffff16815260200190815260200160002054905092915050565b600881815481101515611adc57fe5b90600052602060002090016000915090505481565b6000828211151515611aff57fe5b818303905092915050565b6000808284019050838110151515611b1e57fe5b8091505092915050565b602060405190810160405280600081525090565b6020604051908101604052806000815250905600a165627a7a72305820d65de5d3383a92fb037a947940b8289b1e3ab70ef0bd1d29566f1d73601f32910029a165627a7a723058200ce4e7fa6d6bfb424d2e601daf308d3a4fb91d7af2c0a5fdcab7939b3488ab2d0029",
  "source": "pragma solidity ^0.4.18;\n\n\nimport \"zeppelin-solidity/contracts/ownership/Ownable.sol\";\nimport \"./SetToken.sol\";\n\n\n/**\n * @title {Set} Registry\n * @author Felix Feng\n * @dev Implementation of the {Set} registry.\n */\ncontract SetRegistry is Ownable {\n  struct SetMetadata {\n    address set;\n    string name;\n    string symbol;\n  }\n\n  address[] public setAddresses;\n\n  mapping (address => SetMetadata) public sets;\n  mapping (string => address) setAddressBySymbol;\n  mapping (string => address) setAddressByName;\n\n  event SetTokenCreated(\n    address indexed sender,\n    address indexed setAddress,\n    string name,\n    string symbol\n  );\n\n  event SetTokenAdded(\n    address indexed sender,\n    address indexed setAddress,\n    string name,\n    string symbol\n  );\n\n  event SetTokenRemoved(\n    address indexed sender,\n    address indexed setAddress,\n    string name,\n    string symbol\n  );\n\n  modifier nameDoesNotExist(string _name) {\n    require(setAddressByName[_name] == address(0));\n    _;\n  }\n\n  modifier symbolDoesNotExist(string _symbol) {\n    require(setAddressBySymbol[_symbol] == address(0));\n    _;\n  }\n\n  modifier setDoesNotExist(address set) {\n    require(sets[set].set == address(0));\n    _;\n  }\n\n  /**\n   * @dev Constructor Function for the {Set} registry\n   */\n  function SetRegistry() public {}\n\n  /**\n   * @dev Function creates a new {Set} and add to registry\n   */\n  function create(address[] _tokens, uint[] _units, string _name, string _symbol)\n    public\n    nameDoesNotExist(_name)\n    symbolDoesNotExist(_symbol)\n    returns(address newSetTokenAddress)\n  {\n    // Instantiate that contract with correct input parameters\n    SetToken newSetToken = new SetToken(_tokens, _units, _name, _symbol);\n\n    // Add to the list of set addresses\n    setAddresses.push(address(newSetToken));\n\n    // Add to the mapping of set metadata\n    sets[address(newSetToken)] = SetMetadata({\n      set: address(newSetToken),\n      name: _name,\n      symbol: _symbol\n    });\n\n    // Mark name as used by set\n    setAddressByName[_name] = address(newSetToken);\n\n    // Mark symbol as used by set\n    setAddressBySymbol[_symbol] = address(newSetToken);\n\n    // Log contract creation\n    SetTokenCreated(msg.sender, newSetToken, _name, _symbol);\n\n    return newSetToken;\n  }\n\n  /**\n   * @dev Function adds an existing {Set} to the registry\n   */\n  function add(address _set, string name, string symbol)\n    public\n    nameDoesNotExist(name)\n    symbolDoesNotExist(symbol)\n    setDoesNotExist(_set)\n    returns (bool success)\n  {\n    setAddresses.push(_set);\n    sets[_set] = SetMetadata({\n      set: _set,\n      name: name,\n      symbol: symbol\n    });\n\n    setAddressByName[name] = _set;\n    setAddressBySymbol[symbol] = _set;\n\n    SetTokenAdded(msg.sender, _set, name, symbol);\n\n    return true;\n  }\n\n  /**\n   * @dev Function remove a {Set} from the registry\n   */\n  function remove(address _set, uint _setAddressIndex)\n    public\n    onlyOwner\n    returns(bool success)\n  {\n    require(_set == setAddresses[_setAddressIndex]);\n\n    SetMetadata memory set = sets[_set];\n\n    SetTokenRemoved(\n      msg.sender,\n      _set,\n      set.name,\n      set.symbol\n    );\n\n    // Unmark symbol as used\n    delete setAddressByName[set.name];\n\n    // Unmark name as used\n    delete setAddressBySymbol[set.symbol];\n\n    // Remove from metadata\n    delete sets[_set];\n\n    // Remove from array of set addresses\n    setAddresses[_setAddressIndex] = setAddresses[setAddresses.length - 1];\n    setAddresses.length -= 1;\n\n    return true;\n  }\n\n  function getSetAddresses() public view returns(address[]) {\n    return setAddresses;\n  }\n\n  function setCount() public view returns(uint length) {\n    return setAddresses.length;\n  }\n\n  function getSetAddressBySymbol(string symbol)\n    public\n    view\n    returns(address setAddress)\n  {\n    return setAddressBySymbol[symbol];\n  }\n\n  function getSetAddressByName(string name)\n    public\n    view\n    returns(address setAddress)\n  {\n    return setAddressByName[name];\n  }\n\n  /**\n   * @dev Gets a list of set metadata using a set address\n   */\n  function getSetMetadata(address _set)\n    public\n    view\n    returns(\n      address, // set address\n      string, // name;\n      string // symbol;\n    )\n  {\n    SetMetadata memory set = sets[_set];\n    return (\n      set.set,\n      set.name,\n      set.symbol\n    );\n  }\n}\n",
  "sourcePath": "/Users/justinkchen/workspace/set-internal-contracts/contracts/SetRegistry.sol",
  "compiler": {
    "name": "solc",
    "version": "0.4.18+commit.9cf6e910.Emscripten.clang"
  },
  "schemaVersion": "1.0.1",
  "updatedAt": "2018-02-04T19:49:28.221Z"
}