{
  "contractName": "SetRegistry",
  "abi": [
    {
      "constant": true,
      "inputs": [
        {
          "name": "_set",
          "type": "address"
        }
      ],
      "name": "getSetMetadata",
      "outputs": [
        {
          "name": "",
          "type": "address"
        },
        {
          "name": "",
          "type": "string"
        },
        {
          "name": "",
          "type": "string"
        },
        {
          "name": "",
          "type": "address[]"
        },
        {
          "name": "",
          "type": "uint256[]"
        }
      ],
      "payable": false,
      "stateMutability": "view",
      "type": "function"
    },
    {
      "constant": false,
      "inputs": [
        {
          "name": "newOwner",
          "type": "address"
        }
      ],
      "name": "setOwner",
      "outputs": [
        {
          "name": "success",
          "type": "bool"
        }
      ],
      "payable": false,
      "stateMutability": "nonpayable",
      "type": "function"
    },
    {
      "constant": true,
      "inputs": [
        {
          "name": "",
          "type": "uint256"
        }
      ],
      "name": "setAddresses",
      "outputs": [
        {
          "name": "",
          "type": "address"
        }
      ],
      "payable": false,
      "stateMutability": "view",
      "type": "function"
    },
    {
      "constant": true,
      "inputs": [
        {
          "name": "",
          "type": "address"
        }
      ],
      "name": "sets",
      "outputs": [
        {
          "name": "set",
          "type": "address"
        },
        {
          "name": "name",
          "type": "string"
        },
        {
          "name": "symbol",
          "type": "string"
        }
      ],
      "payable": false,
      "stateMutability": "view",
      "type": "function"
    },
    {
      "constant": true,
      "inputs": [
        {
          "name": "symbol",
          "type": "string"
        }
      ],
      "name": "getSetAddressBySymbol",
      "outputs": [
        {
          "name": "setAddress",
          "type": "address"
        }
      ],
      "payable": false,
      "stateMutability": "view",
      "type": "function"
    },
    {
      "constant": true,
      "inputs": [],
      "name": "getOwner",
      "outputs": [
        {
          "name": "ownerAddress",
          "type": "address"
        }
      ],
      "payable": false,
      "stateMutability": "view",
      "type": "function"
    },
    {
      "constant": false,
      "inputs": [
        {
          "name": "_tokens",
          "type": "address[]"
        },
        {
          "name": "_units",
          "type": "uint256[]"
        },
        {
          "name": "_name",
          "type": "string"
        },
        {
          "name": "_symbol",
          "type": "string"
        }
      ],
      "name": "create",
      "outputs": [
        {
          "name": "newSetTokenAddress",
          "type": "address"
        }
      ],
      "payable": false,
      "stateMutability": "nonpayable",
      "type": "function"
    },
    {
      "constant": true,
      "inputs": [],
      "name": "getSetAddresses",
      "outputs": [
        {
          "name": "",
          "type": "address[]"
        }
      ],
      "payable": false,
      "stateMutability": "view",
      "type": "function"
    },
    {
      "constant": false,
      "inputs": [
        {
          "name": "_set",
          "type": "address"
        },
        {
          "name": "_setAddressIndex",
          "type": "uint256"
        }
      ],
      "name": "remove",
      "outputs": [
        {
          "name": "success",
          "type": "bool"
        }
      ],
      "payable": false,
      "stateMutability": "nonpayable",
      "type": "function"
    },
    {
      "constant": true,
      "inputs": [
        {
          "name": "name",
          "type": "string"
        }
      ],
      "name": "getSetAddressByName",
      "outputs": [
        {
          "name": "setAddress",
          "type": "address"
        }
      ],
      "payable": false,
      "stateMutability": "view",
      "type": "function"
    },
    {
      "constant": true,
      "inputs": [],
      "name": "setCount",
      "outputs": [
        {
          "name": "length",
          "type": "uint256"
        }
      ],
      "payable": false,
      "stateMutability": "view",
      "type": "function"
    },
    {
      "inputs": [],
      "payable": false,
      "stateMutability": "nonpayable",
      "type": "constructor"
    },
    {
      "anonymous": false,
      "inputs": [
        {
          "indexed": true,
          "name": "sender",
          "type": "address"
        },
        {
          "indexed": true,
          "name": "setAddress",
          "type": "address"
        },
        {
          "indexed": false,
          "name": "tokens",
          "type": "address[]"
        },
        {
          "indexed": false,
          "name": "units",
          "type": "uint256[]"
        },
        {
          "indexed": false,
          "name": "name",
          "type": "string"
        },
        {
          "indexed": false,
          "name": "symbol",
          "type": "string"
        }
      ],
      "name": "SetTokenCreated",
      "type": "event"
    },
    {
      "anonymous": false,
      "inputs": [
        {
          "indexed": true,
          "name": "sender",
          "type": "address"
        },
        {
          "indexed": true,
          "name": "setAddress",
          "type": "address"
        },
        {
          "indexed": false,
          "name": "tokens",
          "type": "address[]"
        },
        {
          "indexed": false,
          "name": "units",
          "type": "uint256[]"
        },
        {
          "indexed": false,
          "name": "name",
          "type": "string"
        },
        {
          "indexed": false,
          "name": "symbol",
          "type": "string"
        }
      ],
      "name": "SetTokenRemoved",
      "type": "event"
    },
    {
      "anonymous": false,
      "inputs": [
        {
          "indexed": true,
          "name": "previousOwner",
          "type": "address"
        },
        {
          "indexed": true,
          "name": "newOwner",
          "type": "address"
        }
      ],
      "name": "LogOwnerSet",
      "type": "event"
    }
  ],
  "bytecode": "0x6060604052341561000f57600080fd5b60008054600160a060020a033316600160a060020a03199091161790556129c08061003b6000396000f30060606040523615620000b85763ffffffff7c010000000000000000000000000000000000000000000000000000000060003504166301304a4f8114620000bd57806313af4035146200026d5780636e7f096e14620002a35780636ef49f6414620002d857806377b965511462000415578063893d20e81462000469578063920d0086146200047f5780639eff34b41462000595578063abe7f1ab1462000600578063d9cbfd591462000625578063f3922ca21462000679575b600080fd5b3415620000c957600080fd5b620000df600160a060020a0360043516620006a1565b6040518086600160a060020a0316600160a060020a0316815260200180602001806020018060200180602001858103855289818151815260200191508051906020019080838360005b838110156200014257808201518382015260200162000128565b50505050905090810190601f168015620001705780820380516001836020036101000a031916815260200191505b50858103845288818151815260200191508051906020019080838360005b83811015620001a85780820151838201526020016200018e565b50505050905090810190601f168015620001d65780820380516001836020036101000a031916815260200191505b50858103835287818151815260200191508051906020019060200280838360005b8381101562000211578082015183820152602001620001f7565b50505050905001858103825286818151815260200191508051906020019060200280838360005b838110156200025257808201518382015260200162000238565b50505050905001995050505050505050505060405180910390f35b34156200027957600080fd5b6200028f600160a060020a036004351662000962565b604051901515815260200160405180910390f35b3415620002af57600080fd5b620002bc60043562000a12565b604051600160a060020a03909116815260200160405180910390f35b3415620002e457600080fd5b620002fa600160a060020a036004351662000a3b565b604051600160a060020a03841681526060602082018181528454600260001961010060018416150201909116049183018290529060408301906080840190869080156200038b5780601f106200035f576101008083540402835291602001916200038b565b820191906000526020600020905b8154815290600101906020018083116200036d57829003601f168201915b5050838103825284546002600019610100600184161502019091160480825260209091019085908015620004035780601f10620003d75761010080835404028352916020019162000403565b820191906000526020600020905b815481529060010190602001808311620003e557829003601f168201915b50509550505050505060405180910390f35b34156200042157600080fd5b620002bc60046024813581810190830135806020601f8201819004810201604051908101604052818152929190602084018383808284375094965062000a6195505050505050565b34156200047557600080fd5b620002bc62000adb565b34156200048b57600080fd5b620002bc60046024813581810190830135806020818102016040519081016040528093929190818152602001838360200280828437820191505050505050919080359060200190820180359060200190808060200260200160405190810160405280939291908181526020018383602002808284378201915050505050509190803590602001908201803590602001908080601f01602080910402602001604051908101604052818152929190602084018383808284378201915050505050509190803590602001908201803590602001908080601f01602080910402602001604051908101604052818152929190602084018383808284375094965062000aeb95505050505050565b3415620005a157600080fd5b620005ab62001141565b60405160208082528190810183818151815260200191508051906020019060200280838360005b83811015620005ec578082015183820152602001620005d2565b505050509050019250505060405180910390f35b34156200060c57600080fd5b6200028f600160a060020a0360043516602435620011ad565b34156200063157600080fd5b620002bc60046024813581810190830135806020601f820181900481020160405190810160405281815292919060208401838380828437509496506200160095505050505050565b34156200068557600080fd5b6200068f62001635565b60405190815260200160405180910390f35b6000620006ad6200163b565b620006b76200163b565b620006c16200163b565b620006cb6200163b565b620006d56200164d565b600160a060020a038716600090815260016020526040908190209060a0905190810160405290816000820160009054906101000a9004600160a060020a0316600160a060020a0316600160a060020a03168152602001600182018054600181600116156101000203166002900480601f016020809104026020016040519081016040528092919081815260200182805460018160011615610100020316600290048015620007c75780601f106200079b57610100808354040283529160200191620007c7565b820191906000526020600020905b815481529060010190602001808311620007a957829003601f168201915b50505050508152602001600282018054600181600116156101000203166002900480601f0160208091040260200160405190810160405280929190818152602001828054600181600116156101000203166002900480156200086d5780601f1062000841576101008083540402835291602001916200086d565b820191906000526020600020905b8154815290600101906020018083116200084f57829003601f168201915b5050505050815260200160038201805480602002602001604051908101604052809291908181526020018280548015620008d157602002820191906000526020600020905b8154600160a060020a03168152600190910190602001808311620008b2575b50505050508152602001600482018054806020026020016040519081016040528092919081815260200182805480156200092b57602002820191906000526020600020905b81548152602001906001019080831162000916575b505050505081525050905080600001518160200151826040015183606001518460800151939b929a50909850965090945092505050565b6000805433600160a060020a039081169116146200097f57600080fd5b600160a060020a03821615156200099557600080fd5b600054600160a060020a0383811691161415620009b157600080fd5b600054600160a060020a0380841691167fa1d2149652d81eb35c360c115fc7ac594124cb1ea8a5a33e9a7f5768c62869fb60405160405180910390a35060008054600160a060020a038316600160a060020a03199091161790556001919050565b600280548290811062000a2157fe5b600091825260209091200154600160a060020a0316905081565b60016020819052600091825260409091208054600160a060020a03169181019060020183565b60006003826040518082805190602001908083835b6020831062000a975780518252601f19909201916020918201910162000a76565b6001836020036101000a03801982511681845116808217855250505050505090500191505090815260200160405190819003902054600160a060020a031692915050565b600054600160a060020a03165b90565b60008083816004826040518082805190602001908083835b6020831062000b245780518252601f19909201916020918201910162000b03565b6001836020036101000a03801982511681845116808217855250505050505090500191505090815260200160405190819003902054600160a060020a03161462000b6d57600080fd5b8360006003826040518082805190602001908083835b6020831062000ba45780518252601f19909201916020918201910162000b83565b6001836020036101000a03801982511681845116808217855250505050505090500191505090815260200160405190819003902054600160a060020a03161462000bed57600080fd5b8787878762000bfb6200169c565b8080602001806020018060200180602001858103855289818151815260200191508051906020019060200280838360005b8381101562000c4657808201518382015260200162000c2c565b50505050905001858103845288818151815260200191508051906020019060200280838360005b8381101562000c8757808201518382015260200162000c6d565b50505050905001858103835287818151815260200191508051906020019080838360005b8381101562000cc557808201518382015260200162000cab565b50505050905090810190601f16801562000cf35780820380516001836020036101000a031916815260200191505b50858103825286818151815260200191508051906020019080838360005b8381101562000d2b57808201518382015260200162000d11565b50505050905090810190601f16801562000d595780820380516001836020036101000a031916815260200191505b5098505050505050505050604051809103906000f080151562000d7b57600080fd5b92506002805480600101828162000d939190620016ad565b5060009182526020909120018054600160a060020a031916600160a060020a03851617905560a06040519081016040908152600160a060020a03851680835260208084018a9052828401899052606084018c9052608084018b90526000918252600190522081518154600160a060020a031916600160a060020a039190911617815560208201518160010190805162000e31929160200190620016d9565b5060408201518160020190805162000e4e929160200190620016d9565b5060608201518160030190805162000e6b9291602001906200175e565b5060808201518160040190805162000e88929160200190620017c6565b50905050826004876040518082805190602001908083835b6020831062000ec15780518252601f19909201916020918201910162000ea0565b6001836020036101000a0380198251168184511680821785525050505050509050019150509081526020016040519081900390208054600160a060020a031916600160a060020a0392909216919091179055826003866040518082805190602001908083835b6020831062000f485780518252601f19909201916020918201910162000f27565b6001836020036101000a0380198251168184511680821785525050505050509050019150509081526020016040519081900390208054600160a060020a031916600160a060020a039283161790558381169033167f4294b805bd8d5baef99550dc9ed7e58baeefc1263ab7bdb2cf406159c4fa763d8a8a8a8a6040518080602001806020018060200180602001858103855289818151815260200191508051906020019060200280838360005b838110156200100f57808201518382015260200162000ff5565b50505050905001858103845288818151815260200191508051906020019060200280838360005b838110156200105057808201518382015260200162001036565b50505050905001858103835287818151815260200191508051906020019080838360005b838110156200108e57808201518382015260200162001074565b50505050905090810190601f168015620010bc5780820380516001836020036101000a031916815260200191505b50858103825286818151815260200191508051906020019080838360005b83811015620010f4578082015183820152602001620010da565b50505050905090810190601f168015620011225780820380516001836020036101000a031916815260200191505b509850505050505050505060405180910390a350909695505050505050565b6200114b6200163b565b6002805480602002602001604051908101604052809291908181526020018280548015620011a357602002820191906000526020600020905b8154600160a060020a0316815260019091019060200180831162001184575b5050505050905090565b60008054819033600160a060020a03908116911614620011cc57600080fd5b6002805484908110620011db57fe5b600091825260209091200154600160a060020a03858116911614620011ff57600080fd5b6001600085600160a060020a0316600160a060020a03168152602001908152602001600020905083600160a060020a031633600160a060020a03167f01f366b18a28a5ffffdb6997696b82780e676b110c24eed7e659090eb9f1b5238360030184600401856001018660020160405180806020018060200180602001806020018581038552898181548152602001915080548015620012c857602002820191906000526020600020905b8154600160a060020a03168152600190910190602001808311620012a9575b505085810384528881815481526020019150805480156200130957602002820191906000526020600020905b815481526020019060010190808311620012f4575b5050858103835287546002600019610100600184161502019091160480825260209091019088908015620013815780601f10620013555761010080835404028352916020019162001381565b820191906000526020600020905b8154815290600101906020018083116200136357829003601f168201915b5050858103825286546002600019610100600184161502019091160480825260209091019087908015620013f95780601f10620013cd57610100808354040283529160200191620013f9565b820191906000526020600020905b815481529060010190602001808311620013db57829003601f168201915b50509850505050505050505060405180910390a36004816001016040518082805460018160011615610100020316600290048015620014725780601f106200144f57610100808354040283529182019162001472565b820191906000526020600020905b8154815290600101906020018083116200145d575b505092835250506020016040519081900390208054600160a060020a03191690556003600282016040518082805460018160011615610100020316600290048015620014f85780601f10620014d5576101008083540402835291820191620014f8565b820191906000526020600020905b815481529060010190602001808311620014e3575b505092835250506020016040519081900390208054600160a060020a0319908116909155600160a060020a03851660009081526001602081905260408220805490931683556200154b9083018262001803565b6200155b60028301600062001803565b6200156b6003830160006200184e565b6200157b6004830160006200184e565b50506002805460001981019081106200159057fe5b60009182526020909120015460028054600160a060020a039092169185908110620015b757fe5b60009182526020909120018054600160a060020a031916600160a060020a0392909216919091179055600280546000190190620015f59082620016ad565b506001949350505050565b60006004826040518082805190602001908083836020831062000a975780518252601f19909201916020918201910162000a76565b60025490565b60206040519081016040526000815290565b60a060405190810160405260008152602081016200166a6200163b565b8152602001620016796200163b565b8152602001620016886200163b565b8152602001620016976200163b565b905290565b6040516110e780620018ae83390190565b815481835581811511620016d457600083815260209020620016d491810190830162001869565b505050565b828054600181600116156101000203166002900490600052602060002090601f016020900481019282601f106200171c57805160ff19168380011785556200174c565b828001600101855582156200174c579182015b828111156200174c5782518255916020019190600101906200172f565b506200175a92915062001869565b5090565b828054828255906000526020600020908101928215620017b8579160200282015b82811115620017b85782518254600160a060020a031916600160a060020a0391909116178255602092909201916001909101906200177f565b506200175a92915062001886565b8280548282559060005260206000209081019282156200174c57916020028201828111156200174c5782518255916020019190600101906200172f565b50805460018160011615610100020316600290046000825580601f106200182b57506200184b565b601f0160209004906000526020600020908101906200184b919062001869565b50565b50805460008255906000526020600020908101906200184b91905b62000ae891905b808211156200175a576000815560010162001870565b62000ae891905b808211156200175a578054600160a060020a03191681556001016200188d5600606060405234156200001057600080fd5b604051620010e7380380620010e7833981016040528080518201919060200180518201919060200180518201919060200180519091019050600080808651116200005957600080fd5b60008551116200006857600080fd5b84518651146200007757600080fd5b600091505b8451821015620000b9578482815181106200009357fe5b90602001906020020151905060008111620000ad57600080fd5b6001909101906200007c565b6008868051620000ce9291602001906200011d565b506009858051620000e492916020019062000189565b506006848051620000fa929160200190620001d5565b50600783805162000110929160200190620001d5565b505050505050506200028e565b82805482825590600052602060002090810192821562000177579160200282015b82811115620001775782518254600160a060020a031916600160a060020a0391909116178255602092909201916001909101906200013e565b506200018592915062000247565b5090565b828054828255906000526020600020908101928215620001c7579160200282015b82811115620001c7578251825591602001919060010190620001aa565b506200018592915062000271565b828054600181600116156101000203166002900490600052602060002090601f016020900481019282601f106200021857805160ff1916838001178555620001c7565b82800160010185558215620001c75791820182811115620001c7578251825591602001919060010190620001aa565b6200026e91905b8082111562000185578054600160a060020a03191681556001016200024e565b90565b6200026e91905b8082111562000185576000815560010162000278565b610e49806200029e6000396000f300606060405236156100e05763ffffffff60e060020a600035041663027aa9f581146100e557806306fdde031461014b578063095ea7b3146101d557806318160ddd1461020b57806323b872dd14610230578063313ce567146102585780634f64b2be1461028157806366188463146102b357806370a08231146102d557806395d89b41146102f45780639f181b5e14610307578063a9059cbb1461031a578063aa6ca8081461033c578063cc872b661461034f578063d73dd62314610365578063db006a7514610387578063dd62ed3e1461039d578063e5fba6cc146103c2575b600080fd5b34156100f057600080fd5b6100f86103d8565b60405160208082528190810183818151815260200191508051906020019060200280838360005b8381101561013757808201518382015260200161011f565b505050509050019250505060405180910390f35b341561015657600080fd5b61015e610436565b60405160208082528190810183818151815260200191508051906020019080838360005b8381101561019a578082015183820152602001610182565b50505050905090810190601f1680156101c75780820380516001836020036101000a031916815260200191505b509250505060405180910390f35b34156101e057600080fd5b6101f7600160a060020a03600435166024356104d4565b604051901515815260200160405180910390f35b341561021657600080fd5b61021e610540565b60405190815260200160405180910390f35b341561023b57600080fd5b6101f7600160a060020a0360043581169060243516604435610546565b341561026357600080fd5b61026b6106c8565b60405160ff909116815260200160405180910390f35b341561028c57600080fd5b6102976004356106cd565b604051600160a060020a03909116815260200160405180910390f35b34156102be57600080fd5b6101f7600160a060020a03600435166024356106f5565b34156102e057600080fd5b61021e600160a060020a03600435166107ef565b34156102ff57600080fd5b61015e61080a565b341561031257600080fd5b61021e610875565b341561032557600080fd5b6101f7600160a060020a036004351660243561087b565b341561034757600080fd5b6100f8610976565b341561035a57600080fd5b6101f76004356109dd565b341561037057600080fd5b6101f7600160a060020a0360043516602435610b5a565b341561039257600080fd5b6101f7600435610bfe565b34156103a857600080fd5b61021e600160a060020a0360043581169060243516610d99565b34156103cd57600080fd5b61021e600435610dc4565b6103e0610e0b565b600980548060200260200160405190810160405280929190818152602001828054801561042c57602002820191906000526020600020905b815481526020019060010190808311610418575b5050505050905090565b60068054600181600116156101000203166002900480601f0160208091040260200160405190810160405280929190818152602001828054600181600116156101000203166002900480156104cc5780601f106104a1576101008083540402835291602001916104cc565b820191906000526020600020905b8154815290600101906020018083116104af57829003601f168201915b505050505081565b600160a060020a03338116600081815260056020908152604080832094871680845294909152808220859055909291907f8c5be1e5ebec7d5bd14f71427d1e84f3dd0314c0f7b2291e5b200ac8c7c3b9259085905190815260200160405180910390a350600192915050565b60005481565b6000600160a060020a038316151561055d57600080fd5b600160a060020a03841660009081526004602052604090205482111561058257600080fd5b600160a060020a03808516600090815260056020908152604080832033909416835292905220548211156105b557600080fd5b600160a060020a0384166000908152600460205260409020546105de908363ffffffff610de316565b600160a060020a038086166000908152600460205260408082209390935590851681522054610613908363ffffffff610df516565b600160a060020a0380851660009081526004602090815260408083209490945587831682526005815283822033909316825291909152205461065b908363ffffffff610de316565b600160a060020a03808616600081815260056020908152604080832033861684529091529081902093909355908516917fddf252ad1be2c89b69c2b068fc378daa952ba7f163c4a11628f55a4df523b3ef9085905190815260200160405180910390a35060019392505050565b601281565b60088054829081106106db57fe5b600091825260209091200154600160a060020a0316905081565b600160a060020a0333811660009081526005602090815260408083209386168352929052908120548083111561075257600160a060020a033381166000908152600560209081526040808320938816835292905290812055610789565b610762818463ffffffff610de316565b600160a060020a033381166000908152600560209081526040808320938916835292905220555b600160a060020a0333811660008181526005602090815260408083209489168084529490915290819020547f8c5be1e5ebec7d5bd14f71427d1e84f3dd0314c0f7b2291e5b200ac8c7c3b925915190815260200160405180910390a35060019392505050565b600160a060020a031660009081526004602052604090205490565b60078054600181600116156101000203166002900480601f0160208091040260200160405190810160405280929190818152602001828054600181600116156101000203166002900480156104cc5780601f106104a1576101008083540402835291602001916104cc565b60085490565b6000600160a060020a038316151561089257600080fd5b600160a060020a0333166000908152600460205260409020548211156108b757600080fd5b600160a060020a0333166000908152600460205260409020546108e0908363ffffffff610de316565b600160a060020a033381166000908152600460205260408082209390935590851681522054610915908363ffffffff610df516565b600160a060020a0380851660008181526004602052604090819020939093559133909116907fddf252ad1be2c89b69c2b068fc378daa952ba7f163c4a11628f55a4df523b3ef9085905190815260200160405180910390a350600192915050565b61097e610e0b565b600880548060200260200160405190810160405280929190818152602001828054801561042c57602002820191906000526020600020905b8154600160a060020a031681526001909101906020018083116109b6575050505050905090565b60008080805b600854831015610acb5760088054849081106109fb57fe5b60009182526020909120015460098054600160a060020a0390921693509084908110610a2357fe5b906000526020600020900154905081600160a060020a03166323b872dd333088850260006040516020015260405160e060020a63ffffffff8616028152600160a060020a0393841660048201529190921660248201526044810191909152606401602060405180830381600087803b1515610a9d57600080fd5b6102c65a03f11515610aae57600080fd5b505050604051805190501515610ac057fe5b6001909201916109e3565b600160a060020a033316600090815260046020526040902054610aee9086610df5565b600160a060020a03331660009081526004602052604081209190915554610b159086610df5565b60005584600160a060020a0333167ffbd21f8762dc0c4fc0dbc03a2f816a0a617102a0f9d1908bbc09d377a0b9c6ab60405160405180910390a3506001949350505050565b600160a060020a033381166000908152600560209081526040808320938616835292905290812054610b92908363ffffffff610df516565b600160a060020a0333811660008181526005602090815260408083209489168084529490915290819020849055919290917f8c5be1e5ebec7d5bd14f71427d1e84f3dd0314c0f7b2291e5b200ac8c7c3b92591905190815260200160405180910390a350600192915050565b600160a060020a03331660009081526004602052604081205481908190819085901015610c2a57600080fd5b600092505b600854831015610d0a576008805484908110610c4757fe5b60009182526020909120015460098054600160a060020a0390921693509084908110610c6f57fe5b906000526020600020900154905081600160a060020a031663a9059cbb3387840260006040516020015260405160e060020a63ffffffff8516028152600160a060020a0390921660048301526024820152604401602060405180830381600087803b1515610cdc57600080fd5b6102c65a03f11515610ced57600080fd5b505050604051805190501515610cff57fe5b600190920191610c2f565b600160a060020a033316600090815260046020526040902054610d2d9086610de3565b600160a060020a03331660009081526004602052604081209190915554610d549086610de3565b60005584600160a060020a0333167f2de3ebe1bb56079998f2617612ba527a2690a100757600dfc0d7253c808b742960405160405180910390a3506001949350505050565b600160a060020a03918216600090815260056020908152604080832093909416825291909152205490565b6009805482908110610dd257fe5b600091825260209091200154905081565b600082821115610def57fe5b50900390565b600082820183811015610e0457fe5b9392505050565b602060405190810160405260008152905600a165627a7a723058206342d5a38e8bc3be4df3afdf41eddac49435bda64ece94949bd9dca9ed27a55a0029a165627a7a723058207343c798724c70498cd004f5932103b433678c4b7fe98b0f390dcf95672526580029",
  "source": "pragma solidity ^0.4.11;\n\nimport './external-lib/Owned.sol';\nimport './SetToken.sol';\n\n/**\n * @title {Set} Registry\n * @author Felix Feng\n * @dev Implementation of the {Set} registry.\n */\ncontract SetRegistry is Owned {\n\tstruct SetMetadata {\n\t  address set;\n\t  string name;\n\t  string symbol;\n\t  address[] tokens;\n\t  uint[] units;\n  }\n\n\tmapping (address => SetMetadata) public sets;\n\n\taddress[] public setAddresses;\n  function getSetAddresses() public constant returns(address[]) { return setAddresses; }\n\tfunction setCount() public constant returns(uint length) { return setAddresses.length; }\n\n\tmapping (string => address) setBySymbol;\n  function getSetAddressBySymbol(string symbol)\n    public\n    constant\n    returns(address setAddress) \n  {\n    return setBySymbol[symbol];\n  }\n\n  mapping (string => address) setByName;\n  function getSetAddressByName(string name)\n    public\n    constant\n    returns(address setAddress) \n  {\n    return setByName[name];\n  }\n\n\tevent SetTokenCreated(\n    address indexed sender,\n    address indexed setAddress,\n    address[] tokens,\n    uint[] units,\n    string name,\n    string symbol\n  );\n\t\n  event SetTokenRemoved(\n    address indexed sender,\n    address indexed setAddress,\n    address[] tokens,\n    uint[] units,\n    string name,\n    string symbol\n  );\n\n  modifier nameDoesNotExist(string _name) {\n    require(setByName[_name] == address(0));\n    _;\n  }\n\n  modifier symbolDoesNotExist(string _symbol) {\n    require(setBySymbol[_symbol] == address(0));\n    _;\n  }\n\n  /**\n   * @dev Constructor Function for the {Set} registry\n   */  \n\tfunction SetRegistry() {}\n\n\t/**\n   * @dev Function creates a new {Set} and add to registry\n   */  \n\tfunction create(address[] _tokens, uint[] _units, string _name, string _symbol)\n\t  public\n\t  nameDoesNotExist(_name)\n\t  symbolDoesNotExist(_symbol)\n\t  returns(address newSetTokenAddress) \n  {\n\t  // Instantiate that contract with correct input parameters\n\t  SetToken newSetToken = new SetToken(_tokens, _units, _name, _symbol);\n\t  \n\t  // Add to the list of set addresses\n\t \tsetAddresses.push(address(newSetToken));\n\n\t \t// Add to the mapping of set metadata\n\t \tsets[address(newSetToken)] = SetMetadata({\n\t \t\tset: address(newSetToken),\n\t \t\ttokens: _tokens,\n\t \t\tunits: _units,\n\t \t\tname: _name,\n\t \t\tsymbol: _symbol\n \t\t});\n\n\t  // Mark name as used by set\n\t  setByName[_name] = address(newSetToken);\n\n\t  // Mark symbol as used by set\n\t  setBySymbol[_symbol] = address(newSetToken);\n\n\t  // Log contract creation\n\t  SetTokenCreated(msg.sender, newSetToken, _tokens, _units, _name, _symbol);\n\n\t  return newSetToken;\n\t}\n\n\t/**\n   * @dev Function remove a {Set} from the registry\n   */  \n\tfunction remove(address _set, uint _setAddressIndex)\n\t\tpublic\n\t\tfromOwner\n\t\treturns(bool success)\n\t{\n\t\trequire(_set == setAddresses[_setAddressIndex]);\n\n\t\tSetMetadata storage set = sets[_set];\n\n    SetTokenRemoved(\n      msg.sender,\n      _set,\n      set.tokens,\n      set.units,\n      set.name,\n      set.symbol\n    );\n\n\t\t// Unmark symbol as used\n\t\tdelete setByName[set.name];\n\n\t\t// Unmark name as used\n\t\tdelete setBySymbol[set.symbol];\n\n    // Remove from metadata\n    delete sets[_set];\n\n\t\t// Remove from array of set addresses\n\t\tsetAddresses[_setAddressIndex] = setAddresses[setAddresses.length - 1];\n\t\tsetAddresses.length -= 1;\n\n\t\treturn true;\n\t}\n\n\t/**\n   * @dev Gets a list of set metadata using a set address\n   */  \n\tfunction getSetMetadata(address _set) \n\t\tpublic\n\t\tconstant\n\t\treturns(\n\t\t  address, // set address\n\t\t  string, // name;\n\t\t  string, // symbol;\n\t\t  address[], // component tokens;\n\t\t  uint[] // component units;\t\t\t\n\t\t) \n\t{\n\t\tSetMetadata memory set = sets[_set];\n\t\treturn (\n\t\t\tset.set,\n\t\t\tset.name,\n\t\t\tset.symbol,\n\t\t\tset.tokens,\n\t\t\tset.units\n\t\t);\n\t}\n}\n",
  "sourcePath": "/Users/felixfeng/Dapps/set-internal-contracts/contracts/SetRegistry.sol",
  "schemaVersion": "1.0.0",
  "updatedAt": "2017-12-07T01:04:20.949Z"
}