{
  "contractName": "SetRegistry",
  "abi": [
    {
      "constant": true,
      "inputs": [
        {
          "name": "_set",
          "type": "address"
        }
      ],
      "name": "getSetMetadata",
      "outputs": [
        {
          "name": "",
          "type": "address"
        },
        {
          "name": "",
          "type": "string"
        },
        {
          "name": "",
          "type": "string"
        }
      ],
      "payable": false,
      "stateMutability": "view",
      "type": "function"
    },
    {
      "constant": false,
      "inputs": [
        {
          "name": "_set",
          "type": "address"
        },
        {
          "name": "name",
          "type": "string"
        },
        {
          "name": "symbol",
          "type": "string"
        }
      ],
      "name": "add",
      "outputs": [
        {
          "name": "success",
          "type": "bool"
        }
      ],
      "payable": false,
      "stateMutability": "nonpayable",
      "type": "function"
    },
    {
      "constant": true,
      "inputs": [
        {
          "name": "",
          "type": "uint256"
        }
      ],
      "name": "setAddresses",
      "outputs": [
        {
          "name": "",
          "type": "address"
        }
      ],
      "payable": false,
      "stateMutability": "view",
      "type": "function"
    },
    {
      "constant": true,
      "inputs": [
        {
          "name": "",
          "type": "address"
        }
      ],
      "name": "sets",
      "outputs": [
        {
          "name": "set",
          "type": "address"
        },
        {
          "name": "name",
          "type": "string"
        },
        {
          "name": "symbol",
          "type": "string"
        }
      ],
      "payable": false,
      "stateMutability": "view",
      "type": "function"
    },
    {
      "constant": true,
      "inputs": [
        {
          "name": "symbol",
          "type": "string"
        }
      ],
      "name": "getSetAddressBySymbol",
      "outputs": [
        {
          "name": "setAddress",
          "type": "address"
        }
      ],
      "payable": false,
      "stateMutability": "view",
      "type": "function"
    },
    {
      "constant": true,
      "inputs": [],
      "name": "owner",
      "outputs": [
        {
          "name": "",
          "type": "address"
        }
      ],
      "payable": false,
      "stateMutability": "view",
      "type": "function"
    },
    {
      "constant": false,
      "inputs": [
        {
          "name": "_tokens",
          "type": "address[]"
        },
        {
          "name": "_units",
          "type": "uint256[]"
        },
        {
          "name": "_name",
          "type": "string"
        },
        {
          "name": "_symbol",
          "type": "string"
        }
      ],
      "name": "create",
      "outputs": [
        {
          "name": "newSetTokenAddress",
          "type": "address"
        }
      ],
      "payable": false,
      "stateMutability": "nonpayable",
      "type": "function"
    },
    {
      "constant": true,
      "inputs": [],
      "name": "getSetAddresses",
      "outputs": [
        {
          "name": "",
          "type": "address[]"
        }
      ],
      "payable": false,
      "stateMutability": "view",
      "type": "function"
    },
    {
      "constant": false,
      "inputs": [
        {
          "name": "_set",
          "type": "address"
        },
        {
          "name": "_setAddressIndex",
          "type": "uint256"
        }
      ],
      "name": "remove",
      "outputs": [
        {
          "name": "success",
          "type": "bool"
        }
      ],
      "payable": false,
      "stateMutability": "nonpayable",
      "type": "function"
    },
    {
      "constant": true,
      "inputs": [
        {
          "name": "name",
          "type": "string"
        }
      ],
      "name": "getSetAddressByName",
      "outputs": [
        {
          "name": "setAddress",
          "type": "address"
        }
      ],
      "payable": false,
      "stateMutability": "view",
      "type": "function"
    },
    {
      "constant": false,
      "inputs": [
        {
          "name": "newOwner",
          "type": "address"
        }
      ],
      "name": "transferOwnership",
      "outputs": [],
      "payable": false,
      "stateMutability": "nonpayable",
      "type": "function"
    },
    {
      "constant": true,
      "inputs": [],
      "name": "setCount",
      "outputs": [
        {
          "name": "length",
          "type": "uint256"
        }
      ],
      "payable": false,
      "stateMutability": "view",
      "type": "function"
    },
    {
      "anonymous": false,
      "inputs": [
        {
          "indexed": true,
          "name": "sender",
          "type": "address"
        },
        {
          "indexed": true,
          "name": "setAddress",
          "type": "address"
        },
        {
          "indexed": false,
          "name": "name",
          "type": "string"
        },
        {
          "indexed": false,
          "name": "symbol",
          "type": "string"
        }
      ],
      "name": "SetTokenCreated",
      "type": "event"
    },
    {
      "anonymous": false,
      "inputs": [
        {
          "indexed": true,
          "name": "sender",
          "type": "address"
        },
        {
          "indexed": true,
          "name": "setAddress",
          "type": "address"
        },
        {
          "indexed": false,
          "name": "name",
          "type": "string"
        },
        {
          "indexed": false,
          "name": "symbol",
          "type": "string"
        }
      ],
      "name": "SetTokenAdded",
      "type": "event"
    },
    {
      "anonymous": false,
      "inputs": [
        {
          "indexed": true,
          "name": "sender",
          "type": "address"
        },
        {
          "indexed": true,
          "name": "setAddress",
          "type": "address"
        },
        {
          "indexed": false,
          "name": "name",
          "type": "string"
        },
        {
          "indexed": false,
          "name": "symbol",
          "type": "string"
        }
      ],
      "name": "SetTokenRemoved",
      "type": "event"
    },
    {
      "anonymous": false,
      "inputs": [
        {
          "indexed": true,
          "name": "previousOwner",
          "type": "address"
        },
        {
          "indexed": true,
          "name": "newOwner",
          "type": "address"
        }
      ],
      "name": "OwnershipTransferred",
      "type": "event"
    }
  ],
  "bytecode": "0x606060405260008054600160a060020a033316600160a060020a0319909116179055612c4b806100306000396000f300606060405260043610620000c65763ffffffff7c010000000000000000000000000000000000000000000000000000000060003504166301304a4f8114620000cb57806346bc7fd914620001e45780636e7f096e146200029c5780636ef49f6414620002d157806377b96551146200040e5780638da5cb5b1462000462578063920d008614620004785780639eff34b4146200058e578063abe7f1ab14620005f9578063d9cbfd59146200061e578063f2fde38b1462000672578063f3922ca21462000696575b600080fd5b3415620000d757600080fd5b620000ed600160a060020a0360043516620006be565b604051600160a060020a0384168152606060208201818152906040830190830185818151815260200191508051906020019080838360005b838110156200013f57808201518382015260200162000125565b50505050905090810190601f1680156200016d5780820380516001836020036101000a031916815260200191505b50838103825284818151815260200191508051906020019080838360005b83811015620001a55780820151838201526020016200018b565b50505050905090810190601f168015620001d35780820380516001836020036101000a031916815260200191505b509550505050505060405180910390f35b3415620001f057600080fd5b6200028860048035600160a060020a03169060446024803590810190830135806020601f8201819004810201604051908101604052818152929190602084018383808284378201915050505050509190803590602001908201803590602001908080601f0160208091040260200160405190810160405281815292919060208401838380828437509496506200089e95505050505050565b604051901515815260200160405180910390f35b3415620002a857600080fd5b620002b560043562000cb0565b604051600160a060020a03909116815260200160405180910390f35b3415620002dd57600080fd5b620002f3600160a060020a036004351662000cd9565b604051600160a060020a0384168152606060208201818152845460026000196101006001841615020190911604918301829052906040830190608084019086908015620003845780601f10620003585761010080835404028352916020019162000384565b820191906000526020600020905b8154815290600101906020018083116200036657829003601f168201915b5050838103825284546002600019610100600184161502019091160480825260209091019085908015620003fc5780601f10620003d057610100808354040283529160200191620003fc565b820191906000526020600020905b815481529060010190602001808311620003de57829003601f168201915b50509550505050505060405180910390f35b34156200041a57600080fd5b620002b560046024813581810190830135806020601f8201819004810201604051908101604052818152929190602084018383808284375094965062000cff95505050505050565b34156200046e57600080fd5b620002b562000d79565b34156200048457600080fd5b620002b560046024813581810190830135806020818102016040519081016040528093929190818152602001838360200280828437820191505050505050919080359060200190820180359060200190808060200260200160405190810160405280939291908181526020018383602002808284378201915050505050509190803590602001908201803590602001908080601f01602080910402602001604051908101604052818152929190602084018383808284378201915050505050509190803590602001908201803590602001908080601f01602080910402602001604051908101604052818152929190602084018383808284375094965062000d8895505050505050565b34156200059a57600080fd5b620005a462001306565b60405160208082528190810183818151815260200191508051906020019060200280838360005b83811015620005e5578082015183820152602001620005cb565b505050509050019250505060405180910390f35b34156200060557600080fd5b62000288600160a060020a036004351660243562001373565b34156200062a57600080fd5b620002b560046024813581810190830135806020601f820181900481020160405190810160405281815292919060208401838380828437509496506200185095505050505050565b34156200067e57600080fd5b62000694600160a060020a036004351662001885565b005b3415620006a257600080fd5b620006ac62001915565b60405190815260200160405180910390f35b6000620006ca6200191b565b620006d46200191b565b620006de6200192d565b600160a060020a03851660009081526002602052604090819020906060905190810160405290816000820160009054906101000a9004600160a060020a0316600160a060020a0316600160a060020a03168152602001600182018054600181600116156101000203166002900480601f016020809104026020016040519081016040528092919081815260200182805460018160011615610100020316600290048015620007d05780601f10620007a457610100808354040283529160200191620007d0565b820191906000526020600020905b815481529060010190602001808311620007b257829003601f168201915b50505050508152602001600282018054600181600116156101000203166002900480601f016020809104026020016040519081016040528092919081815260200182805460018160011615610100020316600290048015620008765780601f106200084a5761010080835404028352916020019162000876565b820191906000526020600020905b8154815290600101906020018083116200085857829003601f168201915b5050505050815250509050806000015181602001518260400151919790965090945092505050565b600082816004826040518082805190602001908083835b60208310620008d65780518252601f199092019160209182019101620008b5565b6001836020036101000a03801982511681845116808217855250505050505090500191505090815260200160405190819003902054600160a060020a0316146200091f57600080fd5b8260006003826040518082805190602001908083835b60208310620009565780518252601f19909201916020918201910162000935565b6001836020036101000a03801982511681845116808217855250505050505090500191505090815260200160405190819003902054600160a060020a0316146200099f57600080fd5b600160a060020a0380871660009081526002602052604090205487911615620009c757600080fd5b60018054808201620009da83826200195e565b5060009182526020909120018054600160a060020a031916600160a060020a03891617905560606040519081016040908152600160a060020a03891680835260208084018a90528284018990526000918252600290522081518154600160a060020a031916600160a060020a039190911617815560208201518160010190805162000a6a9291602001906200198a565b5060408201518160020190805162000a879291602001906200198a565b50905050866004876040518082805190602001908083835b6020831062000ac05780518252601f19909201916020918201910162000a9f565b6001836020036101000a0380198251168184511680821785525050505050509050019150509081526020016040519081900390208054600160a060020a031916600160a060020a0392909216919091179055866003866040518082805190602001908083835b6020831062000b475780518252601f19909201916020918201910162000b26565b6001836020036101000a0380198251168184511680821785525050505050509050019150509081526020016040519081900390208054600160a060020a031916600160a060020a039283161790558781169033167e7daa8b19a37c4050f45e8745396381f3feb1207079ea81fbaecc4de19d359a8888604051808060200180602001838103835285818151815260200191508051906020019080838360005b8381101562000c0057808201518382015260200162000be6565b50505050905090810190601f16801562000c2e5780820380516001836020036101000a031916815260200191505b50838103825284818151815260200191508051906020019080838360005b8381101562000c6657808201518382015260200162000c4c565b50505050905090810190601f16801562000c945780820380516001836020036101000a031916815260200191505b5094505050505060405180910390a35060019695505050505050565b600180548290811062000cbf57fe5b600091825260209091200154600160a060020a0316905081565b60026020819052600091825260409091208054600160a060020a03169160018201910183565b60006003826040518082805190602001908083835b6020831062000d355780518252601f19909201916020918201910162000d14565b6001836020036101000a03801982511681845116808217855250505050505090500191505090815260200160405190819003902054600160a060020a031692915050565b600054600160a060020a031681565b60008083816004826040518082805190602001908083835b6020831062000dc15780518252601f19909201916020918201910162000da0565b6001836020036101000a03801982511681845116808217855250505050505090500191505090815260200160405190819003902054600160a060020a03161462000e0a57600080fd5b8360006003826040518082805190602001908083835b6020831062000e415780518252601f19909201916020918201910162000e20565b6001836020036101000a03801982511681845116808217855250505050505090500191505090815260200160405190819003902054600160a060020a03161462000e8a57600080fd5b8787878762000e9862001a0f565b8080602001806020018060200180602001858103855289818151815260200191508051906020019060200280838360005b8381101562000ee357808201518382015260200162000ec9565b50505050905001858103845288818151815260200191508051906020019060200280838360005b8381101562000f2457808201518382015260200162000f0a565b50505050905001858103835287818151815260200191508051906020019080838360005b8381101562000f6257808201518382015260200162000f48565b50505050905090810190601f16801562000f905780820380516001836020036101000a031916815260200191505b50858103825286818151815260200191508051906020019080838360005b8381101562000fc857808201518382015260200162000fae565b50505050905090810190601f16801562000ff65780820380516001836020036101000a031916815260200191505b5098505050505050505050604051809103906000f08015156200101857600080fd5b9250600180548060010182816200103091906200195e565b5060009182526020909120018054600160a060020a031916600160a060020a03851617905560606040519081016040908152600160a060020a03851680835260208084018a90528284018990526000918252600290522081518154600160a060020a031916600160a060020a0391909116178155602082015181600101908051620010c09291602001906200198a565b50604082015181600201908051620010dd9291602001906200198a565b50905050826004876040518082805190602001908083835b60208310620011165780518252601f199092019160209182019101620010f5565b6001836020036101000a0380198251168184511680821785525050505050509050019150509081526020016040519081900390208054600160a060020a031916600160a060020a0392909216919091179055826003866040518082805190602001908083835b602083106200119d5780518252601f1990920191602091820191016200117c565b6001836020036101000a0380198251168184511680821785525050505050509050019150509081526020016040519081900390208054600160a060020a031916600160a060020a039283161790558381169033167fb7b1e89d4bb640b93b0cb96b27077ceb558d073e00531c0a712a4afc9ccf06fe8888604051808060200180602001838103835285818151815260200191508051906020019080838360005b83811015620012575780820151838201526020016200123d565b50505050905090810190601f168015620012855780820380516001836020036101000a031916815260200191505b50838103825284818151815260200191508051906020019080838360005b83811015620012bd578082015183820152602001620012a3565b50505050905090810190601f168015620012eb5780820380516001836020036101000a031916815260200191505b5094505050505060405180910390a350909695505050505050565b620013106200191b565b60018054806020026020016040519081016040528092919081815260200182805480156200136857602002820191906000526020600020905b8154600160a060020a0316815260019091019060200180831162001349575b505050505090505b90565b60006200137f6200192d565b60005433600160a060020a039081169116146200139b57600080fd5b6001805484908110620013aa57fe5b600091825260209091200154600160a060020a03858116911614620013ce57600080fd5b600160a060020a03841660009081526002602052604090819020906060905190810160405290816000820160009054906101000a9004600160a060020a0316600160a060020a0316600160a060020a03168152602001600182018054600181600116156101000203166002900480601f016020809104026020016040519081016040528092919081815260200182805460018160011615610100020316600290048015620014c05780601f106200149457610100808354040283529160200191620014c0565b820191906000526020600020905b815481529060010190602001808311620014a257829003601f168201915b50505050508152602001600282018054600181600116156101000203166002900480601f016020809104026020016040519081016040528092919081815260200182805460018160011615610100020316600290048015620015665780601f106200153a5761010080835404028352916020019162001566565b820191906000526020600020905b8154815290600101906020018083116200154857829003601f168201915b505050505081525050905083600160a060020a031633600160a060020a03167f8c0549cd7c150e0ebb3086c88a820e1b42db9c827e3d24883f6a945b647b4ada83602001518460400151604051808060200180602001838103835285818151815260200191508051906020019080838360005b83811015620015f3578082015183820152602001620015d9565b50505050905090810190601f168015620016215780820380516001836020036101000a031916815260200191505b50838103825284818151815260200191508051906020019080838360005b83811015620016595780820151838201526020016200163f565b50505050905090810190601f168015620016875780820380516001836020036101000a031916815260200191505b5094505050505060405180910390a3600481602001516040518082805190602001908083835b60208310620016ce5780518252601f199092019160209182019101620016ad565b6001836020036101000a0380198251168184511680821785525050505050509050019150509081526020016040519081900390208054600160a060020a0319169055600360408201516040518082805190602001908083835b60208310620017485780518252601f19909201916020918201910162001727565b6001836020036101000a0380198251168184511680821785525050505050509050019150509081526020016040519081900390208054600160a060020a0319908116909155600160a060020a038516600090815260026020526040812080549092168255620017bb600183018262001a20565b620017cb60028301600062001a20565b5050600180546000198101908110620017e057fe5b60009182526020909120015460018054600160a060020a0390921691859081106200180757fe5b60009182526020909120018054600160a060020a031916600160a060020a03929092169190911790556001805460001901906200184590826200195e565b506001949350505050565b60006004826040518082805190602001908083836020831062000d355780518252601f19909201916020918201910162000d14565b60005433600160a060020a03908116911614620018a157600080fd5b600160a060020a0381161515620018b757600080fd5b600054600160a060020a0380831691167f8be0079c531659141344cd1fd0a4f28419497f9722a3daafe3b4186f6b6457e060405160405180910390a360008054600160a060020a031916600160a060020a0392909216919091179055565b60015490565b60206040519081016040526000815290565b606060405190810160405260008152602081016200194a6200191b565b8152602001620019596200191b565b905290565b81548183558181151162001985576000838152602090206200198591810190830162001a6b565b505050565b828054600181600116156101000203166002900490600052602060002090601f016020900481019282601f10620019cd57805160ff1916838001178555620019fd565b82800160010185558215620019fd579182015b82811115620019fd578251825591602001919060010190620019e0565b5062001a0b92915062001a6b565b5090565b6040516111978062001a8983390190565b50805460018160011615610100020316600290046000825580601f1062001a48575062001a68565b601f01602090049060005260206000209081019062001a68919062001a6b565b50565b6200137091905b8082111562001a0b576000815560010162001a725600606060405234156200001057600080fd5b60405162001197380380620011978339810160405280805182019190602001805182019190602001805182019190602001805190910190506000808060206040519081016040528060008152506020604051908101604052600081526012600383805162000083929160200190620001b4565b50600482805162000099929160200190620001b4565b506005805460ff191660ff929092169190911790555060009050875111620000c057600080fd5b6000865111620000cf57600080fd5b8551875114620000de57600080fd5b600092505b85518310156200014f57858381518110620000fa57fe5b906020019060200201519150600082116200011457600080fd5b8683815181106200012157fe5b906020019060200201519050600160a060020a03811615156200014357600080fd5b600190920191620000e3565b60078780516200016492916020019062000239565b5060088680516200017a929160200190620002a1565b50600385805162000190929160200190620001b4565b506004848051620001a6929160200190620001b4565b505050505050505062000325565b828054600181600116156101000203166002900490600052602060002090601f016020900481019282601f10620001f757805160ff191683800117855562000227565b8280016001018555821562000227579182015b82811115620002275782518255916020019190600101906200020a565b5062000235929150620002de565b5090565b82805482825590600052602060002090810192821562000293579160200282015b82811115620002935782518254600160a060020a031916600160a060020a0391909116178255602092909201916001909101906200025a565b5062000235929150620002fe565b828054828255906000526020600020908101928215620002275791602002820182811115620002275782518255916020019190600101906200020a565b620002fb91905b80821115620002355760008155600101620002e5565b90565b620002fb91905b8082111562000235578054600160a060020a031916815560010162000305565b610e6280620003356000396000f3006060604052600436106100e25763ffffffff60e060020a600035041663027aa9f581146100e757806306fdde031461014d578063095ea7b3146101d757806318160ddd1461020d57806323b872dd14610232578063313ce5671461025a5780634f64b2be1461028357806366188463146102b557806370a08231146102d757806395d89b41146102f65780639f181b5e14610309578063a9059cbb1461031c578063aa6ca8081461033e578063cc872b6614610351578063d73dd62314610367578063db006a7514610389578063dd62ed3e1461039f578063e5fba6cc146103c4575b600080fd5b34156100f257600080fd5b6100fa6103da565b60405160208082528190810183818151815260200191508051906020019060200280838360005b83811015610139578082015183820152602001610121565b505050509050019250505060405180910390f35b341561015857600080fd5b610160610438565b60405160208082528190810183818151815260200191508051906020019080838360005b8381101561019c578082015183820152602001610184565b50505050905090810190601f1680156101c95780820380516001836020036101000a031916815260200191505b509250505060405180910390f35b34156101e257600080fd5b6101f9600160a060020a03600435166024356104d6565b604051901515815260200160405180910390f35b341561021857600080fd5b610220610542565b60405190815260200160405180910390f35b341561023d57600080fd5b6101f9600160a060020a0360043581169060243516604435610548565b341561026557600080fd5b61026d6106c8565b60405160ff909116815260200160405180910390f35b341561028e57600080fd5b6102996004356106d1565b604051600160a060020a03909116815260200160405180910390f35b34156102c057600080fd5b6101f9600160a060020a03600435166024356106f9565b34156102e257600080fd5b610220600160a060020a03600435166107f3565b341561030157600080fd5b61016061080e565b341561031457600080fd5b610220610879565b341561032757600080fd5b6101f9600160a060020a036004351660243561087f565b341561034957600080fd5b6100fa610991565b341561035c57600080fd5b6101f96004356109f8565b341561037257600080fd5b6101f9600160a060020a0360043516602435610b74565b341561039457600080fd5b6101f9600435610c18565b34156103aa57600080fd5b610220600160a060020a0360043581169060243516610db2565b34156103cf57600080fd5b610220600435610ddd565b6103e2610e24565b600880548060200260200160405190810160405280929190818152602001828054801561042e57602002820191906000526020600020905b81548152602001906001019080831161041a575b5050505050905090565b60038054600181600116156101000203166002900480601f0160208091040260200160405190810160405280929190818152602001828054600181600116156101000203166002900480156104ce5780601f106104a3576101008083540402835291602001916104ce565b820191906000526020600020905b8154815290600101906020018083116104b157829003601f168201915b505050505081565b600160a060020a03338116600081815260026020908152604080832094871680845294909152808220859055909291907f8c5be1e5ebec7d5bd14f71427d1e84f3dd0314c0f7b2291e5b200ac8c7c3b9259085905190815260200160405180910390a350600192915050565b60065481565b6000600160a060020a038316151561055f57600080fd5b600160a060020a03841660009081526020819052604090205482111561058457600080fd5b600160a060020a03808516600090815260026020908152604080832033909416835292905220548211156105b757600080fd5b600160a060020a0384166000908152602081905260409020546105e0908363ffffffff610dfc16565b600160a060020a038086166000908152602081905260408082209390935590851681522054610615908363ffffffff610e0e16565b600160a060020a038085166000908152602081815260408083209490945587831682526002815283822033909316825291909152205461065b908363ffffffff610dfc16565b600160a060020a03808616600081815260026020908152604080832033861684529091529081902093909355908516917fddf252ad1be2c89b69c2b068fc378daa952ba7f163c4a11628f55a4df523b3ef9085905190815260200160405180910390a35060019392505050565b60055460ff1681565b60078054829081106106df57fe5b600091825260209091200154600160a060020a0316905081565b600160a060020a0333811660009081526002602090815260408083209386168352929052908120548083111561075657600160a060020a03338116600090815260026020908152604080832093881683529290529081205561078d565b610766818463ffffffff610dfc16565b600160a060020a033381166000908152600260209081526040808320938916835292905220555b600160a060020a0333811660008181526002602090815260408083209489168084529490915290819020547f8c5be1e5ebec7d5bd14f71427d1e84f3dd0314c0f7b2291e5b200ac8c7c3b925915190815260200160405180910390a35060019392505050565b600160a060020a031660009081526020819052604090205490565b60048054600181600116156101000203166002900480601f0160208091040260200160405190810160405280929190818152602001828054600181600116156101000203166002900480156104ce5780601f106104a3576101008083540402835291602001916104ce565b60075490565b6000600160a060020a038316151561089657600080fd5b600160a060020a0333166000908152602081905260409020548211156108bb57600080fd5b600160a060020a0333166000908152602081905260409020546108e4908363ffffffff610dfc16565b600160a060020a033381166000908152602081905260408082209390935590851681522054610919908363ffffffff610e0e16565b60008085600160a060020a0316600160a060020a031681526020019081526020016000208190555082600160a060020a031633600160a060020a03167fddf252ad1be2c89b69c2b068fc378daa952ba7f163c4a11628f55a4df523b3ef8460405190815260200160405180910390a350600192915050565b610999610e24565b600780548060200260200160405190810160405280929190818152602001828054801561042e57602002820191906000526020600020905b8154600160a060020a031681526001909101906020018083116109d1575050505050905090565b60008080805b600754831015610ae6576007805484908110610a1657fe5b60009182526020909120015460088054600160a060020a0390921693509084908110610a3e57fe5b906000526020600020900154905081600160a060020a03166323b872dd333088850260006040516020015260405160e060020a63ffffffff8616028152600160a060020a0393841660048201529190921660248201526044810191909152606401602060405180830381600087803b1515610ab857600080fd5b6102c65a03f11515610ac957600080fd5b505050604051805190501515610adb57fe5b6001909201916109fe565b600160a060020a033316600090815260208190526040902054610b099086610e0e565b600160a060020a033316600090815260208190526040902055600654610b2f9086610e0e565b60065584600160a060020a0333167ffbd21f8762dc0c4fc0dbc03a2f816a0a617102a0f9d1908bbc09d377a0b9c6ab60405160405180910390a3506001949350505050565b600160a060020a033381166000908152600260209081526040808320938616835292905290812054610bac908363ffffffff610e0e16565b600160a060020a0333811660008181526002602090815260408083209489168084529490915290819020849055919290917f8c5be1e5ebec7d5bd14f71427d1e84f3dd0314c0f7b2291e5b200ac8c7c3b92591905190815260200160405180910390a350600192915050565b600160a060020a03331660009081526020819052604081205481908190819085901015610c4457600080fd5b600160a060020a033316600090815260208190526040902054610c679086610dfc565b600160a060020a033316600090815260208190526040902055600654610c8d9086610dfc565b600655600092505b600754831015610d70576007805484908110610cad57fe5b60009182526020909120015460088054600160a060020a0390921693509084908110610cd557fe5b906000526020600020900154905081600160a060020a031663a9059cbb3387840260006040516020015260405160e060020a63ffffffff8516028152600160a060020a0390921660048301526024820152604401602060405180830381600087803b1515610d4257600080fd5b6102c65a03f11515610d5357600080fd5b505050604051805190501515610d6557fe5b600190920191610c95565b8433600160a060020a03167f2de3ebe1bb56079998f2617612ba527a2690a100757600dfc0d7253c808b742960405160405180910390a3506001949350505050565b600160a060020a03918216600090815260026020908152604080832093909416825291909152205490565b6008805482908110610deb57fe5b600091825260209091200154905081565b600082821115610e0857fe5b50900390565b600082820183811015610e1d57fe5b9392505050565b602060405190810160405260008152905600a165627a7a723058208355d51e6c50a0c21f1f48999df670bf20438d89d668ea150a941923b9f9a0980029a165627a7a72305820f4ebed602c332faa0c7c807d4f739e09d3a1191b3e42d05c53a22c7fe4ec89b30029",
  "source": "pragma solidity 0.4.18;\n\n\nimport \"zeppelin-solidity/contracts/ownership/Ownable.sol\";\nimport \"./SetToken.sol\";\n\n\n/**\n * @title {Set} Registry\n * @author Felix Feng\n * @dev Implementation of the {Set} registry.\n */\ncontract SetRegistry is Ownable {\n  struct SetMetadata {\n    address set;\n    string name;\n    string symbol;\n  }\n\n  address[] public setAddresses;\n\n  mapping (address => SetMetadata) public sets;\n  mapping (string => address) internal setAddressBySymbol;\n  mapping (string => address) internal setAddressByName;\n\n  event SetTokenCreated(\n    address indexed sender,\n    address indexed setAddress,\n    string name,\n    string symbol\n  );\n\n  event SetTokenAdded(\n    address indexed sender,\n    address indexed setAddress,\n    string name,\n    string symbol\n  );\n\n  event SetTokenRemoved(\n    address indexed sender,\n    address indexed setAddress,\n    string name,\n    string symbol\n  );\n\n  modifier nameDoesNotExist(string _name) {\n    require(setAddressByName[_name] == address(0));\n    _;\n  }\n\n  modifier symbolDoesNotExist(string _symbol) {\n    require(setAddressBySymbol[_symbol] == address(0));\n    _;\n  }\n\n  modifier setDoesNotExist(address set) {\n    require(sets[set].set == address(0));\n    _;\n  }\n\n  /**\n   * @dev Function creates a new {Set} and add to registry\n   */\n  function create(address[] _tokens, uint[] _units, string _name, string _symbol)\n    public\n    nameDoesNotExist(_name)\n    symbolDoesNotExist(_symbol)\n    returns(address newSetTokenAddress)\n  {\n    // Instantiate that contract with correct input parameters\n    SetToken newSetToken = new SetToken(_tokens, _units, _name, _symbol);\n\n    // Add to the list of set addresses\n    setAddresses.push(address(newSetToken));\n\n    // Add to the mapping of set metadata\n    sets[address(newSetToken)] = SetMetadata({\n      set: address(newSetToken),\n      name: _name,\n      symbol: _symbol\n    });\n\n    // Mark name as used by set\n    setAddressByName[_name] = address(newSetToken);\n\n    // Mark symbol as used by set\n    setAddressBySymbol[_symbol] = address(newSetToken);\n\n    // Log contract creation\n    SetTokenCreated(msg.sender, newSetToken, _name, _symbol);\n\n    return newSetToken;\n  }\n\n  /**\n   * @dev Function adds an existing {Set} to the registry\n   */\n  function add(address _set, string name, string symbol)\n    public\n    nameDoesNotExist(name)\n    symbolDoesNotExist(symbol)\n    setDoesNotExist(_set)\n    returns (bool success)\n  {\n    setAddresses.push(_set);\n    sets[_set] = SetMetadata({\n      set: _set,\n      name: name,\n      symbol: symbol\n    });\n\n    setAddressByName[name] = _set;\n    setAddressBySymbol[symbol] = _set;\n\n    SetTokenAdded(msg.sender, _set, name, symbol);\n\n    return true;\n  }\n\n  /**\n   * @dev Function remove a {Set} from the registry\n   */\n  function remove(address _set, uint _setAddressIndex)\n    public\n    onlyOwner\n    returns(bool success)\n  {\n    require(_set == setAddresses[_setAddressIndex]);\n\n    SetMetadata memory set = sets[_set];\n\n    SetTokenRemoved(\n      msg.sender,\n      _set,\n      set.name,\n      set.symbol\n    );\n\n    // Unmark symbol as used\n    delete setAddressByName[set.name];\n\n    // Unmark name as used\n    delete setAddressBySymbol[set.symbol];\n\n    // Remove from metadata\n    delete sets[_set];\n\n    // Remove from array of set addresses\n    setAddresses[_setAddressIndex] = setAddresses[setAddresses.length - 1];\n    setAddresses.length -= 1;\n\n    return true;\n  }\n\n  function getSetAddresses() public view returns(address[]) {\n    return setAddresses;\n  }\n\n  function setCount() public view returns(uint length) {\n    return setAddresses.length;\n  }\n\n  function getSetAddressBySymbol(string symbol)\n    public\n    view\n    returns(address setAddress)\n  {\n    return setAddressBySymbol[symbol];\n  }\n\n  function getSetAddressByName(string name)\n    public\n    view\n    returns(address setAddress)\n  {\n    return setAddressByName[name];\n  }\n\n  /**\n   * @dev Gets a list of set metadata using a set address\n   */\n  function getSetMetadata(address _set)\n    public\n    view\n    returns(\n      address, // set address\n      string, // name;\n      string // symbol;\n    )\n  {\n    SetMetadata memory set = sets[_set];\n    return (\n      set.set,\n      set.name,\n      set.symbol\n    );\n  }\n}\n",
  "sourcePath": "/Users/justinkchen/workspace/set-internal-contracts/contracts/SetRegistry.sol",
  "compiler": {
    "name": "solc",
    "version": "0.4.18+commit.9cf6e910.Emscripten.clang"
  },
  "schemaVersion": "1.0.1",
  "updatedAt": "2018-02-17T08:48:42.737Z"
}