{
  "contractName": "SetToken",
  "abi": [
    {
      "constant": true,
      "inputs": [],
      "name": "getUnits",
      "outputs": [
        {
          "name": "",
          "type": "uint256[]"
        }
      ],
      "payable": false,
      "stateMutability": "view",
      "type": "function"
    },
    {
      "constant": true,
      "inputs": [],
      "name": "name",
      "outputs": [
        {
          "name": "",
          "type": "string"
        }
      ],
      "payable": false,
      "stateMutability": "view",
      "type": "function"
    },
    {
      "constant": false,
      "inputs": [
        {
          "name": "_spender",
          "type": "address"
        },
        {
          "name": "_value",
          "type": "uint256"
        }
      ],
      "name": "approve",
      "outputs": [
        {
          "name": "",
          "type": "bool"
        }
      ],
      "payable": false,
      "stateMutability": "nonpayable",
      "type": "function"
    },
    {
      "constant": true,
      "inputs": [],
      "name": "totalSupply",
      "outputs": [
        {
          "name": "",
          "type": "uint256"
        }
      ],
      "payable": false,
      "stateMutability": "view",
      "type": "function"
    },
    {
      "constant": false,
      "inputs": [
        {
          "name": "_from",
          "type": "address"
        },
        {
          "name": "_to",
          "type": "address"
        },
        {
          "name": "_value",
          "type": "uint256"
        }
      ],
      "name": "transferFrom",
      "outputs": [
        {
          "name": "",
          "type": "bool"
        }
      ],
      "payable": false,
      "stateMutability": "nonpayable",
      "type": "function"
    },
    {
      "constant": true,
      "inputs": [
        {
          "name": "",
          "type": "address"
        }
      ],
      "name": "balances",
      "outputs": [
        {
          "name": "",
          "type": "uint256"
        }
      ],
      "payable": false,
      "stateMutability": "view",
      "type": "function"
    },
    {
      "constant": true,
      "inputs": [],
      "name": "decimals",
      "outputs": [
        {
          "name": "",
          "type": "uint8"
        }
      ],
      "payable": false,
      "stateMutability": "view",
      "type": "function"
    },
    {
      "constant": true,
      "inputs": [
        {
          "name": "",
          "type": "uint256"
        }
      ],
      "name": "tokens",
      "outputs": [
        {
          "name": "",
          "type": "address"
        }
      ],
      "payable": false,
      "stateMutability": "view",
      "type": "function"
    },
    {
      "constant": false,
      "inputs": [
        {
          "name": "_spender",
          "type": "address"
        },
        {
          "name": "_subtractedValue",
          "type": "uint256"
        }
      ],
      "name": "decreaseApproval",
      "outputs": [
        {
          "name": "success",
          "type": "bool"
        }
      ],
      "payable": false,
      "stateMutability": "nonpayable",
      "type": "function"
    },
    {
      "constant": true,
      "inputs": [
        {
          "name": "_owner",
          "type": "address"
        }
      ],
      "name": "balanceOf",
      "outputs": [
        {
          "name": "balance",
          "type": "uint256"
        }
      ],
      "payable": false,
      "stateMutability": "view",
      "type": "function"
    },
    {
      "constant": true,
      "inputs": [],
      "name": "symbol",
      "outputs": [
        {
          "name": "",
          "type": "string"
        }
      ],
      "payable": false,
      "stateMutability": "view",
      "type": "function"
    },
    {
      "constant": true,
      "inputs": [],
      "name": "tokenCount",
      "outputs": [
        {
          "name": "tokensLength",
          "type": "uint256"
        }
      ],
      "payable": false,
      "stateMutability": "view",
      "type": "function"
    },
    {
      "constant": false,
      "inputs": [
        {
          "name": "_to",
          "type": "address"
        },
        {
          "name": "_value",
          "type": "uint256"
        }
      ],
      "name": "transfer",
      "outputs": [
        {
          "name": "",
          "type": "bool"
        }
      ],
      "payable": false,
      "stateMutability": "nonpayable",
      "type": "function"
    },
    {
      "constant": true,
      "inputs": [],
      "name": "getTokens",
      "outputs": [
        {
          "name": "",
          "type": "address[]"
        }
      ],
      "payable": false,
      "stateMutability": "view",
      "type": "function"
    },
    {
      "constant": false,
      "inputs": [
        {
          "name": "quantity",
          "type": "uint256"
        }
      ],
      "name": "issue",
      "outputs": [
        {
          "name": "success",
          "type": "bool"
        }
      ],
      "payable": false,
      "stateMutability": "nonpayable",
      "type": "function"
    },
    {
      "constant": false,
      "inputs": [
        {
          "name": "_spender",
          "type": "address"
        },
        {
          "name": "_addedValue",
          "type": "uint256"
        }
      ],
      "name": "increaseApproval",
      "outputs": [
        {
          "name": "success",
          "type": "bool"
        }
      ],
      "payable": false,
      "stateMutability": "nonpayable",
      "type": "function"
    },
    {
      "constant": false,
      "inputs": [
        {
          "name": "quantity",
          "type": "uint256"
        }
      ],
      "name": "redeem",
      "outputs": [
        {
          "name": "success",
          "type": "bool"
        }
      ],
      "payable": false,
      "stateMutability": "nonpayable",
      "type": "function"
    },
    {
      "constant": true,
      "inputs": [
        {
          "name": "_owner",
          "type": "address"
        },
        {
          "name": "_spender",
          "type": "address"
        }
      ],
      "name": "allowance",
      "outputs": [
        {
          "name": "remaining",
          "type": "uint256"
        }
      ],
      "payable": false,
      "stateMutability": "view",
      "type": "function"
    },
    {
      "constant": true,
      "inputs": [
        {
          "name": "",
          "type": "uint256"
        }
      ],
      "name": "units",
      "outputs": [
        {
          "name": "",
          "type": "uint256"
        }
      ],
      "payable": false,
      "stateMutability": "view",
      "type": "function"
    },
    {
      "inputs": [
        {
          "name": "_tokens",
          "type": "address[]"
        },
        {
          "name": "_units",
          "type": "uint256[]"
        },
        {
          "name": "_name",
          "type": "string"
        },
        {
          "name": "_symbol",
          "type": "string"
        }
      ],
      "payable": false,
      "stateMutability": "nonpayable",
      "type": "constructor"
    },
    {
      "anonymous": false,
      "inputs": [
        {
          "indexed": true,
          "name": "owner",
          "type": "address"
        },
        {
          "indexed": true,
          "name": "spender",
          "type": "address"
        },
        {
          "indexed": false,
          "name": "value",
          "type": "uint256"
        }
      ],
      "name": "Approval",
      "type": "event"
    },
    {
      "anonymous": false,
      "inputs": [
        {
          "indexed": true,
          "name": "from",
          "type": "address"
        },
        {
          "indexed": true,
          "name": "to",
          "type": "address"
        },
        {
          "indexed": false,
          "name": "value",
          "type": "uint256"
        }
      ],
      "name": "Transfer",
      "type": "event"
    },
    {
      "anonymous": false,
      "inputs": [
        {
          "indexed": true,
          "name": "_sender",
          "type": "address"
        },
        {
          "indexed": true,
          "name": "_quantity",
          "type": "uint256"
        }
      ],
      "name": "LogIssuance",
      "type": "event"
    },
    {
      "anonymous": false,
      "inputs": [
        {
          "indexed": true,
          "name": "_sender",
          "type": "address"
        },
        {
          "indexed": true,
          "name": "_quantity",
          "type": "uint256"
        }
      ],
      "name": "LogRedemption",
      "type": "event"
    }
  ],
  "bytecode": "0x60606040526012600360006101000a81548160ff021916908360ff16021790555034156200002c57600080fd5b60405162001f8f38038062001f8f8339810160405280805182019190602001805182019190602001805182019190602001805182019190505060008060008087511115156200007a57600080fd5b600086511115156200008b57600080fd5b855187511415156200009c57600080fd5b600092505b85518310156200013c578583815181101515620000ba57fe5b906020019060200201519150600082111515620000d657600080fd5b8683815181101515620000e557fe5b906020019060200201519050600073ffffffffffffffffffffffffffffffffffffffff168173ffffffffffffffffffffffffffffffffffffffff16141515156200012e57600080fd5b8280600101935050620000a1565b866006908051906020019062000154929190620001ad565b5085600790805190602001906200016d9291906200023c565b508460049080519060200190620001869291906200028e565b5083600590805190602001906200019f9291906200028e565b505050505050505062000383565b82805482825590600052602060002090810192821562000229579160200282015b82811115620002285782518260006101000a81548173ffffffffffffffffffffffffffffffffffffffff021916908373ffffffffffffffffffffffffffffffffffffffff16021790555091602001919060010190620001ce565b5b50905062000238919062000315565b5090565b8280548282559060005260206000209081019282156200027b579160200282015b828111156200027a5782518255916020019190600101906200025d565b5b5090506200028a91906200035b565b5090565b828054600181600116156101000203166002900490600052602060002090601f016020900481019282601f10620002d157805160ff191683800117855562000302565b8280016001018555821562000302579182015b8281111562000301578251825591602001919060010190620002e4565b5b5090506200031191906200035b565b5090565b6200035891905b808211156200035457600081816101000a81549073ffffffffffffffffffffffffffffffffffffffff0219169055506001016200031c565b5090565b90565b6200038091905b808211156200037c57600081600090555060010162000362565b5090565b90565b611bfc80620003936000396000f300606060405260043610610107576000357c0100000000000000000000000000000000000000000000000000000000900463ffffffff168063027aa9f51461010c57806306fdde0314610176578063095ea7b31461020457806318160ddd1461025e57806323b872dd1461028757806327e235e314610300578063313ce5671461034d5780634f64b2be1461037c57806366188463146103df57806370a082311461043957806395d89b41146104865780639f181b5e14610514578063a9059cbb1461053d578063aa6ca80814610597578063cc872b6614610601578063d73dd6231461063c578063db006a7514610696578063dd62ed3e146106d1578063e5fba6cc1461073d575b600080fd5b341561011757600080fd5b61011f610774565b6040518080602001828103825283818151815260200191508051906020019060200280838360005b83811015610162578082015181840152602081019050610147565b505050509050019250505060405180910390f35b341561018157600080fd5b6101896107d2565b6040518080602001828103825283818151815260200191508051906020019080838360005b838110156101c95780820151818401526020810190506101ae565b50505050905090810190601f1680156101f65780820380516001836020036101000a031916815260200191505b509250505060405180910390f35b341561020f57600080fd5b610244600480803573ffffffffffffffffffffffffffffffffffffffff16906020019091908035906020019091905050610870565b604051808215151515815260200191505060405180910390f35b341561026957600080fd5b610271610962565b6040518082815260200191505060405180910390f35b341561029257600080fd5b6102e6600480803573ffffffffffffffffffffffffffffffffffffffff1690602001909190803573ffffffffffffffffffffffffffffffffffffffff16906020019091908035906020019091905050610968565b604051808215151515815260200191505060405180910390f35b341561030b57600080fd5b610337600480803573ffffffffffffffffffffffffffffffffffffffff16906020019091905050610d27565b6040518082815260200191505060405180910390f35b341561035857600080fd5b610360610d3f565b604051808260ff1660ff16815260200191505060405180910390f35b341561038757600080fd5b61039d6004808035906020019091905050610d52565b604051808273ffffffffffffffffffffffffffffffffffffffff1673ffffffffffffffffffffffffffffffffffffffff16815260200191505060405180910390f35b34156103ea57600080fd5b61041f600480803573ffffffffffffffffffffffffffffffffffffffff16906020019091908035906020019091905050610d91565b604051808215151515815260200191505060405180910390f35b341561044457600080fd5b610470600480803573ffffffffffffffffffffffffffffffffffffffff16906020019091905050611022565b6040518082815260200191505060405180910390f35b341561049157600080fd5b61049961106b565b6040518080602001828103825283818151815260200191508051906020019080838360005b838110156104d95780820151818401526020810190506104be565b50505050905090810190601f1680156105065780820380516001836020036101000a031916815260200191505b509250505060405180910390f35b341561051f57600080fd5b610527611109565b6040518082815260200191505060405180910390f35b341561054857600080fd5b61057d600480803573ffffffffffffffffffffffffffffffffffffffff16906020019091908035906020019091905050611116565b604051808215151515815260200191505060405180910390f35b34156105a257600080fd5b6105aa61133a565b6040518080602001828103825283818151815260200191508051906020019060200280838360005b838110156105ed5780820151818401526020810190506105d2565b505050509050019250505060405180910390f35b341561060c57600080fd5b61062260048080359060200190919050506113ce565b604051808215151515815260200191505060405180910390f35b341561064757600080fd5b61067c600480803573ffffffffffffffffffffffffffffffffffffffff1690602001909190803590602001909190505061163f565b604051808215151515815260200191505060405180910390f35b34156106a157600080fd5b6106b7600480803590602001909190505061183b565b604051808215151515815260200191505060405180910390f35b34156106dc57600080fd5b610727600480803573ffffffffffffffffffffffffffffffffffffffff1690602001909190803573ffffffffffffffffffffffffffffffffffffffff16906020019091905050611ac6565b6040518082815260200191505060405180910390f35b341561074857600080fd5b61075e6004808035906020019091905050611b4d565b6040518082815260200191505060405180910390f35b61077c611ba8565b60078054806020026020016040519081016040528092919081815260200182805480156107c857602002820191906000526020600020905b8154815260200190600101908083116107b4575b5050505050905090565b60048054600181600116156101000203166002900480601f0160208091040260200160405190810160405280929190818152602001828054600181600116156101000203166002900480156108685780601f1061083d57610100808354040283529160200191610868565b820191906000526020600020905b81548152906001019060200180831161084b57829003601f168201915b505050505081565b600081600260003373ffffffffffffffffffffffffffffffffffffffff1673ffffffffffffffffffffffffffffffffffffffff16815260200190815260200160002060008573ffffffffffffffffffffffffffffffffffffffff1673ffffffffffffffffffffffffffffffffffffffff168152602001908152602001600020819055508273ffffffffffffffffffffffffffffffffffffffff163373ffffffffffffffffffffffffffffffffffffffff167f8c5be1e5ebec7d5bd14f71427d1e84f3dd0314c0f7b2291e5b200ac8c7c3b925846040518082815260200191505060405180910390a36001905092915050565b60005481565b60008073ffffffffffffffffffffffffffffffffffffffff168373ffffffffffffffffffffffffffffffffffffffff16141515156109a557600080fd5b600160008573ffffffffffffffffffffffffffffffffffffffff1673ffffffffffffffffffffffffffffffffffffffff1681526020019081526020016000205482111515156109f357600080fd5b600260008573ffffffffffffffffffffffffffffffffffffffff1673ffffffffffffffffffffffffffffffffffffffff16815260200190815260200160002060003373ffffffffffffffffffffffffffffffffffffffff1673ffffffffffffffffffffffffffffffffffffffff168152602001908152602001600020548211151515610a7e57600080fd5b610ad082600160008773ffffffffffffffffffffffffffffffffffffffff1673ffffffffffffffffffffffffffffffffffffffff16815260200190815260200160002054611b7190919063ffffffff16565b600160008673ffffffffffffffffffffffffffffffffffffffff1673ffffffffffffffffffffffffffffffffffffffff16815260200190815260200160002081905550610b6582600160008673ffffffffffffffffffffffffffffffffffffffff1673ffffffffffffffffffffffffffffffffffffffff16815260200190815260200160002054611b8a90919063ffffffff16565b600160008573ffffffffffffffffffffffffffffffffffffffff1673ffffffffffffffffffffffffffffffffffffffff16815260200190815260200160002081905550610c3782600260008773ffffffffffffffffffffffffffffffffffffffff1673ffffffffffffffffffffffffffffffffffffffff16815260200190815260200160002060003373ffffffffffffffffffffffffffffffffffffffff1673ffffffffffffffffffffffffffffffffffffffff16815260200190815260200160002054611b7190919063ffffffff16565b600260008673ffffffffffffffffffffffffffffffffffffffff1673ffffffffffffffffffffffffffffffffffffffff16815260200190815260200160002060003373ffffffffffffffffffffffffffffffffffffffff1673ffffffffffffffffffffffffffffffffffffffff168152602001908152602001600020819055508273ffffffffffffffffffffffffffffffffffffffff168473ffffffffffffffffffffffffffffffffffffffff167fddf252ad1be2c89b69c2b068fc378daa952ba7f163c4a11628f55a4df523b3ef846040518082815260200191505060405180910390a3600190509392505050565b60016020528060005260406000206000915090505481565b600360009054906101000a900460ff1681565b600681815481101515610d6157fe5b90600052602060002090016000915054906101000a900473ffffffffffffffffffffffffffffffffffffffff1681565b600080600260003373ffffffffffffffffffffffffffffffffffffffff1673ffffffffffffffffffffffffffffffffffffffff16815260200190815260200160002060008573ffffffffffffffffffffffffffffffffffffffff1673ffffffffffffffffffffffffffffffffffffffff16815260200190815260200160002054905080831115610ea2576000600260003373ffffffffffffffffffffffffffffffffffffffff1673ffffffffffffffffffffffffffffffffffffffff16815260200190815260200160002060008673ffffffffffffffffffffffffffffffffffffffff1673ffffffffffffffffffffffffffffffffffffffff16815260200190815260200160002081905550610f36565b610eb58382611b7190919063ffffffff16565b600260003373ffffffffffffffffffffffffffffffffffffffff1673ffffffffffffffffffffffffffffffffffffffff16815260200190815260200160002060008673ffffffffffffffffffffffffffffffffffffffff1673ffffffffffffffffffffffffffffffffffffffff168152602001908152602001600020819055505b8373ffffffffffffffffffffffffffffffffffffffff163373ffffffffffffffffffffffffffffffffffffffff167f8c5be1e5ebec7d5bd14f71427d1e84f3dd0314c0f7b2291e5b200ac8c7c3b925600260003373ffffffffffffffffffffffffffffffffffffffff1673ffffffffffffffffffffffffffffffffffffffff16815260200190815260200160002060008873ffffffffffffffffffffffffffffffffffffffff1673ffffffffffffffffffffffffffffffffffffffff168152602001908152602001600020546040518082815260200191505060405180910390a3600191505092915050565b6000600160008373ffffffffffffffffffffffffffffffffffffffff1673ffffffffffffffffffffffffffffffffffffffff168152602001908152602001600020549050919050565b60058054600181600116156101000203166002900480601f0160208091040260200160405190810160405280929190818152602001828054600181600116156101000203166002900480156111015780601f106110d657610100808354040283529160200191611101565b820191906000526020600020905b8154815290600101906020018083116110e457829003601f168201915b505050505081565b6000600680549050905090565b60008073ffffffffffffffffffffffffffffffffffffffff168373ffffffffffffffffffffffffffffffffffffffff161415151561115357600080fd5b600160003373ffffffffffffffffffffffffffffffffffffffff1673ffffffffffffffffffffffffffffffffffffffff1681526020019081526020016000205482111515156111a157600080fd5b6111f382600160003373ffffffffffffffffffffffffffffffffffffffff1673ffffffffffffffffffffffffffffffffffffffff16815260200190815260200160002054611b7190919063ffffffff16565b600160003373ffffffffffffffffffffffffffffffffffffffff1673ffffffffffffffffffffffffffffffffffffffff1681526020019081526020016000208190555061128882600160008673ffffffffffffffffffffffffffffffffffffffff1673ffffffffffffffffffffffffffffffffffffffff16815260200190815260200160002054611b8a90919063ffffffff16565b600160008573ffffffffffffffffffffffffffffffffffffffff1673ffffffffffffffffffffffffffffffffffffffff168152602001908152602001600020819055508273ffffffffffffffffffffffffffffffffffffffff163373ffffffffffffffffffffffffffffffffffffffff167fddf252ad1be2c89b69c2b068fc378daa952ba7f163c4a11628f55a4df523b3ef846040518082815260200191505060405180910390a36001905092915050565b611342611bbc565b60068054806020026020016040519081016040528092919081815260200182805480156113c457602002820191906000526020600020905b8160009054906101000a900473ffffffffffffffffffffffffffffffffffffffff1673ffffffffffffffffffffffffffffffffffffffff168152602001906001019080831161137a575b5050505050905090565b600080600080600092505b600680549050831015611551576006838154811015156113f557fe5b906000526020600020900160009054906101000a900473ffffffffffffffffffffffffffffffffffffffff16915060078381548110151561143257fe5b90600052602060002090015490508173ffffffffffffffffffffffffffffffffffffffff166323b872dd33308885026000604051602001526040518463ffffffff167c0100000000000000000000000000000000000000000000000000000000028152600401808473ffffffffffffffffffffffffffffffffffffffff1673ffffffffffffffffffffffffffffffffffffffff1681526020018373ffffffffffffffffffffffffffffffffffffffff1673ffffffffffffffffffffffffffffffffffffffff1681526020018281526020019350505050602060405180830381600087803b151561152157600080fd5b6102c65a03f1151561153257600080fd5b50505060405180519050151561154457fe5b82806001019350506113d9565b61159a600160003373ffffffffffffffffffffffffffffffffffffffff1673ffffffffffffffffffffffffffffffffffffffff1681526020019081526020016000205486611b8a565b600160003373ffffffffffffffffffffffffffffffffffffffff1673ffffffffffffffffffffffffffffffffffffffff168152602001908152602001600020819055506115e960005486611b8a565b600081905550843373ffffffffffffffffffffffffffffffffffffffff167ffbd21f8762dc0c4fc0dbc03a2f816a0a617102a0f9d1908bbc09d377a0b9c6ab60405160405180910390a360019350505050919050565b60006116d082600260003373ffffffffffffffffffffffffffffffffffffffff1673ffffffffffffffffffffffffffffffffffffffff16815260200190815260200160002060008673ffffffffffffffffffffffffffffffffffffffff1673ffffffffffffffffffffffffffffffffffffffff16815260200190815260200160002054611b8a90919063ffffffff16565b600260003373ffffffffffffffffffffffffffffffffffffffff1673ffffffffffffffffffffffffffffffffffffffff16815260200190815260200160002060008573ffffffffffffffffffffffffffffffffffffffff1673ffffffffffffffffffffffffffffffffffffffff168152602001908152602001600020819055508273ffffffffffffffffffffffffffffffffffffffff163373ffffffffffffffffffffffffffffffffffffffff167f8c5be1e5ebec7d5bd14f71427d1e84f3dd0314c0f7b2291e5b200ac8c7c3b925600260003373ffffffffffffffffffffffffffffffffffffffff1673ffffffffffffffffffffffffffffffffffffffff16815260200190815260200160002060008773ffffffffffffffffffffffffffffffffffffffff1673ffffffffffffffffffffffffffffffffffffffff168152602001908152602001600020546040518082815260200191505060405180910390a36001905092915050565b60008060008084600160003373ffffffffffffffffffffffffffffffffffffffff1673ffffffffffffffffffffffffffffffffffffffff168152602001908152602001600020541015151561188f57600080fd5b600092505b6006805490508310156119d8576006838154811015156118b057fe5b906000526020600020900160009054906101000a900473ffffffffffffffffffffffffffffffffffffffff1691506007838154811015156118ed57fe5b90600052602060002090015490508173ffffffffffffffffffffffffffffffffffffffff1663a9059cbb338784026000604051602001526040518363ffffffff167c0100000000000000000000000000000000000000000000000000000000028152600401808373ffffffffffffffffffffffffffffffffffffffff1673ffffffffffffffffffffffffffffffffffffffff16815260200182815260200192505050602060405180830381600087803b15156119a857600080fd5b6102c65a03f115156119b957600080fd5b5050506040518051905015156119cb57fe5b8280600101935050611894565b611a21600160003373ffffffffffffffffffffffffffffffffffffffff1673ffffffffffffffffffffffffffffffffffffffff1681526020019081526020016000205486611b71565b600160003373ffffffffffffffffffffffffffffffffffffffff1673ffffffffffffffffffffffffffffffffffffffff16815260200190815260200160002081905550611a7060005486611b71565b600081905550843373ffffffffffffffffffffffffffffffffffffffff167f2de3ebe1bb56079998f2617612ba527a2690a100757600dfc0d7253c808b742960405160405180910390a360019350505050919050565b6000600260008473ffffffffffffffffffffffffffffffffffffffff1673ffffffffffffffffffffffffffffffffffffffff16815260200190815260200160002060008373ffffffffffffffffffffffffffffffffffffffff1673ffffffffffffffffffffffffffffffffffffffff16815260200190815260200160002054905092915050565b600781815481101515611b5c57fe5b90600052602060002090016000915090505481565b6000828211151515611b7f57fe5b818303905092915050565b6000808284019050838110151515611b9e57fe5b8091505092915050565b602060405190810160405280600081525090565b6020604051908101604052806000815250905600a165627a7a723058207a2a2c79d00b80e8c4e91b045e4803447d4c421995c805a4aff5d08c98d9d2820029",
  "source": "pragma solidity ^0.4.18;\n\n\nimport './external-lib/StandardToken.sol';\nimport './external-lib/ERC20.sol';\nimport './external-lib/SafeMath.sol';\nimport './internal-lib/Set.sol';\n\n\n/**\n * @title {Set}\n * @author Felix Feng\n * @dev Implementation of the basic {Set} token.\n */\ncontract SetToken is Set, StandardToken {\n  uint8 public decimals = 18;\n  string public name;\n  string public symbol;\n\n  address[] public tokens;\n  uint[] public units;\n\n  /**\n   * @dev Constructor Function for the issuance of an {Set} token\n   * @param _tokens address[] A list of token address which you want to include\n   * @param _units uint[] A list of quantities of each token (corresponds to the {Set} of _tokens)\n   */\n  function SetToken(address[] _tokens, uint[] _units, string _name, string _symbol) public {\n    // There must be tokens present\n    require(_tokens.length > 0);\n\n    // There must be an array of units\n    require(_units.length > 0);\n\n    // The number of tokens must equal the number of units\n    require(_tokens.length == _units.length);\n\n    for (uint i = 0; i < _units.length; i++) {\n      // Check that all units are non-zero. Negative numbers will underflow\n      uint currentUnits = _units[i];\n      require(currentUnits > 0);\n\n      // Check that all addresses are non-zero\n      address currentToken = _tokens[i];\n      require(currentToken != address(0));\n    }\n\n    // As looping operations are expensive, checking for duplicates will be\n    // on the onus of the application developer\n\n    // NOTE: It will be the onus of developers to check whether the addressExists\n    // are in fact ERC20 addresses\n\n    tokens = _tokens;\n    units = _units;\n    name = _name;\n    symbol = _symbol;\n  }\n\n  /**\n   * @dev Function to convert tokens into {Set} Tokens\n   *\n   * Please note that the user's ERC20 tokens must be approved by\n   * their ERC20 contract to transfer their tokens to this contract.\n   *\n   * @param quantity uint The quantity of tokens desired to convert\n   */\n  function issue(uint quantity) public returns (bool success) {\n    // Transfers the sender's tokens to the contract\n    for (uint i = 0; i < tokens.length; i++) {\n      address currentToken = tokens[i];\n      uint currentUnits = units[i];\n\n      // The transaction will fail if any of the tokens fail to transfer\n      assert(ERC20(currentToken).transferFrom(msg.sender, this, currentUnits * quantity));\n    }\n\n    // If successful, increment the balance of the user’s {Set} token\n    balances[msg.sender] = SafeMath.add(balances[msg.sender], quantity);\n\n    // Increment the total token supply\n    totalSupply = SafeMath.add(totalSupply, quantity);\n\n    LogIssuance(msg.sender, quantity);\n\n    return true;\n  }\n\n  /**\n   * @dev Function to convert {Set} Tokens into underlying tokens\n   *\n   * The ERC20 tokens do not need to be approved to call this function\n   *\n   * @param quantity uint The quantity of tokens desired to redeem\n   */\n  function redeem(uint quantity) public returns (bool success) {\n    // Check that the sender has sufficient tokens\n    require(balances[msg.sender] >= quantity);\n\n    for (uint i = 0; i < tokens.length; i++) {\n      address currentToken = tokens[i];\n      uint currentUnits = units[i];\n\n      // The transaction will fail if any of the tokens fail to transfer\n      assert(ERC20(currentToken).transfer(msg.sender, currentUnits * quantity));\n    }\n\n    // If successful, decrement the balance of the user’s {Set} token\n    balances[msg.sender] = SafeMath.sub(balances[msg.sender], quantity);\n\n    // Decrement the total token supply\n    totalSupply = SafeMath.sub(totalSupply, quantity);\n\n    LogRedemption(msg.sender, quantity);\n\n    return true;\n  }\n\n  function tokenCount() public view returns(uint tokensLength) {\n    return tokens.length;\n  }\n\n  function getTokens() public view returns(address[]) {\n    return tokens;\n  }\n\n  function getUnits() public view returns(uint[]) {\n    return units;\n  }\n}\n",
  "sourcePath": "/Users/justinkchen/workspace/set-internal-contracts/contracts/SetToken.sol",
  "compiler": {
    "name": "solc",
    "version": "0.4.18+commit.9cf6e910.Emscripten.clang"
  },
  "schemaVersion": "1.0.1",
  "updatedAt": "2018-01-22T01:51:59.960Z"
}