{
  "contractName": "SetToken",
  "abi": [
    {
      "constant": true,
      "inputs": [],
      "name": "getUnits",
      "outputs": [
        {
          "name": "",
          "type": "uint256[]"
        }
      ],
      "payable": false,
      "stateMutability": "view",
      "type": "function"
    },
    {
      "constant": true,
      "inputs": [],
      "name": "name",
      "outputs": [
        {
          "name": "",
          "type": "string"
        }
      ],
      "payable": false,
      "stateMutability": "view",
      "type": "function"
    },
    {
      "constant": false,
      "inputs": [
        {
          "name": "_spender",
          "type": "address"
        },
        {
          "name": "_value",
          "type": "uint256"
        }
      ],
      "name": "approve",
      "outputs": [
        {
          "name": "",
          "type": "bool"
        }
      ],
      "payable": false,
      "stateMutability": "nonpayable",
      "type": "function"
    },
    {
      "constant": true,
      "inputs": [],
      "name": "totalSupply",
      "outputs": [
        {
          "name": "",
          "type": "uint256"
        }
      ],
      "payable": false,
      "stateMutability": "view",
      "type": "function"
    },
    {
      "constant": false,
      "inputs": [
        {
          "name": "_from",
          "type": "address"
        },
        {
          "name": "_to",
          "type": "address"
        },
        {
          "name": "_value",
          "type": "uint256"
        }
      ],
      "name": "transferFrom",
      "outputs": [
        {
          "name": "",
          "type": "bool"
        }
      ],
      "payable": false,
      "stateMutability": "nonpayable",
      "type": "function"
    },
    {
      "constant": true,
      "inputs": [],
      "name": "decimals",
      "outputs": [
        {
          "name": "",
          "type": "uint8"
        }
      ],
      "payable": false,
      "stateMutability": "view",
      "type": "function"
    },
    {
      "constant": true,
      "inputs": [
        {
          "name": "",
          "type": "uint256"
        }
      ],
      "name": "tokens",
      "outputs": [
        {
          "name": "",
          "type": "address"
        }
      ],
      "payable": false,
      "stateMutability": "view",
      "type": "function"
    },
    {
      "constant": false,
      "inputs": [
        {
          "name": "_spender",
          "type": "address"
        },
        {
          "name": "_subtractedValue",
          "type": "uint256"
        }
      ],
      "name": "decreaseApproval",
      "outputs": [
        {
          "name": "success",
          "type": "bool"
        }
      ],
      "payable": false,
      "stateMutability": "nonpayable",
      "type": "function"
    },
    {
      "constant": true,
      "inputs": [
        {
          "name": "_owner",
          "type": "address"
        }
      ],
      "name": "balanceOf",
      "outputs": [
        {
          "name": "balance",
          "type": "uint256"
        }
      ],
      "payable": false,
      "stateMutability": "view",
      "type": "function"
    },
    {
      "constant": true,
      "inputs": [],
      "name": "symbol",
      "outputs": [
        {
          "name": "",
          "type": "string"
        }
      ],
      "payable": false,
      "stateMutability": "view",
      "type": "function"
    },
    {
      "constant": true,
      "inputs": [],
      "name": "tokenCount",
      "outputs": [
        {
          "name": "tokensLength",
          "type": "uint256"
        }
      ],
      "payable": false,
      "stateMutability": "view",
      "type": "function"
    },
    {
      "constant": false,
      "inputs": [
        {
          "name": "_to",
          "type": "address"
        },
        {
          "name": "_value",
          "type": "uint256"
        }
      ],
      "name": "transfer",
      "outputs": [
        {
          "name": "",
          "type": "bool"
        }
      ],
      "payable": false,
      "stateMutability": "nonpayable",
      "type": "function"
    },
    {
      "constant": true,
      "inputs": [],
      "name": "getTokens",
      "outputs": [
        {
          "name": "",
          "type": "address[]"
        }
      ],
      "payable": false,
      "stateMutability": "view",
      "type": "function"
    },
    {
      "constant": false,
      "inputs": [
        {
          "name": "quantity",
          "type": "uint256"
        }
      ],
      "name": "issue",
      "outputs": [
        {
          "name": "success",
          "type": "bool"
        }
      ],
      "payable": false,
      "stateMutability": "nonpayable",
      "type": "function"
    },
    {
      "constant": false,
      "inputs": [
        {
          "name": "_spender",
          "type": "address"
        },
        {
          "name": "_addedValue",
          "type": "uint256"
        }
      ],
      "name": "increaseApproval",
      "outputs": [
        {
          "name": "success",
          "type": "bool"
        }
      ],
      "payable": false,
      "stateMutability": "nonpayable",
      "type": "function"
    },
    {
      "constant": false,
      "inputs": [
        {
          "name": "quantity",
          "type": "uint256"
        }
      ],
      "name": "redeem",
      "outputs": [
        {
          "name": "success",
          "type": "bool"
        }
      ],
      "payable": false,
      "stateMutability": "nonpayable",
      "type": "function"
    },
    {
      "constant": true,
      "inputs": [
        {
          "name": "_owner",
          "type": "address"
        },
        {
          "name": "_spender",
          "type": "address"
        }
      ],
      "name": "allowance",
      "outputs": [
        {
          "name": "remaining",
          "type": "uint256"
        }
      ],
      "payable": false,
      "stateMutability": "view",
      "type": "function"
    },
    {
      "constant": true,
      "inputs": [
        {
          "name": "",
          "type": "uint256"
        }
      ],
      "name": "units",
      "outputs": [
        {
          "name": "",
          "type": "uint256"
        }
      ],
      "payable": false,
      "stateMutability": "view",
      "type": "function"
    },
    {
      "inputs": [
        {
          "name": "_tokens",
          "type": "address[]"
        },
        {
          "name": "_units",
          "type": "uint256[]"
        },
        {
          "name": "_name",
          "type": "string"
        },
        {
          "name": "_symbol",
          "type": "string"
        }
      ],
      "payable": false,
      "stateMutability": "nonpayable",
      "type": "constructor"
    },
    {
      "anonymous": false,
      "inputs": [
        {
          "indexed": true,
          "name": "owner",
          "type": "address"
        },
        {
          "indexed": true,
          "name": "spender",
          "type": "address"
        },
        {
          "indexed": false,
          "name": "value",
          "type": "uint256"
        }
      ],
      "name": "Approval",
      "type": "event"
    },
    {
      "anonymous": false,
      "inputs": [
        {
          "indexed": true,
          "name": "from",
          "type": "address"
        },
        {
          "indexed": true,
          "name": "to",
          "type": "address"
        },
        {
          "indexed": false,
          "name": "value",
          "type": "uint256"
        }
      ],
      "name": "Transfer",
      "type": "event"
    },
    {
      "anonymous": false,
      "inputs": [
        {
          "indexed": true,
          "name": "_sender",
          "type": "address"
        },
        {
          "indexed": true,
          "name": "_quantity",
          "type": "uint256"
        }
      ],
      "name": "LogIssuance",
      "type": "event"
    },
    {
      "anonymous": false,
      "inputs": [
        {
          "indexed": true,
          "name": "_sender",
          "type": "address"
        },
        {
          "indexed": true,
          "name": "_quantity",
          "type": "uint256"
        }
      ],
      "name": "LogRedemption",
      "type": "event"
    }
  ],
  "bytecode": "0x606060405234156200001057600080fd5b604051620010e7380380620010e7833981016040528080518201919060200180518201919060200180518201919060200180519091019050600080808651116200005957600080fd5b60008551116200006857600080fd5b84518651146200007757600080fd5b600091505b8451821015620000b9578482815181106200009357fe5b90602001906020020151905060008111620000ad57600080fd5b6001909101906200007c565b6008868051620000ce9291602001906200011d565b506009858051620000e492916020019062000189565b506006848051620000fa929160200190620001d5565b50600783805162000110929160200190620001d5565b505050505050506200028e565b82805482825590600052602060002090810192821562000177579160200282015b82811115620001775782518254600160a060020a031916600160a060020a0391909116178255602092909201916001909101906200013e565b506200018592915062000247565b5090565b828054828255906000526020600020908101928215620001c7579160200282015b82811115620001c7578251825591602001919060010190620001aa565b506200018592915062000271565b828054600181600116156101000203166002900490600052602060002090601f016020900481019282601f106200021857805160ff1916838001178555620001c7565b82800160010185558215620001c75791820182811115620001c7578251825591602001919060010190620001aa565b6200026e91905b8082111562000185578054600160a060020a03191681556001016200024e565b90565b6200026e91905b8082111562000185576000815560010162000278565b610e49806200029e6000396000f300606060405236156100e05763ffffffff60e060020a600035041663027aa9f581146100e557806306fdde031461014b578063095ea7b3146101d557806318160ddd1461020b57806323b872dd14610230578063313ce567146102585780634f64b2be1461028157806366188463146102b357806370a08231146102d557806395d89b41146102f45780639f181b5e14610307578063a9059cbb1461031a578063aa6ca8081461033c578063cc872b661461034f578063d73dd62314610365578063db006a7514610387578063dd62ed3e1461039d578063e5fba6cc146103c2575b600080fd5b34156100f057600080fd5b6100f86103d8565b60405160208082528190810183818151815260200191508051906020019060200280838360005b8381101561013757808201518382015260200161011f565b505050509050019250505060405180910390f35b341561015657600080fd5b61015e610436565b60405160208082528190810183818151815260200191508051906020019080838360005b8381101561019a578082015183820152602001610182565b50505050905090810190601f1680156101c75780820380516001836020036101000a031916815260200191505b509250505060405180910390f35b34156101e057600080fd5b6101f7600160a060020a03600435166024356104d4565b604051901515815260200160405180910390f35b341561021657600080fd5b61021e610540565b60405190815260200160405180910390f35b341561023b57600080fd5b6101f7600160a060020a0360043581169060243516604435610546565b341561026357600080fd5b61026b6106c8565b60405160ff909116815260200160405180910390f35b341561028c57600080fd5b6102976004356106cd565b604051600160a060020a03909116815260200160405180910390f35b34156102be57600080fd5b6101f7600160a060020a03600435166024356106f5565b34156102e057600080fd5b61021e600160a060020a03600435166107ef565b34156102ff57600080fd5b61015e61080a565b341561031257600080fd5b61021e610875565b341561032557600080fd5b6101f7600160a060020a036004351660243561087b565b341561034757600080fd5b6100f8610976565b341561035a57600080fd5b6101f76004356109dd565b341561037057600080fd5b6101f7600160a060020a0360043516602435610b5a565b341561039257600080fd5b6101f7600435610bfe565b34156103a857600080fd5b61021e600160a060020a0360043581169060243516610d99565b34156103cd57600080fd5b61021e600435610dc4565b6103e0610e0b565b600980548060200260200160405190810160405280929190818152602001828054801561042c57602002820191906000526020600020905b815481526020019060010190808311610418575b5050505050905090565b60068054600181600116156101000203166002900480601f0160208091040260200160405190810160405280929190818152602001828054600181600116156101000203166002900480156104cc5780601f106104a1576101008083540402835291602001916104cc565b820191906000526020600020905b8154815290600101906020018083116104af57829003601f168201915b505050505081565b600160a060020a03338116600081815260056020908152604080832094871680845294909152808220859055909291907f8c5be1e5ebec7d5bd14f71427d1e84f3dd0314c0f7b2291e5b200ac8c7c3b9259085905190815260200160405180910390a350600192915050565b60005481565b6000600160a060020a038316151561055d57600080fd5b600160a060020a03841660009081526004602052604090205482111561058257600080fd5b600160a060020a03808516600090815260056020908152604080832033909416835292905220548211156105b557600080fd5b600160a060020a0384166000908152600460205260409020546105de908363ffffffff610de316565b600160a060020a038086166000908152600460205260408082209390935590851681522054610613908363ffffffff610df516565b600160a060020a0380851660009081526004602090815260408083209490945587831682526005815283822033909316825291909152205461065b908363ffffffff610de316565b600160a060020a03808616600081815260056020908152604080832033861684529091529081902093909355908516917fddf252ad1be2c89b69c2b068fc378daa952ba7f163c4a11628f55a4df523b3ef9085905190815260200160405180910390a35060019392505050565b601281565b60088054829081106106db57fe5b600091825260209091200154600160a060020a0316905081565b600160a060020a0333811660009081526005602090815260408083209386168352929052908120548083111561075257600160a060020a033381166000908152600560209081526040808320938816835292905290812055610789565b610762818463ffffffff610de316565b600160a060020a033381166000908152600560209081526040808320938916835292905220555b600160a060020a0333811660008181526005602090815260408083209489168084529490915290819020547f8c5be1e5ebec7d5bd14f71427d1e84f3dd0314c0f7b2291e5b200ac8c7c3b925915190815260200160405180910390a35060019392505050565b600160a060020a031660009081526004602052604090205490565b60078054600181600116156101000203166002900480601f0160208091040260200160405190810160405280929190818152602001828054600181600116156101000203166002900480156104cc5780601f106104a1576101008083540402835291602001916104cc565b60085490565b6000600160a060020a038316151561089257600080fd5b600160a060020a0333166000908152600460205260409020548211156108b757600080fd5b600160a060020a0333166000908152600460205260409020546108e0908363ffffffff610de316565b600160a060020a033381166000908152600460205260408082209390935590851681522054610915908363ffffffff610df516565b600160a060020a0380851660008181526004602052604090819020939093559133909116907fddf252ad1be2c89b69c2b068fc378daa952ba7f163c4a11628f55a4df523b3ef9085905190815260200160405180910390a350600192915050565b61097e610e0b565b600880548060200260200160405190810160405280929190818152602001828054801561042c57602002820191906000526020600020905b8154600160a060020a031681526001909101906020018083116109b6575050505050905090565b60008080805b600854831015610acb5760088054849081106109fb57fe5b60009182526020909120015460098054600160a060020a0390921693509084908110610a2357fe5b906000526020600020900154905081600160a060020a03166323b872dd333088850260006040516020015260405160e060020a63ffffffff8616028152600160a060020a0393841660048201529190921660248201526044810191909152606401602060405180830381600087803b1515610a9d57600080fd5b6102c65a03f11515610aae57600080fd5b505050604051805190501515610ac057fe5b6001909201916109e3565b600160a060020a033316600090815260046020526040902054610aee9086610df5565b600160a060020a03331660009081526004602052604081209190915554610b159086610df5565b60005584600160a060020a0333167ffbd21f8762dc0c4fc0dbc03a2f816a0a617102a0f9d1908bbc09d377a0b9c6ab60405160405180910390a3506001949350505050565b600160a060020a033381166000908152600560209081526040808320938616835292905290812054610b92908363ffffffff610df516565b600160a060020a0333811660008181526005602090815260408083209489168084529490915290819020849055919290917f8c5be1e5ebec7d5bd14f71427d1e84f3dd0314c0f7b2291e5b200ac8c7c3b92591905190815260200160405180910390a350600192915050565b600160a060020a03331660009081526004602052604081205481908190819085901015610c2a57600080fd5b600092505b600854831015610d0a576008805484908110610c4757fe5b60009182526020909120015460098054600160a060020a0390921693509084908110610c6f57fe5b906000526020600020900154905081600160a060020a031663a9059cbb3387840260006040516020015260405160e060020a63ffffffff8516028152600160a060020a0390921660048301526024820152604401602060405180830381600087803b1515610cdc57600080fd5b6102c65a03f11515610ced57600080fd5b505050604051805190501515610cff57fe5b600190920191610c2f565b600160a060020a033316600090815260046020526040902054610d2d9086610de3565b600160a060020a03331660009081526004602052604081209190915554610d549086610de3565b60005584600160a060020a0333167f2de3ebe1bb56079998f2617612ba527a2690a100757600dfc0d7253c808b742960405160405180910390a3506001949350505050565b600160a060020a03918216600090815260056020908152604080832093909416825291909152205490565b6009805482908110610dd257fe5b600091825260209091200154905081565b600082821115610def57fe5b50900390565b600082820183811015610e0457fe5b9392505050565b602060405190810160405260008152905600a165627a7a723058206342d5a38e8bc3be4df3afdf41eddac49435bda64ece94949bd9dca9ed27a55a0029",
  "source": "pragma solidity ^0.4.11;\n\nimport './external-lib/StandardToken.sol';\nimport './external-lib/ERC20.sol';\nimport './external-lib/SafeMath.sol';\nimport './internal-lib/Set.sol';\n\n/**\n * @title {Set}\n * @author Felix Feng\n * @dev Implementation of the basic {Set} token.\n */\ncontract SetToken is Set, StandardToken {\n  uint8 constant public decimals = 18;\n  string public name;\n  string public symbol;\n\n  address[] public tokens;\n  uint[] public units;\n\n  function tokenCount() public constant returns(uint tokensLength) { return tokens.length; }\n  function getTokens() public constant returns(address[]) { return tokens; }\n  function getUnits() public constant returns(uint[]) { return units; }\n\n  /**\n   * @dev Constructor Function for the issuance of an {Set} token\n   * @param _tokens address[] A list of token address which you want to include\n   * @param _units uint[] A list of quantities of each token (corresponds to the {Set} of _tokens)\n   */  \n  function SetToken(address[] _tokens, uint[] _units, string _name, string _symbol) {\n    // There must be tokens present\n    require(_tokens.length > 0);\n    \n    // There must be an array of units\n    require(_units.length > 0);\n    \n    // The number of tokens must equal the number of units\n    require(_tokens.length == _units.length);\n\n    // Check that all units are non-zero. Negative numbers will underflow\n    for (uint i = 0; i < _units.length; i++) {\n      uint currentUnits = _units[i];\n      require(currentUnits > 0);\n    }\n\n    // As looping operations are expensive, checking for duplicates will be\n    // on the onus of the application developer\n\n    // NOTE: It will be the onus of developers to check whether the addressExists\n    // are in fact ERC20 addresses\n\n    tokens = _tokens;\n    units = _units;\n    name = _name;\n    symbol = _symbol;\n  }\n\n\n  /**\n   * @dev Function to convert tokens into {Set} Tokens\n   *\n   * Please note that the user's ERC20 tokens must be approved by \n   * their ERC20 contract to transfer their tokens to this contract.\n   *\n   * @param quantity uint The quantity of tokens desired to convert\n   */  \n  function issue(uint quantity) public returns (bool success) {\n    // Transfers the sender's tokens to the contract\n    for (uint i = 0; i < tokens.length; i++) {\n      address currentToken = tokens[i];\n      uint currentUnits = units[i];\n\n      // The transaction will fail if any of the tokens fail to transfer\n      assert(ERC20(currentToken).transferFrom(msg.sender, this, currentUnits * quantity));      \n    }\n\n    // If successful, increment the balance of the user’s {Set} token\n    balances[msg.sender] = SafeMath.add(balances[msg.sender], quantity);\n\n    // Increment the total token supply\n    totalSupply = SafeMath.add(totalSupply, quantity);\n\n    LogIssuance(msg.sender, quantity);\n\n    return true;\n  }\n\n  /**\n   * @dev Function to convert {Set} Tokens into underlying tokens\n   *\n   * The ERC20 tokens do not need to be approved to call this function\n   *\n   * @param quantity uint The quantity of tokens desired to redeem\n   */  \n  function redeem(uint quantity) public returns (bool success) {\n    // Check that the sender has sufficient tokens\n    require(balances[msg.sender] >= quantity);\n\n    for (uint i = 0; i < tokens.length; i++) {\n      address currentToken = tokens[i];\n      uint currentUnits = units[i];\n      \n      // The transaction will fail if any of the tokens fail to transfer\n      assert(ERC20(currentToken).transfer(msg.sender, currentUnits * quantity));\n    }\n\n    // If successful, decrement the balance of the user’s {Set} token\n    balances[msg.sender] = SafeMath.sub(balances[msg.sender], quantity);\n\n    // Decrement the total token supply\n    totalSupply = SafeMath.sub(totalSupply, quantity);\n\n    LogRedemption(msg.sender, quantity);\n\n    return true;\n  }\n}\n",
  "sourcePath": "/Users/felixfeng/Dapps/set-internal-contracts/contracts/SetToken.sol",
  "schemaVersion": "1.0.0",
  "updatedAt": "2017-12-07T01:04:20.951Z"
}