{
  "contractName": "SetToken",
  "abi": [
    {
      "constant": true,
      "inputs": [],
      "name": "getUnits",
      "outputs": [
        {
          "name": "",
          "type": "uint256[]"
        }
      ],
      "payable": false,
      "stateMutability": "view",
      "type": "function"
    },
    {
      "constant": true,
      "inputs": [],
      "name": "name",
      "outputs": [
        {
          "name": "",
          "type": "string"
        }
      ],
      "payable": false,
      "stateMutability": "view",
      "type": "function"
    },
    {
      "constant": false,
      "inputs": [
        {
          "name": "_spender",
          "type": "address"
        },
        {
          "name": "_value",
          "type": "uint256"
        }
      ],
      "name": "approve",
      "outputs": [
        {
          "name": "",
          "type": "bool"
        }
      ],
      "payable": false,
      "stateMutability": "nonpayable",
      "type": "function"
    },
    {
      "constant": true,
      "inputs": [],
      "name": "totalSupply",
      "outputs": [
        {
          "name": "",
          "type": "uint256"
        }
      ],
      "payable": false,
      "stateMutability": "view",
      "type": "function"
    },
    {
      "constant": false,
      "inputs": [
        {
          "name": "_from",
          "type": "address"
        },
        {
          "name": "_to",
          "type": "address"
        },
        {
          "name": "_value",
          "type": "uint256"
        }
      ],
      "name": "transferFrom",
      "outputs": [
        {
          "name": "",
          "type": "bool"
        }
      ],
      "payable": false,
      "stateMutability": "nonpayable",
      "type": "function"
    },
    {
      "constant": true,
      "inputs": [],
      "name": "decimals",
      "outputs": [
        {
          "name": "",
          "type": "uint8"
        }
      ],
      "payable": false,
      "stateMutability": "view",
      "type": "function"
    },
    {
      "constant": true,
      "inputs": [
        {
          "name": "",
          "type": "uint256"
        }
      ],
      "name": "tokens",
      "outputs": [
        {
          "name": "",
          "type": "address"
        }
      ],
      "payable": false,
      "stateMutability": "view",
      "type": "function"
    },
    {
      "constant": false,
      "inputs": [
        {
          "name": "_spender",
          "type": "address"
        },
        {
          "name": "_subtractedValue",
          "type": "uint256"
        }
      ],
      "name": "decreaseApproval",
      "outputs": [
        {
          "name": "",
          "type": "bool"
        }
      ],
      "payable": false,
      "stateMutability": "nonpayable",
      "type": "function"
    },
    {
      "constant": true,
      "inputs": [
        {
          "name": "_owner",
          "type": "address"
        }
      ],
      "name": "balanceOf",
      "outputs": [
        {
          "name": "balance",
          "type": "uint256"
        }
      ],
      "payable": false,
      "stateMutability": "view",
      "type": "function"
    },
    {
      "constant": true,
      "inputs": [],
      "name": "symbol",
      "outputs": [
        {
          "name": "",
          "type": "string"
        }
      ],
      "payable": false,
      "stateMutability": "view",
      "type": "function"
    },
    {
      "constant": true,
      "inputs": [],
      "name": "tokenCount",
      "outputs": [
        {
          "name": "tokensLength",
          "type": "uint256"
        }
      ],
      "payable": false,
      "stateMutability": "view",
      "type": "function"
    },
    {
      "constant": false,
      "inputs": [
        {
          "name": "_to",
          "type": "address"
        },
        {
          "name": "_value",
          "type": "uint256"
        }
      ],
      "name": "transfer",
      "outputs": [
        {
          "name": "",
          "type": "bool"
        }
      ],
      "payable": false,
      "stateMutability": "nonpayable",
      "type": "function"
    },
    {
      "constant": true,
      "inputs": [],
      "name": "getTokens",
      "outputs": [
        {
          "name": "",
          "type": "address[]"
        }
      ],
      "payable": false,
      "stateMutability": "view",
      "type": "function"
    },
    {
      "constant": false,
      "inputs": [
        {
          "name": "quantity",
          "type": "uint256"
        }
      ],
      "name": "issue",
      "outputs": [
        {
          "name": "success",
          "type": "bool"
        }
      ],
      "payable": false,
      "stateMutability": "nonpayable",
      "type": "function"
    },
    {
      "constant": false,
      "inputs": [
        {
          "name": "_spender",
          "type": "address"
        },
        {
          "name": "_addedValue",
          "type": "uint256"
        }
      ],
      "name": "increaseApproval",
      "outputs": [
        {
          "name": "",
          "type": "bool"
        }
      ],
      "payable": false,
      "stateMutability": "nonpayable",
      "type": "function"
    },
    {
      "constant": false,
      "inputs": [
        {
          "name": "quantity",
          "type": "uint256"
        }
      ],
      "name": "redeem",
      "outputs": [
        {
          "name": "success",
          "type": "bool"
        }
      ],
      "payable": false,
      "stateMutability": "nonpayable",
      "type": "function"
    },
    {
      "constant": true,
      "inputs": [
        {
          "name": "_owner",
          "type": "address"
        },
        {
          "name": "_spender",
          "type": "address"
        }
      ],
      "name": "allowance",
      "outputs": [
        {
          "name": "",
          "type": "uint256"
        }
      ],
      "payable": false,
      "stateMutability": "view",
      "type": "function"
    },
    {
      "constant": true,
      "inputs": [
        {
          "name": "",
          "type": "uint256"
        }
      ],
      "name": "units",
      "outputs": [
        {
          "name": "",
          "type": "uint256"
        }
      ],
      "payable": false,
      "stateMutability": "view",
      "type": "function"
    },
    {
      "inputs": [
        {
          "name": "_tokens",
          "type": "address[]"
        },
        {
          "name": "_units",
          "type": "uint256[]"
        },
        {
          "name": "_name",
          "type": "string"
        },
        {
          "name": "_symbol",
          "type": "string"
        }
      ],
      "payable": false,
      "stateMutability": "nonpayable",
      "type": "constructor"
    },
    {
      "anonymous": false,
      "inputs": [
        {
          "indexed": true,
          "name": "_sender",
          "type": "address"
        },
        {
          "indexed": true,
          "name": "_quantity",
          "type": "uint256"
        }
      ],
      "name": "LogIssuance",
      "type": "event"
    },
    {
      "anonymous": false,
      "inputs": [
        {
          "indexed": true,
          "name": "_sender",
          "type": "address"
        },
        {
          "indexed": true,
          "name": "_quantity",
          "type": "uint256"
        }
      ],
      "name": "LogRedemption",
      "type": "event"
    },
    {
      "anonymous": false,
      "inputs": [
        {
          "indexed": true,
          "name": "owner",
          "type": "address"
        },
        {
          "indexed": true,
          "name": "spender",
          "type": "address"
        },
        {
          "indexed": false,
          "name": "value",
          "type": "uint256"
        }
      ],
      "name": "Approval",
      "type": "event"
    },
    {
      "anonymous": false,
      "inputs": [
        {
          "indexed": true,
          "name": "from",
          "type": "address"
        },
        {
          "indexed": true,
          "name": "to",
          "type": "address"
        },
        {
          "indexed": false,
          "name": "value",
          "type": "uint256"
        }
      ],
      "name": "Transfer",
      "type": "event"
    }
  ],
  "bytecode": "0x606060405234156200001057600080fd5b60405162001197380380620011978339810160405280805182019190602001805182019190602001805182019190602001805190910190506000808060206040519081016040528060008152506020604051908101604052600081526012600383805162000083929160200190620001b4565b50600482805162000099929160200190620001b4565b506005805460ff191660ff929092169190911790555060009050875111620000c057600080fd5b6000865111620000cf57600080fd5b8551875114620000de57600080fd5b600092505b85518310156200014f57858381518110620000fa57fe5b906020019060200201519150600082116200011457600080fd5b8683815181106200012157fe5b906020019060200201519050600160a060020a03811615156200014357600080fd5b600190920191620000e3565b60078780516200016492916020019062000239565b5060088680516200017a929160200190620002a1565b50600385805162000190929160200190620001b4565b506004848051620001a6929160200190620001b4565b505050505050505062000325565b828054600181600116156101000203166002900490600052602060002090601f016020900481019282601f10620001f757805160ff191683800117855562000227565b8280016001018555821562000227579182015b82811115620002275782518255916020019190600101906200020a565b5062000235929150620002de565b5090565b82805482825590600052602060002090810192821562000293579160200282015b82811115620002935782518254600160a060020a031916600160a060020a0391909116178255602092909201916001909101906200025a565b5062000235929150620002fe565b828054828255906000526020600020908101928215620002275791602002820182811115620002275782518255916020019190600101906200020a565b620002fb91905b80821115620002355760008155600101620002e5565b90565b620002fb91905b8082111562000235578054600160a060020a031916815560010162000305565b610e6280620003356000396000f3006060604052600436106100e25763ffffffff60e060020a600035041663027aa9f581146100e757806306fdde031461014d578063095ea7b3146101d757806318160ddd1461020d57806323b872dd14610232578063313ce5671461025a5780634f64b2be1461028357806366188463146102b557806370a08231146102d757806395d89b41146102f65780639f181b5e14610309578063a9059cbb1461031c578063aa6ca8081461033e578063cc872b6614610351578063d73dd62314610367578063db006a7514610389578063dd62ed3e1461039f578063e5fba6cc146103c4575b600080fd5b34156100f257600080fd5b6100fa6103da565b60405160208082528190810183818151815260200191508051906020019060200280838360005b83811015610139578082015183820152602001610121565b505050509050019250505060405180910390f35b341561015857600080fd5b610160610438565b60405160208082528190810183818151815260200191508051906020019080838360005b8381101561019c578082015183820152602001610184565b50505050905090810190601f1680156101c95780820380516001836020036101000a031916815260200191505b509250505060405180910390f35b34156101e257600080fd5b6101f9600160a060020a03600435166024356104d6565b604051901515815260200160405180910390f35b341561021857600080fd5b610220610542565b60405190815260200160405180910390f35b341561023d57600080fd5b6101f9600160a060020a0360043581169060243516604435610548565b341561026557600080fd5b61026d6106c8565b60405160ff909116815260200160405180910390f35b341561028e57600080fd5b6102996004356106d1565b604051600160a060020a03909116815260200160405180910390f35b34156102c057600080fd5b6101f9600160a060020a03600435166024356106f9565b34156102e257600080fd5b610220600160a060020a03600435166107f3565b341561030157600080fd5b61016061080e565b341561031457600080fd5b610220610879565b341561032757600080fd5b6101f9600160a060020a036004351660243561087f565b341561034957600080fd5b6100fa610991565b341561035c57600080fd5b6101f96004356109f8565b341561037257600080fd5b6101f9600160a060020a0360043516602435610b74565b341561039457600080fd5b6101f9600435610c18565b34156103aa57600080fd5b610220600160a060020a0360043581169060243516610db2565b34156103cf57600080fd5b610220600435610ddd565b6103e2610e24565b600880548060200260200160405190810160405280929190818152602001828054801561042e57602002820191906000526020600020905b81548152602001906001019080831161041a575b5050505050905090565b60038054600181600116156101000203166002900480601f0160208091040260200160405190810160405280929190818152602001828054600181600116156101000203166002900480156104ce5780601f106104a3576101008083540402835291602001916104ce565b820191906000526020600020905b8154815290600101906020018083116104b157829003601f168201915b505050505081565b600160a060020a03338116600081815260026020908152604080832094871680845294909152808220859055909291907f8c5be1e5ebec7d5bd14f71427d1e84f3dd0314c0f7b2291e5b200ac8c7c3b9259085905190815260200160405180910390a350600192915050565b60065481565b6000600160a060020a038316151561055f57600080fd5b600160a060020a03841660009081526020819052604090205482111561058457600080fd5b600160a060020a03808516600090815260026020908152604080832033909416835292905220548211156105b757600080fd5b600160a060020a0384166000908152602081905260409020546105e0908363ffffffff610dfc16565b600160a060020a038086166000908152602081905260408082209390935590851681522054610615908363ffffffff610e0e16565b600160a060020a038085166000908152602081815260408083209490945587831682526002815283822033909316825291909152205461065b908363ffffffff610dfc16565b600160a060020a03808616600081815260026020908152604080832033861684529091529081902093909355908516917fddf252ad1be2c89b69c2b068fc378daa952ba7f163c4a11628f55a4df523b3ef9085905190815260200160405180910390a35060019392505050565b60055460ff1681565b60078054829081106106df57fe5b600091825260209091200154600160a060020a0316905081565b600160a060020a0333811660009081526002602090815260408083209386168352929052908120548083111561075657600160a060020a03338116600090815260026020908152604080832093881683529290529081205561078d565b610766818463ffffffff610dfc16565b600160a060020a033381166000908152600260209081526040808320938916835292905220555b600160a060020a0333811660008181526002602090815260408083209489168084529490915290819020547f8c5be1e5ebec7d5bd14f71427d1e84f3dd0314c0f7b2291e5b200ac8c7c3b925915190815260200160405180910390a35060019392505050565b600160a060020a031660009081526020819052604090205490565b60048054600181600116156101000203166002900480601f0160208091040260200160405190810160405280929190818152602001828054600181600116156101000203166002900480156104ce5780601f106104a3576101008083540402835291602001916104ce565b60075490565b6000600160a060020a038316151561089657600080fd5b600160a060020a0333166000908152602081905260409020548211156108bb57600080fd5b600160a060020a0333166000908152602081905260409020546108e4908363ffffffff610dfc16565b600160a060020a033381166000908152602081905260408082209390935590851681522054610919908363ffffffff610e0e16565b60008085600160a060020a0316600160a060020a031681526020019081526020016000208190555082600160a060020a031633600160a060020a03167fddf252ad1be2c89b69c2b068fc378daa952ba7f163c4a11628f55a4df523b3ef8460405190815260200160405180910390a350600192915050565b610999610e24565b600780548060200260200160405190810160405280929190818152602001828054801561042e57602002820191906000526020600020905b8154600160a060020a031681526001909101906020018083116109d1575050505050905090565b60008080805b600754831015610ae6576007805484908110610a1657fe5b60009182526020909120015460088054600160a060020a0390921693509084908110610a3e57fe5b906000526020600020900154905081600160a060020a03166323b872dd333088850260006040516020015260405160e060020a63ffffffff8616028152600160a060020a0393841660048201529190921660248201526044810191909152606401602060405180830381600087803b1515610ab857600080fd5b6102c65a03f11515610ac957600080fd5b505050604051805190501515610adb57fe5b6001909201916109fe565b600160a060020a033316600090815260208190526040902054610b099086610e0e565b600160a060020a033316600090815260208190526040902055600654610b2f9086610e0e565b60065584600160a060020a0333167ffbd21f8762dc0c4fc0dbc03a2f816a0a617102a0f9d1908bbc09d377a0b9c6ab60405160405180910390a3506001949350505050565b600160a060020a033381166000908152600260209081526040808320938616835292905290812054610bac908363ffffffff610e0e16565b600160a060020a0333811660008181526002602090815260408083209489168084529490915290819020849055919290917f8c5be1e5ebec7d5bd14f71427d1e84f3dd0314c0f7b2291e5b200ac8c7c3b92591905190815260200160405180910390a350600192915050565b600160a060020a03331660009081526020819052604081205481908190819085901015610c4457600080fd5b600160a060020a033316600090815260208190526040902054610c679086610dfc565b600160a060020a033316600090815260208190526040902055600654610c8d9086610dfc565b600655600092505b600754831015610d70576007805484908110610cad57fe5b60009182526020909120015460088054600160a060020a0390921693509084908110610cd557fe5b906000526020600020900154905081600160a060020a031663a9059cbb3387840260006040516020015260405160e060020a63ffffffff8516028152600160a060020a0390921660048301526024820152604401602060405180830381600087803b1515610d4257600080fd5b6102c65a03f11515610d5357600080fd5b505050604051805190501515610d6557fe5b600190920191610c95565b8433600160a060020a03167f2de3ebe1bb56079998f2617612ba527a2690a100757600dfc0d7253c808b742960405160405180910390a3506001949350505050565b600160a060020a03918216600090815260026020908152604080832093909416825291909152205490565b6008805482908110610deb57fe5b600091825260209091200154905081565b600082821115610e0857fe5b50900390565b600082820183811015610e1d57fe5b9392505050565b602060405190810160405260008152905600a165627a7a723058208355d51e6c50a0c21f1f48999df670bf20438d89d668ea150a941923b9f9a0980029",
  "source": "pragma solidity 0.4.18;\n\n\nimport \"zeppelin-solidity/contracts/token/ERC20/StandardToken.sol\";\nimport \"zeppelin-solidity/contracts/token/ERC20/ERC20.sol\";\nimport \"zeppelin-solidity/contracts/token/ERC20/DetailedERC20.sol\";\nimport \"zeppelin-solidity/contracts/math/SafeMath.sol\";\nimport \"./internal-lib/Set.sol\";\n\n\n/**\n * @title {Set}\n * @author Felix Feng\n * @dev Implementation of the basic {Set} token.\n */\ncontract SetToken is StandardToken, DetailedERC20(\"\", \"\", 18), Set {\n  uint256 public totalSupply;\n\n  address[] public tokens;\n  uint[] public units;\n\n  /**\n   * @dev Constructor Function for the issuance of an {Set} token\n   * @param _tokens address[] A list of token address which you want to include\n   * @param _units uint[] A list of quantities of each token (corresponds to the {Set} of _tokens)\n   */\n  function SetToken(address[] _tokens, uint[] _units, string _name, string _symbol) public {\n    // There must be tokens present\n    require(_tokens.length > 0);\n\n    // There must be an array of units\n    require(_units.length > 0);\n\n    // The number of tokens must equal the number of units\n    require(_tokens.length == _units.length);\n\n    for (uint i = 0; i < _units.length; i++) {\n      // Check that all units are non-zero. Negative numbers will underflow\n      uint currentUnits = _units[i];\n      require(currentUnits > 0);\n\n      // Check that all addresses are non-zero\n      address currentToken = _tokens[i];\n      require(currentToken != address(0));\n    }\n\n    // As looping operations are expensive, checking for duplicates will be\n    // on the onus of the application developer\n\n    // NOTE: It will be the onus of developers to check whether the addressExists\n    // are in fact ERC20 addresses\n\n    tokens = _tokens;\n    units = _units;\n    name = _name;\n    symbol = _symbol;\n  }\n\n  /**\n   * @dev Function to convert tokens into {Set} Tokens\n   *\n   * Please note that the user's ERC20 tokens must be approved by\n   * their ERC20 contract to transfer their tokens to this contract.\n   *\n   * @param quantity uint The quantity of tokens desired to convert\n   */\n  function issue(uint quantity) public returns (bool success) {\n    // Transfers the sender's tokens to the contract\n    for (uint i = 0; i < tokens.length; i++) {\n      address currentToken = tokens[i];\n      uint currentUnits = units[i];\n\n      // The transaction will fail if any of the tokens fail to transfer\n      assert(ERC20(currentToken).transferFrom(msg.sender, this, currentUnits * quantity));\n    }\n\n    // If successful, increment the balance of the user’s {Set} token\n    balances[msg.sender] = SafeMath.add(balances[msg.sender], quantity);\n\n    // Increment the total token supply\n    totalSupply = SafeMath.add(totalSupply, quantity);\n\n    LogIssuance(msg.sender, quantity);\n\n    return true;\n  }\n\n  /**\n   * @dev Function to convert {Set} Tokens into underlying tokens\n   *\n   * The ERC20 tokens do not need to be approved to call this function\n   *\n   * @param quantity uint The quantity of tokens desired to redeem\n   */\n  function redeem(uint quantity) public returns (bool success) {\n    // Check that the sender has sufficient tokens\n    require(balances[msg.sender] >= quantity);\n\n   // If successful, decrement the balance of the user’s {Set} token\n    balances[msg.sender] = SafeMath.sub(balances[msg.sender], quantity);\n\n    // Decrement the total token supply\n    totalSupply = SafeMath.sub(totalSupply, quantity);\n\n    for (uint i = 0; i < tokens.length; i++) {\n      address currentToken = tokens[i];\n      uint currentUnits = units[i];\n\n      // The transaction will fail if any of the tokens fail to transfer\n      assert(ERC20(currentToken).transfer(msg.sender, currentUnits * quantity));\n    }\n\n    LogRedemption(msg.sender, quantity);\n\n    return true;\n  }\n\n  function tokenCount() public view returns(uint tokensLength) {\n    return tokens.length;\n  }\n\n  // tokens and units require a separate getter method even though they are 'public'\n  // because mappings do not support getters yet\n  function getTokens() public view returns(address[]) {\n    return tokens;\n  }\n\n  function getUnits() public view returns(uint[]) {\n    return units;\n  }\n}\n",
  "sourcePath": "/Users/justinkchen/workspace/set-internal-contracts/contracts/SetToken.sol",
  "compiler": {
    "name": "solc",
    "version": "0.4.18+commit.9cf6e910.Emscripten.clang"
  },
  "schemaVersion": "1.0.1",
  "updatedAt": "2018-02-17T08:48:42.741Z"
}