{
  "contractName": "SetToken",
  "abi": [
    {
      "constant": true,
      "inputs": [],
      "name": "getUnits",
      "outputs": [
        {
          "name": "",
          "type": "uint256[]"
        }
      ],
      "payable": false,
      "stateMutability": "view",
      "type": "function"
    },
    {
      "constant": true,
      "inputs": [],
      "name": "name",
      "outputs": [
        {
          "name": "",
          "type": "string"
        }
      ],
      "payable": false,
      "stateMutability": "view",
      "type": "function"
    },
    {
      "constant": false,
      "inputs": [
        {
          "name": "_spender",
          "type": "address"
        },
        {
          "name": "_value",
          "type": "uint256"
        }
      ],
      "name": "approve",
      "outputs": [
        {
          "name": "",
          "type": "bool"
        }
      ],
      "payable": false,
      "stateMutability": "nonpayable",
      "type": "function"
    },
    {
      "constant": true,
      "inputs": [],
      "name": "totalSupply",
      "outputs": [
        {
          "name": "",
          "type": "uint256"
        }
      ],
      "payable": false,
      "stateMutability": "view",
      "type": "function"
    },
    {
      "constant": true,
      "inputs": [],
      "name": "componentCount",
      "outputs": [
        {
          "name": "componentsLength",
          "type": "uint256"
        }
      ],
      "payable": false,
      "stateMutability": "view",
      "type": "function"
    },
    {
      "constant": false,
      "inputs": [
        {
          "name": "_from",
          "type": "address"
        },
        {
          "name": "_to",
          "type": "address"
        },
        {
          "name": "_value",
          "type": "uint256"
        }
      ],
      "name": "transferFrom",
      "outputs": [
        {
          "name": "",
          "type": "bool"
        }
      ],
      "payable": false,
      "stateMutability": "nonpayable",
      "type": "function"
    },
    {
      "constant": true,
      "inputs": [],
      "name": "decimals",
      "outputs": [
        {
          "name": "",
          "type": "uint8"
        }
      ],
      "payable": false,
      "stateMutability": "view",
      "type": "function"
    },
    {
      "constant": true,
      "inputs": [],
      "name": "naturalUnit",
      "outputs": [
        {
          "name": "",
          "type": "uint256"
        }
      ],
      "payable": false,
      "stateMutability": "view",
      "type": "function"
    },
    {
      "constant": false,
      "inputs": [
        {
          "name": "_spender",
          "type": "address"
        },
        {
          "name": "_subtractedValue",
          "type": "uint256"
        }
      ],
      "name": "decreaseApproval",
      "outputs": [
        {
          "name": "",
          "type": "bool"
        }
      ],
      "payable": false,
      "stateMutability": "nonpayable",
      "type": "function"
    },
    {
      "constant": true,
      "inputs": [
        {
          "name": "_owner",
          "type": "address"
        }
      ],
      "name": "balanceOf",
      "outputs": [
        {
          "name": "balance",
          "type": "uint256"
        }
      ],
      "payable": false,
      "stateMutability": "view",
      "type": "function"
    },
    {
      "constant": false,
      "inputs": [
        {
          "name": "quantity",
          "type": "uint256"
        },
        {
          "name": "excludedComponents",
          "type": "address[]"
        }
      ],
      "name": "partialRedeem",
      "outputs": [
        {
          "name": "success",
          "type": "bool"
        }
      ],
      "payable": false,
      "stateMutability": "nonpayable",
      "type": "function"
    },
    {
      "constant": true,
      "inputs": [
        {
          "name": "",
          "type": "address"
        },
        {
          "name": "",
          "type": "address"
        }
      ],
      "name": "unredeemedComponents",
      "outputs": [
        {
          "name": "balance",
          "type": "uint256"
        },
        {
          "name": "isRedeemed",
          "type": "bool"
        }
      ],
      "payable": false,
      "stateMutability": "view",
      "type": "function"
    },
    {
      "constant": false,
      "inputs": [
        {
          "name": "componentsToRedeem",
          "type": "address[]"
        },
        {
          "name": "quantities",
          "type": "uint256[]"
        }
      ],
      "name": "redeemExcluded",
      "outputs": [
        {
          "name": "success",
          "type": "bool"
        }
      ],
      "payable": false,
      "stateMutability": "nonpayable",
      "type": "function"
    },
    {
      "constant": true,
      "inputs": [],
      "name": "symbol",
      "outputs": [
        {
          "name": "",
          "type": "string"
        }
      ],
      "payable": false,
      "stateMutability": "view",
      "type": "function"
    },
    {
      "constant": true,
      "inputs": [],
      "name": "getComponents",
      "outputs": [
        {
          "name": "",
          "type": "address[]"
        }
      ],
      "payable": false,
      "stateMutability": "view",
      "type": "function"
    },
    {
      "constant": false,
      "inputs": [
        {
          "name": "_to",
          "type": "address"
        },
        {
          "name": "_value",
          "type": "uint256"
        }
      ],
      "name": "transfer",
      "outputs": [
        {
          "name": "",
          "type": "bool"
        }
      ],
      "payable": false,
      "stateMutability": "nonpayable",
      "type": "function"
    },
    {
      "constant": true,
      "inputs": [
        {
          "name": "",
          "type": "uint256"
        }
      ],
      "name": "components",
      "outputs": [
        {
          "name": "address_",
          "type": "address"
        },
        {
          "name": "unit_",
          "type": "uint256"
        }
      ],
      "payable": false,
      "stateMutability": "view",
      "type": "function"
    },
    {
      "constant": false,
      "inputs": [
        {
          "name": "quantity",
          "type": "uint256"
        }
      ],
      "name": "issue",
      "outputs": [
        {
          "name": "success",
          "type": "bool"
        }
      ],
      "payable": false,
      "stateMutability": "nonpayable",
      "type": "function"
    },
    {
      "constant": false,
      "inputs": [
        {
          "name": "_spender",
          "type": "address"
        },
        {
          "name": "_addedValue",
          "type": "uint256"
        }
      ],
      "name": "increaseApproval",
      "outputs": [
        {
          "name": "",
          "type": "bool"
        }
      ],
      "payable": false,
      "stateMutability": "nonpayable",
      "type": "function"
    },
    {
      "constant": false,
      "inputs": [
        {
          "name": "quantity",
          "type": "uint256"
        }
      ],
      "name": "redeem",
      "outputs": [
        {
          "name": "success",
          "type": "bool"
        }
      ],
      "payable": false,
      "stateMutability": "nonpayable",
      "type": "function"
    },
    {
      "constant": true,
      "inputs": [
        {
          "name": "_owner",
          "type": "address"
        },
        {
          "name": "_spender",
          "type": "address"
        }
      ],
      "name": "allowance",
      "outputs": [
        {
          "name": "",
          "type": "uint256"
        }
      ],
      "payable": false,
      "stateMutability": "view",
      "type": "function"
    },
    {
      "inputs": [
        {
          "name": "_components",
          "type": "address[]"
        },
        {
          "name": "_units",
          "type": "uint256[]"
        },
        {
          "name": "_naturalUnit",
          "type": "uint256"
        }
      ],
      "payable": false,
      "stateMutability": "nonpayable",
      "type": "constructor"
    },
    {
      "payable": true,
      "stateMutability": "payable",
      "type": "fallback"
    },
    {
      "anonymous": false,
      "inputs": [
        {
          "indexed": true,
          "name": "_sender",
          "type": "address"
        },
        {
          "indexed": true,
          "name": "_quantity",
          "type": "uint256"
        },
        {
          "indexed": false,
          "name": "_excludedComponents",
          "type": "address[]"
        }
      ],
      "name": "LogPartialRedemption",
      "type": "event"
    },
    {
      "anonymous": false,
      "inputs": [
        {
          "indexed": true,
          "name": "_sender",
          "type": "address"
        },
        {
          "indexed": false,
          "name": "_components",
          "type": "address[]"
        }
      ],
      "name": "LogRedeemExcluded",
      "type": "event"
    },
    {
      "anonymous": false,
      "inputs": [
        {
          "indexed": true,
          "name": "_sender",
          "type": "address"
        },
        {
          "indexed": true,
          "name": "_quantity",
          "type": "uint256"
        }
      ],
      "name": "LogIssuance",
      "type": "event"
    },
    {
      "anonymous": false,
      "inputs": [
        {
          "indexed": true,
          "name": "_sender",
          "type": "address"
        },
        {
          "indexed": true,
          "name": "_quantity",
          "type": "uint256"
        }
      ],
      "name": "LogRedemption",
      "type": "event"
    },
    {
      "anonymous": false,
      "inputs": [
        {
          "indexed": true,
          "name": "owner",
          "type": "address"
        },
        {
          "indexed": true,
          "name": "spender",
          "type": "address"
        },
        {
          "indexed": false,
          "name": "value",
          "type": "uint256"
        }
      ],
      "name": "Approval",
      "type": "event"
    },
    {
      "anonymous": false,
      "inputs": [
        {
          "indexed": true,
          "name": "from",
          "type": "address"
        },
        {
          "indexed": true,
          "name": "to",
          "type": "address"
        },
        {
          "indexed": false,
          "name": "value",
          "type": "uint256"
        }
      ],
      "name": "Transfer",
      "type": "event"
    }
  ],
  "bytecode": "0x60806040523480156200001157600080fd5b50604051620025e6380380620025e68339810180604052620000379190810190620004ca565b60408051602081810180845260008084528451928301909452838252825184938493909290916012916200006f916003919062000300565b5081516200008590600490602085019062000300565b506005805460ff191660ff9290921691909117905550508551600010620000e3576040517f08c379a0000000000000000000000000000000000000000000000000000000008152600401620000da90620006ff565b60405180910390fd5b845160001062000121576040517f08c379a0000000000000000000000000000000000000000000000000000000008152600401620000da9062000711565b84518651146200015f576040517f08c379a0000000000000000000000000000000000000000000000000000000008152600401620000da9062000723565b600084116200016d57600080fd5b6006849055600092505b8451831015620002f45784838151811015156200019057fe5b60209081029091010151915060008211620001d9576040517f08c379a0000000000000000000000000000000000000000000000000000000008152600401620000da90620006d5565b8583815181101515620001e857fe5b602090810290910101519050600160a060020a038116151562000239576040517f08c379a0000000000000000000000000000000000000000000000000000000008152600401620000da90620006ed565b600160a060020a0381811660008181526008602090815260408083208054600160ff1990911681179091558151808301909252938152908101868152600780548086018255935290517fa66cc928b5edb82af9bd49922954155ab7b0942694bea4ce44661d9a8736c68860029093029283018054600160a060020a031916919095161790935591517fa66cc928b5edb82af9bd49922954155ab7b0942694bea4ce44661d9a8736c68990920191909155929092019162000177565b50505050505062000789565b828054600181600116156101000203166002900490600052602060002090601f016020900481019282601f106200034357805160ff191683800117855562000373565b8280016001018555821562000373579182015b828111156200037357825182559160200191906001019062000356565b506200038192915062000385565b5090565b620003a291905b808211156200038157600081556001016200038c565b90565b6000620003b382516200077d565b9392505050565b6000601f82018313620003cc57600080fd5b8151620003e3620003dd826200075c565b62000735565b915081818352602084019350602081019050838560208402820111156200040957600080fd5b60005b83811015620004395781620004228882620003a5565b84525060209283019291909101906001016200040c565b5050505092915050565b6000601f820183136200045557600080fd5b815162000466620003dd826200075c565b915081818352602084019350602081019050838560208402820111156200048c57600080fd5b60005b83811015620004395781620004a58882620004bc565b84525060209283019291909101906001016200048f565b6000620003b38251620003a2565b600080600060608486031215620004e057600080fd5b83516001604060020a03811115620004f757600080fd5b6200050586828701620003ba565b93505060208401516001604060020a038111156200052257600080fd5b620005308682870162000443565b92505060406200054386828701620004bc565b9150509250925092565b602281527f556e6974206465636c61726174696f6e73206d757374206265206e6f6e2d7a6560208201527f726f000000000000000000000000000000000000000000000000000000000000604082015260600190565b602581527f436f6d706f6e656e7473206d7573742068617665206e6f6e2d7a65726f20616460208201527f6472657373000000000000000000000000000000000000000000000000000000604082015260600190565b602981527f436f6d706f6e656e74206c656e677468206e6565647320746f2062652067726560208201527f6174207468616e20300000000000000000000000000000000000000000000000604082015260600190565b601c81527f556e697473206d7573742062652067726561746572207468616e203000000000602082015260400190565b602b81527f436f6d706f6e656e7420616e6420756e6974206c656e67746873206d7573742060208201527f6265207468652073616d65000000000000000000000000000000000000000000604082015260600190565b60208082528101620006e7816200054d565b92915050565b60208082528101620006e781620005a3565b60208082528101620006e781620005f9565b60208082528101620006e7816200064f565b60208082528101620006e7816200067f565b6040518181016001604060020a03811182821017156200075457600080fd5b604052919050565b60006001604060020a038211156200077357600080fd5b5060209081020190565b600160a060020a031690565b611e4d80620007996000396000f30060806040526004361061011c5763ffffffff7c0100000000000000000000000000000000000000000000000000000000600035041663027aa9f5811461012157806306fdde031461014c578063095ea7b31461016e57806318160ddd1461019b5780631fe26e9d146101bd57806323b872dd146101d2578063313ce567146101f257806342a7cfd514610214578063661884631461022957806370a0823114610249578063835a749d14610269578063873fb3f614610289578063899967b7146102b757806395d89b41146102d757806399d50d5d146102ec578063a9059cbb1461030e578063c5d574fe1461032e578063cc872b661461035c578063d73dd6231461037c578063db006a751461039c578063dd62ed3e146103bc575b600080fd5b34801561012d57600080fd5b506101366103dc565b6040516101439190611c9b565b60405180910390f35b34801561015857600080fd5b50610161610468565b6040516101439190611cba565b34801561017a57600080fd5b5061018e610189366004611870565b6104f6565b6040516101439190611cac565b3480156101a757600080fd5b506101b0610566565b6040516101439190611d2b565b3480156101c957600080fd5b506101b061056c565b3480156101de57600080fd5b5061018e6101ed366004611823565b610572565b3480156101fe57600080fd5b506102076105bf565b6040516101439190611d54565b34801561022057600080fd5b506101b06105c8565b34801561023557600080fd5b5061018e610244366004611870565b6105ce565b34801561025557600080fd5b506101b06102643660046117cb565b6106ce565b34801561027557600080fd5b5061018e61028436600461193b565b6106e9565b34801561029557600080fd5b506102a96102a43660046117e9565b610b34565b604051610143929190611d39565b3480156102c357600080fd5b5061018e6102d23660046118a0565b610b5b565b3480156102e357600080fd5b50610161610d75565b3480156102f857600080fd5b50610301610dd0565b6040516101439190611c8a565b34801561031a57600080fd5b5061018e610329366004611870565b610e6e565b34801561033a57600080fd5b5061034e61034936600461191d565b610eb9565b604051610143929190611c6f565b34801561036857600080fd5b5061018e61037736600461191d565b610eef565b34801561038857600080fd5b5061018e610397366004611870565b611084565b3480156103a857600080fd5b5061018e6103b736600461191d565b611119565b3480156103c857600080fd5b506101b06103d73660046117e9565b6112ea565b6060806000600780549050604051908082528060200260200182016040528015610410578160200160208202803883390190505b509150600090505b60075481101561046257600780548290811061043057fe5b906000526020600020906002020160010154828281518110151561045057fe5b60209081029091010152600101610418565b50919050565b6003805460408051602060026001851615610100026000190190941693909304601f810184900484028201840190925281815292918301828280156104ee5780601f106104c3576101008083540402835291602001916104ee565b820191906000526020600020905b8154815290600101906020018083116104d157829003601f168201915b505050505081565b600160a060020a0333811660008181526002602090815260408083209487168084529490915280822085905551909291907f8c5be1e5ebec7d5bd14f71427d1e84f3dd0314c0f7b2291e5b200ac8c7c3b92590610554908690611d2b565b60405180910390a35060015b92915050565b60015490565b60075490565b600082600160a060020a038116151561058a57600080fd5b30600160a060020a031681600160a060020a0316141515156105ab57600080fd5b6105b6858585611315565b95945050505050565b60055460ff1681565b60065481565b600160a060020a0333811660009081526002602090815260408083209386168352929052908120548083111561062b57600160a060020a033381166000908152600260209081526040808320938816835292905290812055610662565b61063b818463ffffffff61149b16565b600160a060020a033381166000908152600260209081526040808320938916835292905220555b600160a060020a03338116600081815260026020908152604080832094891680845294909152908190205490517f8c5be1e5ebec7d5bd14f71427d1e84f3dd0314c0f7b2291e5b200ac8c7c3b925916106ba91611d2b565b60405180910390a3600191505b5092915050565b600160a060020a031660009081526020819052604090205490565b60008060008060008060008060008a6006548181151561070557fe5b061561071057600080fd5b8b6000811161071e57600080fd5b600160a060020a0333166000908152602081905260409020548d908111156107645760405160e560020a62461bcd02815260040161075b90611ccb565b60405180910390fd5b6007548d51106107895760405160e560020a62461bcd02815260040161075b90611cdb565b8c516000106107ad5760405160e560020a62461bcd02815260040161075b90611d1b565b6107b68e6114ad565b60009a505b6007548b1015610a7857600099506107f360078c8154811015156107db57fe5b9060005260206000209060020201600101548f611508565b9850600097505b8c518810156109a5578c8881518110151561081157fe5b6020908102909101810151600160a060020a0381166000908152600890925260409091205490975060ff16151561084457fe5b86600160a060020a031660078c81548110151561085d57fe5b6000918252602090912060029091020154600160a060020a0316141561099a576009600060078d81548110151561089057fe5b60009182526020808320600290920290910154600160a060020a03908116845283820194909452604092830182203390941682529290925290206001015460ff16955085156108db57fe5b886009600060078e8154811015156108ef57fe5b60009182526020808320600290920290910154600160a060020a039081168452838201949094526040928301822033909416825292909252812080549092019091556007805460019260099290918f90811061094757fe5b6000918252602080832060029290920290910154600160a060020a03908116845283820194909452604092830182203390941682529290925290206001908101805460ff19169215159290921790915599505b6001909701966107fa565b891515610a6d57600780548c9081106109ba57fe5b60009182526020909120600290910201546040517fa9059cbb000000000000000000000000000000000000000000000000000000008152600160a060020a039091169063a9059cbb90610a139033908d90600401611c6f565b602060405180830381600087803b158015610a2d57600080fd5b505af1158015610a41573d6000803e3d6000fd5b505050506040513d601f19601f82011682018060405250610a6591908101906118ff565b1515610a6d57fe5b6001909a01996107bb565b600094505b8c51851015610ade578c85815181101515610a9457fe5b6020908102909101810151600160a060020a038082166000908152600984526040808220339093168252919093529091206001908101805460ff1916905595909501949350610a7d565b8d33600160a060020a03167f5496ad420584a641ee395874a8f10b487477a3f556afd77fe06fb3d0f1e712898f604051610b189190611c8a565b60405180910390a35060019d9c50505050505050505050505050565b60096020908152600092835260408084209091529082529020805460019091015460ff1682565b6000806000806000808651111515610b885760405160e560020a62461bcd02815260040161075b90611ceb565b8651600010610bac5760405160e560020a62461bcd02815260040161075b90611d0b565b8651865114610bd05760405160e560020a62461bcd02815260040161075b90611cfb565b600093505b8551841015610d25578684815181101515610bec57fe5b9060200190602002015192508584815181101515610c0657fe5b6020908102909101810151600160a060020a0380861660009081526009845260408082203390931682529190935290912054909250905081811015610c4a57600080fd5b610c5a818363ffffffff61149b16565b600160a060020a038085166000818152600960209081526040808320339586168452909152908190209390935591517fa9059cbb00000000000000000000000000000000000000000000000000000000815263a9059cbb91610cc0918690600401611c6f565b602060405180830381600087803b158015610cda57600080fd5b505af1158015610cee573d6000803e3d6000fd5b505050506040513d601f19601f82011682018060405250610d1291908101906118ff565b1515610d1a57fe5b600190930192610bd5565b33600160a060020a03167f1b0302ab65ed6c4d7fe0c883f0ec43c2b70b2a3a0bcb6d5ce2e7042ae3ec501e88604051610d5e9190611c8a565b60405180910390a2600194505b5050505092915050565b6004805460408051602060026001851615610100026000190190941693909304601f810184900484028201840190925281815292918301828280156104ee5780601f106104c3576101008083540402835291602001916104ee565b6060806000600780549050604051908082528060200260200182016040528015610e04578160200160208202803883390190505b509150600090505b600754811015610462576007805482908110610e2457fe5b60009182526020909120600290910201548251600160a060020a0390911690839083908110610e4f57fe5b600160a060020a03909216602092830290910190910152600101610e0c565b600082600160a060020a0381161515610e8657600080fd5b30600160a060020a031681600160a060020a031614151515610ea757600080fd5b610eb1848461152f565b949350505050565b6007805482908110610ec757fe5b600091825260209091206002909102018054600190910154600160a060020a03909116915082565b60008060008060008560065481811515610f0557fe5b0615610f1057600080fd5b8660008111610f1e57600080fd5b600095505b600754861015611037576007805487908110610f3b57fe5b600091825260209091206002909102015460078054600160a060020a0390921696509087908110610f6857fe5b9060005260206000209060020201600101549350610f868489611508565b6040517f23b872dd000000000000000000000000000000000000000000000000000000008152909350600160a060020a038616906323b872dd90610fd290339030908890600401611c47565b602060405180830381600087803b158015610fec57600080fd5b505af1158015611000573d6000803e3d6000fd5b505050506040513d601f19601f8201168201806040525061102491908101906118ff565b151561102c57fe5b600190950194610f23565b6110408861161c565b6040518890600160a060020a033316907ffbd21f8762dc0c4fc0dbc03a2f816a0a617102a0f9d1908bbc09d377a0b9c6ab90600090a3506001979650505050505050565b600160a060020a0333811660009081526002602090815260408083209386168352929052908120546110bc908363ffffffff61167116565b600160a060020a033381166000818152600260209081526040808320948916808452949091529081902084905551919290917f8c5be1e5ebec7d5bd14f71427d1e84f3dd0314c0f7b2291e5b200ac8c7c3b9259161055491611d2b565b6000806000806000856006548181151561112f57fe5b061561113a57600080fd5b600160a060020a03331660009081526020819052604090205487908111156111775760405160e560020a62461bcd02815260040161075b90611ccb565b876000811161118557600080fd5b61118e896114ad565b600096505b6007548710156112a55760078054889081106111ab57fe5b600091825260209091206002909102015460078054600160a060020a03909216975090889081106111d857fe5b90600052602060002090600202016001015494506111f6858a611508565b6040517fa9059cbb000000000000000000000000000000000000000000000000000000008152909450600160a060020a0387169063a9059cbb906112409033908890600401611c6f565b602060405180830381600087803b15801561125a57600080fd5b505af115801561126e573d6000803e3d6000fd5b505050506040513d601f19601f8201168201806040525061129291908101906118ff565b151561129a57fe5b600190960195611193565b6040518990600160a060020a033316907f2de3ebe1bb56079998f2617612ba527a2690a100757600dfc0d7253c808b742990600090a350600198975050505050505050565b600160a060020a03918216600090815260026020908152604080832093909416825291909152205490565b6000600160a060020a038316151561132c57600080fd5b600160a060020a03841660009081526020819052604090205482111561135157600080fd5b600160a060020a038085166000908152600260209081526040808320339094168352929052205482111561138457600080fd5b600160a060020a0384166000908152602081905260409020546113ad908363ffffffff61149b16565b600160a060020a0380861660009081526020819052604080822093909355908516815220546113e2908363ffffffff61167116565b600160a060020a0380851660009081526020818152604080832094909455878316825260028152838220339093168252919091522054611428908363ffffffff61149b16565b600160a060020a03808616600081815260026020908152604080832033861684529091529081902093909355915190851691907fddf252ad1be2c89b69c2b068fc378daa952ba7f163c4a11628f55a4df523b3ef90611488908690611d2b565b60405180910390a35060015b9392505050565b6000828211156114a757fe5b50900390565b600160a060020a0333166000908152602081905260409020546114d6908263ffffffff61149b16565b600160a060020a033316600090815260208190526040902055600154611502908263ffffffff61149b16565b60015550565b6000611494836115236006548561168090919063ffffffff16565b9063ffffffff61169716565b6000600160a060020a038316151561154657600080fd5b600160a060020a03331660009081526020819052604090205482111561156b57600080fd5b600160a060020a033316600090815260208190526040902054611594908363ffffffff61149b16565b600160a060020a0333811660009081526020819052604080822093909355908516815220546115c9908363ffffffff61167116565b600160a060020a038085166000818152602081905260409081902093909355915133909116907fddf252ad1be2c89b69c2b068fc378daa952ba7f163c4a11628f55a4df523b3ef90610554908690611d2b565b600160a060020a033316600090815260208190526040902054611645908263ffffffff61167116565b600160a060020a033316600090815260208190526040902055600154611502908263ffffffff61167116565b60008282018381101561149457fe5b600080828481151561168e57fe5b04949350505050565b6000808315156116aa57600091506106c7565b508282028284828115156116ba57fe5b041461149457fe5b60006114948235611db4565b6000601f820183136116df57600080fd5b81356116f26116ed82611d89565b611d62565b9150818183526020840193506020810190508385602084028201111561171757600080fd5b60005b83811015610d6b578161172d88826116c2565b845250602092830192919091019060010161171a565b6000601f8201831361175457600080fd5b81356117626116ed82611d89565b9150818183526020840193506020810190508385602084028201111561178757600080fd5b60005b83811015610d6b578161179d88826117bf565b845250602092830192919091019060010161178a565b60006114948251611dc0565b60006114948235611dc5565b6000602082840312156117dd57600080fd5b6000610eb184846116c2565b600080604083850312156117fc57600080fd5b600061180885856116c2565b9250506020611819858286016116c2565b9150509250929050565b60008060006060848603121561183857600080fd5b600061184486866116c2565b9350506020611855868287016116c2565b9250506040611866868287016117bf565b9150509250925092565b6000806040838503121561188357600080fd5b600061188f85856116c2565b9250506020611819858286016117bf565b600080604083850312156118b357600080fd5b823567ffffffffffffffff8111156118ca57600080fd5b6118d6858286016116ce565b925050602083013567ffffffffffffffff8111156118f357600080fd5b61181985828601611743565b60006020828403121561191157600080fd5b6000610eb184846117b3565b60006020828403121561192f57600080fd5b6000610eb184846117bf565b6000806040838503121561194e57600080fd5b600061195a85856117bf565b925050602083013567ffffffffffffffff81111561197757600080fd5b611819858286016116ce565b61198c81611db4565b82525050565b600061199d82611db0565b8084526020840193506119af83611daa565b60005b828110156119df576119c5868351611983565b6119ce82611daa565b6020969096019591506001016119b2565b5093949350505050565b60006119f482611db0565b808452602084019350611a0683611daa565b60005b828110156119df57611a1c868351611c35565b611a2582611daa565b602096909601959150600101611a09565b61198c81611dc0565b61198c81611dce565b6000611a5382611db0565b808452611a67816020860160208601611dd9565b611a7081611e09565b9093016020019392505050565b602581527f5573657220646f6573206e6f7420686176652073756666696369656e7420626160208201527f6c616e6365000000000000000000000000000000000000000000000000000000604082015260600190565b603c81527f4578636c7564656420636f6d706f6e656e74206c656e677468206d757374206260208201527f65206c657373207468616e20636f6d706f6e656e74206c656e67746800000000604082015260600190565b601b81527f5175616e746974696573206d757374206265206e6f6e2d7a65726f0000000000602082015260400190565b601881527f4c656e67746873206d757374206265207468652073616d650000000000000000602082015260400190565b602481527f436f6d706f6e656e74732072656465656d6564206d757374206265206e6f6e2d60208201527f7a65726f00000000000000000000000000000000000000000000000000000000604082015260600190565b602481527f4578636c7564656420636f6d706f6e656e7473206d757374206265206e6f6e2d60208201527f7a65726f00000000000000000000000000000000000000000000000000000000604082015260600190565b61198c81611dc5565b61198c81611dc8565b60608101611c558286611983565b611c626020830185611a3f565b610eb16040830184611c35565b60408101611c7d8285611983565b6114946020830184611c35565b602080825281016114948184611992565b6020808252810161149481846119e9565b602081016105608284611a36565b602080825281016114948184611a48565b6020808252810161056081611a7d565b6020808252810161056081611ad3565b6020808252810161056081611b29565b6020808252810161056081611b59565b6020808252810161056081611b89565b6020808252810161056081611bdf565b602081016105608284611c35565b60408101611d478285611c35565b6114946020830184611a36565b602081016105608284611c3e565b60405181810167ffffffffffffffff81118282101715611d8157600080fd5b604052919050565b600067ffffffffffffffff821115611da057600080fd5b5060209081020190565b60200190565b5190565b600160a060020a031690565b151590565b90565b60ff1690565b600061056082611db4565b60005b83811015611df4578181015183820152602001611ddc565b83811115611e03576000848401525b50505050565b601f01601f1916905600a265627a7a7230582086d2f9355479e1c5ba5d57a6cfc964e59979718c03abcb98f31e9ac7ddde156b6c6578706572696d656e74616cf50037",
  "source": "pragma solidity 0.4.23;\npragma experimental ABIEncoderV2;\n\n\nimport \"zeppelin-solidity/contracts/token/ERC20/StandardToken.sol\";\nimport \"zeppelin-solidity/contracts/token/ERC20/ERC20.sol\";\nimport \"zeppelin-solidity/contracts/token/ERC20/DetailedERC20.sol\";\nimport \"./external/SafeMathUint256.sol\";\nimport \"./lib/Set.sol\";\n\n\n/**\n * @title {Set}\n * @author Felix Feng\n * @dev Implementation of the basic {Set} token.\n */\ncontract SetToken is StandardToken, DetailedERC20(\"\", \"\", 18), Set {\n  using SafeMathUint256 for uint256;\n\n  ///////////////////////////////////////////////////////////\n  /// Data Structures\n  ///////////////////////////////////////////////////////////\n  struct Component {\n    address address_;\n    uint unit_;\n  }\n\n  struct UnredeemedComponent {\n    uint balance;\n    bool isRedeemed;\n  }\n\n  ///////////////////////////////////////////////////////////\n  /// States\n  ///////////////////////////////////////////////////////////\n  uint public naturalUnit;\n  Component[] public components;\n  mapping(address => bool) internal isComponent;\n  // Mapping of token address -> user address -> UnredeemedComponent\n  mapping(address => mapping(address => UnredeemedComponent)) public unredeemedComponents;\n\n\n  ///////////////////////////////////////////////////////////\n  /// Events\n  ///////////////////////////////////////////////////////////\n  event LogPartialRedemption(\n    address indexed _sender,\n    uint indexed _quantity,\n    address[] _excludedComponents\n  );\n\n  event LogRedeemExcluded(\n    address indexed _sender,\n    address[] _components\n  );\n\n  ///////////////////////////////////////////////////////////\n  /// Modifiers\n  ///////////////////////////////////////////////////////////\n  modifier hasSufficientBalance(uint quantity) {\n    // Check that the sender has sufficient components\n    // Since the component length is defined ahead of time, this is not \n    // an unbounded loop\n    require(balances[msg.sender] >= quantity, \"User does not have sufficient balance\");\n    _;\n  }\n\n  modifier validDestination(address _to) {\n    require(_to != address(0));\n    require(_to != address(this));\n    _;\n  }\n\n  modifier isMultipleOfNaturalUnit(uint _quantity) {\n    require((_quantity % naturalUnit) == 0);\n    _;\n  }\n\n  modifier isNonZero(uint _quantity) {\n    require(_quantity > 0);\n    _;\n  }\n\n  /**\n   * @dev Constructor Function for the issuance of an {Set} token\n   * @param _components address[] A list of component address which you want to include\n   * @param _units uint[] A list of quantities in gWei of each component (corresponds to the {Set} of _components)\n   */\n  constructor(address[] _components, uint[] _units, uint _naturalUnit) public {\n    // There must be component present\n    require(_components.length > 0, \"Component length needs to be great than 0\");\n\n    // There must be an array of units\n    require(_units.length > 0, \"Units must be greater than 0\");\n\n    // The number of components must equal the number of units\n    require(_components.length == _units.length, \"Component and unit lengths must be the same\");\n\n    require(_naturalUnit > 0);\n    naturalUnit = _naturalUnit;\n\n    // As looping operations are expensive, checking for duplicates will be\n    // on the onus of the application developer\n\n    // NOTE: It will be the onus of developers to check whether the addressExists\n    // are in fact ERC20 addresses\n    for (uint i = 0; i < _units.length; i++) {\n      // Check that all units are non-zero. Negative numbers will underflow\n      uint currentUnits = _units[i];\n      require(currentUnits > 0, \"Unit declarations must be non-zero\");\n\n      // Check that all addresses are non-zero\n      address currentComponent = _components[i];\n      require(currentComponent != address(0), \"Components must have non-zero address\");\n\n      // add component to isComponent mapping\n      isComponent[currentComponent] = true;\n\n      components.push(Component({\n        address_: currentComponent,\n        unit_: currentUnits  \n      }));\n    }\n  }\n\n  // Prevent Ether from being sent to the contract\n  function () payable {\n    revert();\n  }\n\n  ///////////////////////////////////////////////////////////\n  /// Set Functions\n  ///////////////////////////////////////////////////////////\n\n  /**\n   * @dev Function to convert component into {Set} Tokens\n   *\n   * Please note that the user's ERC20 component must be approved by\n   * their ERC20 contract to transfer their components to this contract.\n   *\n   * @param quantity uint The quantity of component desired to convert in Wei\n   */\n  function issue(uint quantity)\n    isMultipleOfNaturalUnit(quantity)\n    isNonZero(quantity)\n    public returns (bool success) {\n    // Transfers the sender's components to the contract\n    // Since the component length is defined ahead of time, this is not \n    // an unbounded loop\n    for (uint i = 0; i < components.length; i++) {\n      address currentComponent = components[i].address_;\n      uint currentUnits = components[i].unit_;\n\n      uint transferValue = calculateTransferValue(currentUnits, quantity);\n\n      assert(ERC20(currentComponent).transferFrom(msg.sender, this, transferValue));\n    }\n\n    mint(quantity);\n\n    emit LogIssuance(msg.sender, quantity);\n\n    return true;\n  }\n\n  /**\n   * @dev Function to convert {Set} Tokens into underlying components\n   *\n   * The ERC20 components do not need to be approved to call this function\n   *\n   * @param quantity uint The quantity of Sets desired to redeem in Wei\n   */\n  function redeem(uint quantity)\n    public\n    isMultipleOfNaturalUnit(quantity)\n    hasSufficientBalance(quantity)\n    isNonZero(quantity)\n    returns (bool success)\n  {\n    burn(quantity);\n\n    for (uint i = 0; i < components.length; i++) {\n      address currentComponent = components[i].address_;\n      uint currentUnits = components[i].unit_;\n\n      uint transferValue = calculateTransferValue(currentUnits, quantity);\n\n      // The transaction will fail if any of the components fail to transfer\n      assert(ERC20(currentComponent).transfer(msg.sender, transferValue));\n    }\n\n    emit LogRedemption(msg.sender, quantity);\n\n    return true;\n  }\n\n  /**\n   * @dev Function to withdraw a portion of the component tokens of a Set\n   *\n   * This function should be used in the event that a component token has been\n   * paused for transfer temporarily or permanently. This allows users a\n   * method to withdraw tokens in the event that one token has been frozen\n   *\n   * @param quantity uint The quantity of Sets desired to redeem in Wei\n   * @param excludedComponents address[] The list of tokens to exclude\n   */\n  function partialRedeem(uint quantity, address[] excludedComponents)\n    public\n    isMultipleOfNaturalUnit(quantity)\n    isNonZero(quantity)\n    hasSufficientBalance(quantity)\n    returns (bool success)\n  {\n    // Excluded tokens should be less than the number of components\n    // Otherwise, use the normal redeem function\n    require(\n      excludedComponents.length < components.length,\n      \"Excluded component length must be less than component length\"\n    );\n    require(excludedComponents.length > 0, \"Excluded components must be non-zero\");\n\n    burn(quantity);\n\n    for (uint i = 0; i < components.length; i++) {\n      bool isExcluded = false;\n\n      uint transferValue = calculateTransferValue(components[i].unit_, quantity);\n\n      // This is unideal to do a doubly nested loop, but the number of excludedComponents\n      // should generally be a small number\n      for (uint j = 0; j < excludedComponents.length; j++) {\n        address currentExcluded = excludedComponents[j];\n\n        // Check that excluded token is indeed a component in this contract\n        assert(isComponent[currentExcluded]);\n\n        // If the token is excluded, add to the user's unredeemed component value\n        if (components[i].address_ == currentExcluded) {\n          // Check whether component is already redeemed; Ensures duplicate excludedComponents\n          // has not been inputted.\n          bool currentIsRedeemed = unredeemedComponents[components[i].address_][msg.sender].isRedeemed;\n          assert(currentIsRedeemed == false);\n\n          unredeemedComponents[components[i].address_][msg.sender].balance += transferValue;\n\n          // Mark redeemed to ensure no duplicates\n          unredeemedComponents[components[i].address_][msg.sender].isRedeemed = true;\n\n          isExcluded = true;\n        }\n      }\n\n      if (!isExcluded) {\n        assert(ERC20(components[i].address_).transfer(msg.sender, transferValue));  \n      }\n    }\n\n    // Mark all excluded components not redeemed\n    for (uint k = 0; k < excludedComponents.length; k++) {\n      address currentExcludedToUnredeem = excludedComponents[k];\n      unredeemedComponents[currentExcludedToUnredeem][msg.sender].isRedeemed = false;\n    }\n\n    emit LogPartialRedemption(msg.sender, quantity, excludedComponents);\n\n    return true;\n  }\n\n  /**\n   * @dev Function to withdraw tokens that have previously been excluded when calling\n   * the redeemExcluded method\n   *\n   * This function should be used to retrieve tokens that have previously excluded\n   * when calling the redeemExcluded function.\n   *\n   * @param componentsToRedeem address[] The list of tokens to redeem\n   * @param quantities uint[] The quantity of Sets desired to redeem in Wei\n   */\n  function redeemExcluded(address[] componentsToRedeem, uint[] quantities)\n    public\n    returns (bool success)\n  {\n    require(quantities.length > 0, \"Quantities must be non-zero\");\n    require(componentsToRedeem.length > 0, \"Components redeemed must be non-zero\");\n    require(quantities.length == componentsToRedeem.length, \"Lengths must be the same\");\n\n    for (uint i = 0; i < quantities.length; i++) {\n      address currentComponent = componentsToRedeem[i];\n      uint currentQuantity = quantities[i];\n\n      // Check there is enough balance\n      uint remainingBalance = unredeemedComponents[currentComponent][msg.sender].balance;\n      require(remainingBalance >= currentQuantity);\n\n      // To prevent re-entrancy attacks, decrement the user's Set balance\n      unredeemedComponents[currentComponent][msg.sender].balance = remainingBalance.sub(currentQuantity);\n\n      assert(ERC20(currentComponent).transfer(msg.sender, currentQuantity));\n    }\n\n    emit LogRedeemExcluded(msg.sender, componentsToRedeem);\n\n    return true;\n  }\n\n  ///////////////////////////////////////////////////////////\n  /// Getters\n  ///////////////////////////////////////////////////////////\n\n  function componentCount() public view returns(uint componentsLength) {\n    return components.length;\n  }\n\n  function getComponents() public view returns(address[]) {\n    address[] memory componentAddresses = new address[](components.length);\n    for (uint i = 0; i < components.length; i++) {\n        componentAddresses[i] = components[i].address_;\n    }\n    return componentAddresses;\n  }\n\n  function getUnits() public view returns(uint[]) {\n    uint[] memory units = new uint[](components.length);\n    for (uint i = 0; i < components.length; i++) {\n        units[i] = components[i].unit_;\n    }\n    return units;\n  }\n\n  ///////////////////////////////////////////////////////////\n  /// Transfer Updates\n  ///////////////////////////////////////////////////////////\n  function transfer(address _to, uint256 _value) validDestination(_to) public returns (bool) {\n    return super.transfer(_to, _value);\n  }\n\n  function transferFrom(address _from, address _to, uint256 _value) validDestination(_to) public returns (bool) {\n    return super.transferFrom(_from, _to, _value);\n  }\n\n  ///////////////////////////////////////////////////////////\n  /// Private Function\n  ///////////////////////////////////////////////////////////\n\n  function calculateTransferValue(uint currentUnits, uint quantity) internal returns(uint) {\n    return quantity.div(naturalUnit).mul(currentUnits);\n  }\n\n  function mint(uint quantity) internal {\n    // If successful, increment the balance of the users {Set} token\n    balances[msg.sender] = balances[msg.sender].add(quantity);\n\n    // Increment the total token supply\n    totalSupply_ = totalSupply_.add(quantity);\n  }\n\n  function burn(uint quantity) internal {\n    balances[msg.sender] = balances[msg.sender].sub(quantity);\n    totalSupply_ = totalSupply_.sub(quantity);\n  }\n}\n",
  "sourcePath": "/Users/felixfeng/Dapps/set-protocol-contracts/contracts/SetToken.sol",
  "schemaVersion": "1.0.0",
  "updatedAt": "2018-05-01T02:39:27.381Z"
}